{
  "contractName": "Collectibles",
  "abi": [
    {
      "inputs": [],
      "stateMutability": "nonpayable",
      "type": "constructor"
    },
    {
      "anonymous": false,
      "inputs": [
        {
          "indexed": false,
          "internalType": "uint8",
          "name": "",
          "type": "uint8"
        }
      ],
      "name": "collectible_sold",
      "type": "event"
    },
    {
      "inputs": [],
      "name": "collectible_prize",
      "outputs": [
        {
          "internalType": "uint256",
          "name": "",
          "type": "uint256"
        }
      ],
      "stateMutability": "view",
      "type": "function"
    },
    {
      "inputs": [
        {
          "internalType": "uint8",
          "name": "",
          "type": "uint8"
        }
      ],
      "name": "collectibles_list",
      "outputs": [
        {
          "internalType": "string",
          "name": "",
          "type": "string"
        }
      ],
      "stateMutability": "view",
      "type": "function"
    },
    {
      "inputs": [],
      "name": "collectibles_number",
      "outputs": [
        {
          "internalType": "uint8",
          "name": "",
          "type": "uint8"
        }
      ],
      "stateMutability": "view",
      "type": "function"
    },
    {
      "inputs": [
        {
          "internalType": "uint256",
          "name": "",
          "type": "uint256"
        }
      ],
      "name": "collectibles_sold",
      "outputs": [
        {
          "internalType": "bool",
          "name": "",
          "type": "bool"
        }
      ],
      "stateMutability": "view",
      "type": "function"
    },
    {
      "inputs": [],
      "name": "get_address",
      "outputs": [
        {
          "internalType": "address",
          "name": "",
          "type": "address"
        }
      ],
      "stateMutability": "view",
      "type": "function"
    },
    {
      "inputs": [
        {
          "internalType": "uint8",
          "name": "collectible_id",
          "type": "uint8"
        }
      ],
      "name": "buy_collectible",
      "outputs": [
        {
          "internalType": "string",
          "name": "",
          "type": "string"
        }
      ],
      "stateMutability": "payable",
      "type": "function"
    }
  ],
  "bytecode": "0x60c0604052670de0b6b3a7640000608052600860a05234801561002157600080fd5b5060408051808201909152600d81527f48656c6c6f5f4b697474795f3000000000000000000000000000000000000000602080830191825260008080529052905161008d917fad3228b676f7d3cd4284a5443f17f1962b36e491b30a40b2405849e597ba5fb591610403565b5060408051808201909152600d81527f48656c6c6f5f4b697474795f3100000000000000000000000000000000000000602080830191825260016000908152905290516100fb917fada5013122d395ba3c54772283fb069b10426056ef8ca54750cb9bb552a59e7d91610403565b5060408051808201909152600d81527f48656c6c6f5f4b697474795f320000000000000000000000000000000000000060208083019182526002600090815290529051610169917fabbb5caa7dda850e60932de0934eb1f9d0f59695050f761dc64e443e5030a56991610403565b5060408051808201909152600d81527f48656c6c6f5f4b697474795f3300000000000000000000000000000000000000602080830191825260036000908152905290516101d7917f101e368776582e57ab3d116ffe2517c0a585cd5b23174b01e275c2d8329c3d8391610403565b5060408051808201909152600d81527f48656c6c6f5f4b697474795f340000000000000000000000000000000000000060208083019182526004600090815290529051610245917f52d75039926638d3c558b2bdefb945d5be8dae29dedd1c313212a4d472d9fde591610403565b5060408051808201909152600d81527f48656c6c6f5f4b697474795f3500000000000000000000000000000000000000602080830191825260056000908152905290516102b3917f2b232c97452f0950c94e2539fdc7e69d21166113cf7a9bcb99b220a3fe5d720a91610403565b5060408051808201909152600d81527f48656c6c6f5f4b697474795f360000000000000000000000000000000000000060208083019182526006600090815290529051610321917f62103cf3131c85df57aad364d21cba02556d3092d6cb54c298c2e7726a7870bd91610403565b5060408051808201909152600d81527f48656c6c6f5f4b697474795f37000000000000000000000000000000000000006020808301918252600760009081529052905161038f917f870253054e3d98b71abec8fff9ebf8a15d167f15909091a800d4acaab9266d2b91610403565b5060408051808201909152600d81527f48656c6c6f5f4b697474795f3800000000000000000000000000000000000000602080830191825260086000908152905290516103fd917f5b8b9143058ba3a137192c563ca6541845e62f0a2f9a667aac4db2fa3c334e3c91610403565b506104ef565b82805461040f9061049c565b90600052602060002090601f0160209004810192826104315760008555610477565b82601f1061044a57805160ff1916838001178555610477565b82800160010185558215610477579182015b8281111561047757825182559160200191906001019061045c565b50610483929150610487565b5090565b5b808211156104835760008155600101610488565b6002810460018216806104b057607f821691505b6020821081036104e9577f4e487b7100000000000000000000000000000000000000000000000000000000600052602260045260246000fd5b50919050565b60805160a05161073162000531600039600081816101470152610256015260008181610105015281816102eb0152818161040b015261043601526107316000f3fe608060405260043610610071577c010000000000000000000000000000000000000000000000000000000060003504630131222f811461007657806313fd311b1461009657806352801f97146100c35780635e96430c146100f35780638e621c0e14610135578063fdd695f31461017b575b600080fd5b34801561008257600080fd5b506040513081526020015b60405180910390f35b3480156100a257600080fd5b506100b66100b13660046105a3565b61018e565b60405161008d91906105cd565b3480156100cf57600080fd5b506100e36100de366004610622565b610228565b604051901515815260200161008d565b3480156100ff57600080fd5b506101277f000000000000000000000000000000000000000000000000000000000000000081565b60405190815260200161008d565b34801561014157600080fd5b506101697f000000000000000000000000000000000000000000000000000000000000000081565b60405160ff909116815260200161008d565b6100b66101893660046105a3565b610252565b600060208190529081526040902080546101a79061063b565b80601f01602080910402602001604051908101604052809291908181526020018280546101d39061063b565b80156102205780601f106101f557610100808354040283529160200191610220565b820191906000526020600020905b81548152906001019060200180831161020357829003601f168201915b505050505081565b6001816009811061023857600080fd5b60209182820401919006915054906101000a900460ff1681565b60607f000000000000000000000000000000000000000000000000000000000000000060ff168260ff1611156102e9576040517f08c379a000000000000000000000000000000000000000000000000000000000815260206004820152601460248201527f57726f6e6720436f6c6c65637469626c655f494400000000000000000000000060448201526064015b60405180910390fd5b7f0000000000000000000000000000000000000000000000000000000000000000341015610373576040517f08c379a000000000000000000000000000000000000000000000000000000000815260206004820152600f60248201527f56616c756520746f6f20736d616c6c000000000000000000000000000000000060448201526064016102e0565b60018260ff16600981106103895761038961068e565b602081049091015460ff601f9092166101000a90041615610406576040517f08c379a000000000000000000000000000000000000000000000000000000000815260206004820152601860248201527f436f6c6c65637469626c6520616c726561647920736f6c64000000000000000060448201526064016102e0565b3460007f000000000000000000000000000000000000000000000000000000000000000082111561048d5761045b7f0000000000000000000000000000000000000000000000000000000000000000836106bd565b604051909150339082156108fc029083906000818181858888f1935050505015801561048b573d6000803e3d6000fd5b505b60405160ff851681527fe160d4cad63836d753e897f60292d5c77089a275ac297cd64bd763c15fbd23499060200160405180910390a16001808560ff16600981106104da576104da61068e565b602091828204019190066101000a81548160ff0219169083151502179055506000808560ff1660ff168152602001908152602001600020805461051c9061063b565b80601f01602080910402602001604051908101604052809291908181526020018280546105489061063b565b80156105955780601f1061056a57610100808354040283529160200191610595565b820191906000526020600020905b81548152906001019060200180831161057857829003601f168201915b505050505092505050919050565b6000602082840312156105b557600080fd5b813560ff811681146105c657600080fd5b9392505050565b600060208083528351808285015260005b818110156105fa578581018301518582016040015282016105de565b8181111561060c576000604083870101525b50601f01601f1916929092016040019392505050565b60006020828403121561063457600080fd5b5035919050565b60028104600182168061064f57607f821691505b602082108103610688577f4e487b7100000000000000000000000000000000000000000000000000000000600052602260045260246000fd5b50919050565b7f4e487b7100000000000000000000000000000000000000000000000000000000600052603260045260246000fd5b6000828210156106f6577f4e487b7100000000000000000000000000000000000000000000000000000000600052601160045260246000fd5b50039056fea264697066735822122006e1b06cadf9fcea0e26dd10540fd429049b30be3be7027cd104d56b5aa738fb64736f6c634300080e0033",
  "immutableReferences": {
    "4": [
      {
        "length": 32,
        "start": 261
      },
      {
        "length": 32,
        "start": 747
      },
      {
        "length": 32,
        "start": 1035
      },
      {
        "length": 32,
        "start": 1078
      }
    ],
    "7": [
      {
        "length": 32,
        "start": 327
      },
      {
        "length": 32,
        "start": 598
      }
    ]
  },
  "source": "// SPDX-License-Identifier: GPL-3.0\r\n\r\npragma solidity >=0.8.0 <0.9.0;\r\n\r\ncontract Collectibles {\r\n\r\n\r\n    uint public immutable collectible_prize=1000000000000000000;\r\n    uint8 public immutable collectibles_number = 8;\r\n    mapping(uint8 => string  ) public collectibles_list; \r\n    bool [9] public collectibles_sold;\r\n\r\n    event collectible_sold(uint8);\r\n\r\n    constructor(){\r\n\r\n        collectibles_list[0]=\"Hello_Kitty_0\";\r\n        collectibles_list[1]=\"Hello_Kitty_1\";\r\n        collectibles_list[2]=\"Hello_Kitty_2\";\r\n        collectibles_list[3]=\"Hello_Kitty_3\";\r\n        collectibles_list[4]=\"Hello_Kitty_4\";\r\n        collectibles_list[5]=\"Hello_Kitty_5\";\r\n        collectibles_list[6]=\"Hello_Kitty_6\";\r\n        collectibles_list[7]=\"Hello_Kitty_7\";\r\n        collectibles_list[8]=\"Hello_Kitty_8\";\r\n    }\r\n\r\n    function get_address() view public returns (address){\r\n        return address(this);\r\n    }\r\n\r\n    function buy_collectible(uint8 collectible_id) external payable returns(string memory) {\r\n        require(collectible_id <= collectibles_number, \"Wrong Collectible_ID\"); \r\n        require( msg.value >= collectible_prize, \"Value too small\");\r\n        require(!collectibles_sold[collectible_id], \"Collectible already sold\");\r\n\r\n        uint money = msg.value;\r\n        uint change;\r\n\r\n        if(money > collectible_prize) {\r\n            change = money - collectible_prize;\r\n            // Reimbourse the change\r\n            payable(msg.sender).transfer(change);\r\n        }\r\n\r\n        emit collectible_sold(collectible_id);\r\n        collectibles_sold[collectible_id] = true;\r\n        return collectibles_list[collectible_id];\r\n    }\r\n\r\n\r\n\r\n}",
  "sourcePath": "/home/matteo/P2P/contracts/Collectibles.sol",
  "compiler": {
    "name": "solc",
    "version": "0.8.14+commit.80d49f37.Emscripten.clang"
  },
  "schemaVersion": "3.4.7",
  "updatedAt": "2022-06-15T17:15:35.165Z",
  "devdoc": {
    "kind": "dev",
    "methods": {},
    "version": 1
  },
  "userdoc": {
    "kind": "user",
    "methods": {},
    "version": 1
  }
}