{
  "contractName": "DAppContract",
  "abi": [
    {
      "inputs": [],
      "stateMutability": "nonpayable",
      "type": "constructor"
    },
    {
      "anonymous": false,
      "inputs": [],
      "name": "click",
      "type": "event"
    },
    {
      "anonymous": false,
      "inputs": [
        {
          "indexed": false,
          "internalType": "uint256",
          "name": "",
          "type": "uint256"
        }
      ],
      "name": "clickDue",
      "type": "event"
    },
    {
      "anonymous": false,
      "inputs": [
        {
          "indexed": false,
          "internalType": "address",
          "name": "oper",
          "type": "address"
        }
      ],
      "name": "give_operator",
      "type": "event"
    },
    {
      "inputs": [],
      "name": "operator",
      "outputs": [
        {
          "internalType": "address",
          "name": "",
          "type": "address"
        }
      ],
      "stateMutability": "view",
      "type": "function",
      "constant": true
    },
    {
      "inputs": [],
      "name": "valDue",
      "outputs": [
        {
          "internalType": "uint256",
          "name": "",
          "type": "uint256"
        }
      ],
      "stateMutability": "view",
      "type": "function",
      "constant": true
    },
    {
      "inputs": [],
      "name": "value",
      "outputs": [
        {
          "internalType": "uint256",
          "name": "",
          "type": "uint256"
        }
      ],
      "stateMutability": "view",
      "type": "function",
      "constant": true
    },
    {
      "inputs": [],
      "name": "get_operator",
      "outputs": [
        {
          "internalType": "address",
          "name": "",
          "type": "address"
        }
      ],
      "stateMutability": "view",
      "type": "function",
      "constant": true
    },
    {
      "inputs": [],
      "name": "pressClick",
      "outputs": [],
      "stateMutability": "nonpayable",
      "type": "function"
    },
    {
      "inputs": [
        {
          "internalType": "uint256",
          "name": "v",
          "type": "uint256"
        }
      ],
      "name": "clickD",
      "outputs": [],
      "stateMutability": "nonpayable",
      "type": "function"
    }
  ],
  "bytecode": "0x608060405234801561001057600080fd5b5060028054600160a060020a03191633179055602a6000556101dd806100376000396000f3fe608060405234801561001057600080fd5b506004361061007e577c010000000000000000000000000000000000000000000000000000000060003504633fa4f245811461008357806353848f601461009f578063570ca735146100a8578063b9230372146100ed578063bd48e88d14610102578063fcd85cf014610120575b600080fd5b61008c60005481565b6040519081526020015b60405180910390f35b61008c60015481565b6002546100c89073ffffffffffffffffffffffffffffffffffffffff1681565b60405173ffffffffffffffffffffffffffffffffffffffff9091168152602001610096565b6101006100fb36600461018e565b610128565b005b60025473ffffffffffffffffffffffffffffffffffffffff166100c8565b610100610163565b60018190556040518181527fbe1d6a3e429d8443ea5c95c020a063f7ba1235fa705ee35f501ef7bd7e92a5de9060200160405180910390a150565b6040517f7d55923d6614dd1bb0e0f31c0d68411fadec9357b52118ad41a43144861669e290600090a1565b6000602082840312156101a057600080fd5b503591905056fea2646970667358221220f2dff2eb088e860d6d21b2502cd3e8c4315897d908a86af81427de11c88de96264736f6c634300080e0033",
  "immutableReferences": {},
  "source": "// SPDX-License-Identifier: MIT\npragma solidity 0.8.14;\n\ncontract DAppContract {\n\n    uint public value;\n    uint public valDue;\n    event click();\n    event clickDue(uint);\n    address public operator;\n\n    constructor() {\n        operator = msg.sender;\n        value = 42;\n    }\n\n    event give_operator(address oper);\n\n    function get_operator() view public returns (address){\n        return operator;\n    }\n\n    function pressClick() public {\n        \n        emit click();\n    }\n\n    function clickD(uint v) public {\n        valDue = v;\n        emit clickDue(valDue);\n    }\n}",
  "sourcePath": "/home/matteo/P2P/contracts/DAppContract.sol",
  "compiler": {
    "name": "solc",
    "version": "0.8.14+commit.80d49f37.Emscripten.clang"
  },
  "schemaVersion": "3.4.7",
  "updatedAt": "2022-06-18T13:11:29.025Z",
  "networkType": "ethereum",
  "devdoc": {
    "kind": "dev",
    "methods": {},
    "version": 1
  },
  "userdoc": {
    "kind": "user",
    "methods": {},
    "version": 1
  }
}