{
  "contractName": "Lottery",
  "abi": [
    {
      "inputs": [],
      "stateMutability": "nonpayable",
      "type": "constructor"
    },
    {
      "anonymous": false,
      "inputs": [
        {
          "indexed": false,
          "internalType": "bool",
          "name": "res",
          "type": "bool"
        }
      ],
      "name": "bal_initialized",
      "type": "event"
    },
    {
      "anonymous": false,
      "inputs": [
        {
          "indexed": false,
          "internalType": "bool",
          "name": "lottery_closed",
          "type": "bool"
        }
      ],
      "name": "lottery_closed",
      "type": "event"
    },
    {
      "anonymous": false,
      "inputs": [
        {
          "indexed": false,
          "internalType": "address",
          "name": "winner",
          "type": "address"
        },
        {
          "indexed": false,
          "internalType": "uint8[6]",
          "name": "value_provided_user",
          "type": "uint8[6]"
        },
        {
          "indexed": false,
          "internalType": "uint8[6]",
          "name": "draw_numbers",
          "type": "uint8[6]"
        },
        {
          "indexed": false,
          "internalType": "uint8",
          "name": "class_prize",
          "type": "uint8"
        }
      ],
      "name": "prize_assigned",
      "type": "event"
    },
    {
      "anonymous": false,
      "inputs": [
        {
          "indexed": false,
          "internalType": "bool",
          "name": "extraction_phase",
          "type": "bool"
        }
      ],
      "name": "start_extraction_phase",
      "type": "event"
    },
    {
      "anonymous": false,
      "inputs": [
        {
          "indexed": false,
          "internalType": "bool",
          "name": "buy_phase",
          "type": "bool"
        }
      ],
      "name": "start_new_round",
      "type": "event"
    },
    {
      "anonymous": false,
      "inputs": [
        {
          "indexed": false,
          "internalType": "bool",
          "name": "reward_phase",
          "type": "bool"
        }
      ],
      "name": "start_reward_phase",
      "type": "event"
    },
    {
      "anonymous": false,
      "inputs": [
        {
          "indexed": false,
          "internalType": "uint8[6]",
          "name": "ticket_bought",
          "type": "uint8[6]"
        }
      ],
      "name": "ticket_bought",
      "type": "event"
    },
    {
      "anonymous": false,
      "inputs": [
        {
          "indexed": false,
          "internalType": "uint8[6]",
          "name": "values_drawn",
          "type": "uint8[6]"
        }
      ],
      "name": "values_drawn",
      "type": "event"
    },
    {
      "inputs": [],
      "name": "balance_receiver",
      "outputs": [
        {
          "internalType": "address",
          "name": "",
          "type": "address"
        }
      ],
      "stateMutability": "view",
      "type": "function"
    },
    {
      "inputs": [],
      "name": "get_block_initRound",
      "outputs": [
        {
          "internalType": "uint256",
          "name": "",
          "type": "uint256"
        }
      ],
      "stateMutability": "view",
      "type": "function"
    },
    {
      "inputs": [
        {
          "internalType": "uint8",
          "name": "id",
          "type": "uint8"
        }
      ],
      "name": "get_NFT_information",
      "outputs": [
        {
          "internalType": "address",
          "name": "",
          "type": "address"
        },
        {
          "internalType": "string",
          "name": "",
          "type": "string"
        },
        {
          "internalType": "uint8",
          "name": "",
          "type": "uint8"
        }
      ],
      "stateMutability": "view",
      "type": "function"
    },
    {
      "inputs": [
        {
          "internalType": "uint8",
          "name": "id",
          "type": "uint8"
        }
      ],
      "name": "get_ticket_information",
      "outputs": [
        {
          "internalType": "address",
          "name": "",
          "type": "address"
        },
        {
          "internalType": "uint8[6]",
          "name": "",
          "type": "uint8[6]"
        }
      ],
      "stateMutability": "view",
      "type": "function"
    },
    {
      "inputs": [],
      "name": "get_drawn_numbers",
      "outputs": [
        {
          "internalType": "uint8[6]",
          "name": "",
          "type": "uint8[6]"
        }
      ],
      "stateMutability": "view",
      "type": "function"
    },
    {
      "inputs": [
        {
          "internalType": "uint8",
          "name": "id",
          "type": "uint8"
        }
      ],
      "name": "get_collectibles_information",
      "outputs": [
        {
          "internalType": "string",
          "name": "",
          "type": "string"
        }
      ],
      "stateMutability": "view",
      "type": "function"
    },
    {
      "inputs": [],
      "name": "get_operator",
      "outputs": [
        {
          "internalType": "address",
          "name": "",
          "type": "address"
        }
      ],
      "stateMutability": "view",
      "type": "function"
    },
    {
      "inputs": [],
      "name": "get_ticket_price",
      "outputs": [
        {
          "internalType": "uint256",
          "name": "",
          "type": "uint256"
        }
      ],
      "stateMutability": "pure",
      "type": "function"
    },
    {
      "inputs": [],
      "name": "init_side_contracts",
      "outputs": [
        {
          "internalType": "bool",
          "name": "res",
          "type": "bool"
        }
      ],
      "stateMutability": "nonpayable",
      "type": "function"
    },
    {
      "inputs": [
        {
          "internalType": "address",
          "name": "receiver",
          "type": "address"
        }
      ],
      "name": "set_balance_receiver",
      "outputs": [
        {
          "internalType": "bool",
          "name": "res",
          "type": "bool"
        }
      ],
      "stateMutability": "nonpayable",
      "type": "function"
    },
    {
      "inputs": [],
      "name": "close_lottery",
      "outputs": [
        {
          "internalType": "bool",
          "name": "res",
          "type": "bool"
        }
      ],
      "stateMutability": "nonpayable",
      "type": "function"
    },
    {
      "inputs": [
        {
          "internalType": "uint8",
          "name": "id_collectible",
          "type": "uint8"
        }
      ],
      "name": "buy_collectibles",
      "outputs": [
        {
          "internalType": "bool",
          "name": "res",
          "type": "bool"
        }
      ],
      "stateMutability": "payable",
      "type": "function"
    },
    {
      "inputs": [
        {
          "internalType": "uint8[6]",
          "name": "chosen_numbers",
          "type": "uint8[6]"
        }
      ],
      "name": "buy_ticket",
      "outputs": [
        {
          "internalType": "bool",
          "name": "",
          "type": "bool"
        }
      ],
      "stateMutability": "payable",
      "type": "function"
    },
    {
      "inputs": [],
      "name": "draw_numbers",
      "outputs": [
        {
          "internalType": "bool",
          "name": "res",
          "type": "bool"
        }
      ],
      "stateMutability": "nonpayable",
      "type": "function"
    },
    {
      "inputs": [],
      "name": "compute_prizes",
      "outputs": [
        {
          "internalType": "bool",
          "name": "res",
          "type": "bool"
        }
      ],
      "stateMutability": "nonpayable",
      "type": "function"
    },
    {
      "inputs": [],
      "name": "give_prizes",
      "outputs": [
        {
          "internalType": "bool",
          "name": "res",
          "type": "bool"
        }
      ],
      "stateMutability": "nonpayable",
      "type": "function"
    },
    {
      "inputs": [],
      "name": "start_New_Round",
      "outputs": [
        {
          "internalType": "bool",
          "name": "res",
          "type": "bool"
        }
      ],
      "stateMutability": "nonpayable",
      "type": "function"
    }
  ],
  "bytecode": "0x60e0604052670de0b6b3a7640000608052600560a052600e8054604060020a608060020a0319166e010000010000000000000000000000179055600860c05234801561004a57600080fd5b5060038054600160a060020a0319163317905560805160a05160c0516154436100a86000396000610a7301526000611caf01526000818161034601528181610dfa01528181610f5e01528181610fa0015261136201526154436000f3fe608060405260043610620001175760003560e060020a90048063c1558ac111620000a5578063d8ff43641162000070578063d8ff436414620002c8578063e11f35a214620002fc578063e8db515c1462000314578063eb8e96681462000336578063ee37926e146200037557600080fd5b8063c1558ac11462000269578063cbc80f201462000280578063ce4be61e1462000298578063d258ddd314620002b057600080fd5b806389275c3e11620000e657806389275c3e14620001c2578063aa5162d214620001e9578063ab17aa43146200021e578063bd48e88d146200023557600080fd5b8063175dcbd8146200011c578063393cd66914620001495780633ae64eb6146200017f57806349a2d6a61462000197575b600080fd5b3480156200012957600080fd5b50620001346200039a565b60405190151581526020015b60405180910390f35b3480156200015657600080fd5b506200016e62000168366004620021cc565b62000662565b604051620001409392919062002254565b3480156200018c57600080fd5b506200013462000764565b348015620001a457600080fd5b50600e5467ffffffffffffffff165b60405190815260200162000140565b348015620001cf57600080fd5b50620001da620008d2565b604051620001409190620022b3565b348015620001f657600080fd5b506200020e62000208366004620021cc565b6200092d565b60405162000140929190620022c3565b620001346200022f366004620021cc565b62000a5b565b3480156200024257600080fd5b50600354600160a060020a03165b604051600160a060020a03909116815260200162000140565b620001346200027a366004620022e2565b62000be1565b3480156200028d57600080fd5b50620001346200105a565b348015620002a557600080fd5b5062000134620012be565b348015620002bd57600080fd5b5062000134620013fa565b348015620002d557600080fd5b50620002ed620002e7366004620021cc565b620015e7565b6040516200014091906200230c565b3480156200030957600080fd5b5062000134620016f2565b3480156200032157600080fd5b506004546200025090600160a060020a031681565b3480156200034357600080fd5b507f000000000000000000000000000000000000000000000000000000000000000067ffffffffffffffff16620001b3565b3480156200038257600080fd5b50620001346200039436600462002337565b62001a6b565b600354600090600160a060020a031633036200065f57600e546a0100000000000000000000900460ff1615156001036200065f57600e546c01000000000000000000000000900460ff1615156001036200065f57600e546d0100000000000000000000000000900460ff1615156000036200065f576000805b600a5460ff83161015620006325760096000600a8460ff16815481106200043e576200043e62002357565b6000918252602080832090910154600160a060020a0316835282810193909352604091820181205460ff908116808352600c909452919020549192501615156001036200055857600154600a8054600160a060020a0390921691634227e989919060ff8616908110620004b557620004b562002357565b600091825260209091200154600160a060020a0316620004d760018562002389565b60405160e060020a63ffffffff8516028152600160a060020a03909216600483015260ff166024820152604401600060405180830381600087803b1580156200051f57600080fd5b505af115801562000534573d6000803e3d6000fd5b50505060ff82166000908152600c60205260409020805460ff19169055506200061d565b600154600a8054600160a060020a039092169163356837fe919060ff861690811062000588576200058862002357565b600091825260208083209091015460ff861683526005909152604091829020915160e060020a63ffffffff8516028152620005d592600160a060020a039092169190869060040162002492565b6020604051808303816000875af1158015620005f5573d6000803e3d6000fd5b505050506040513d601f19601f820116820180604052508101906200061b9190620024b6565b505b816200062981620024d6565b92505062000413565b5050600e80546dff00ff000000000000000000000019166d01000100000000000000000000001790555060015b90565b600060606000600b805490508460ff1610620006c85760405160e560020a62461bcd02815260206004820152601860248201527f57726f6e67207469636b65745f696420696e736572746564000000000000000060448201526064015b60405180910390fd5b6001546040517fecd6935400000000000000000000000000000000000000000000000000000000815260ff86166004820152600160a060020a039091169063ecd6935490602401600060405180830381865afa1580156200072d573d6000803e3d6000fd5b505050506040513d6000823e601f3d908101601f19168201604052620007579190810190620025a3565b9250925092509193909250565b6000604051620007749062001fdf565b604051809103906000f08015801562000791573d6000803e3d6000fd5b5060018054600160a060020a031916600160a060020a0392909216919091179055604051620007c09062001fed565b604051809103906000f080158015620007dd573d6000803e3d6000fd5b5060008054600160a060020a031916600160a060020a03929092169182179055604080517f0131222f0000000000000000000000000000000000000000000000000000000081529051630131222f916004808201926020929091908290030181865afa15801562000852573d6000803e3d6000fd5b505050506040513d601f19601f8201168201806040525081019062000878919062002610565b60028054600160a060020a031916600160a060020a0392909216919091179055506040516001808252907f868b49a2ebfc8464cfde69a9a40f4e5ba27975d52a67c34dc45f971344bbb85d9060200160405180910390a190565b620008dc62001ffb565b6040805160c081019182905290600790600690826000855b825461010083900a900460ff16815260206001928301818104948501949093039092029101808411620008f45790505050505050905090565b60006200093962001ffb565b600d5460ff841610620009925760405160e560020a62461bcd02815260206004820152601860248201527f57726f6e67207469636b65745f696420696e73657274656400000000000000006044820152606401620006bf565b600d8360ff1681548110620009ab57620009ab62002357565b6000918252602090912060029091020154600d8054600160a060020a039092169160ff8616908110620009e257620009e262002357565b90600052602060002090600202016001018060068060200260405190810160405280929190826006801562000a4b576020028201916000905b825461010083900a900460ff1681526020600192830181810494850194909303909202910180841162000a1b5790505b5050505050905091509150915091565b600354600090600160a060020a0316330362000bdc577f000000000000000000000000000000000000000000000000000000000000000060ff168260ff16111562000aec5760405160e560020a62461bcd02815260206004820181905260248201527f546f6f206869676820436f6c6c65637469626c655f696420696e7365727465646044820152606401620006bf565b6002546040517ffdd695f300000000000000000000000000000000000000000000000000000000815260ff84166004820152600160a060020a039091169063fdd695f390349060240160006040518083038185885af115801562000b54573d6000803e3d6000fd5b50505050506040513d6000823e601f3d908101601f1916820160405262000b7f919081019062002630565b60ff83166000908152600560209081526040909120825162000ba8939192919091019062002019565b506006805460ff1690600062000bbe83620024d6565b91906101000a81548160ff021916908360ff16021790555050600190505b919050565b600e546000903490339068010000000000000000900460ff1662000c4b5760405160e560020a62461bcd02815260206004820152601860248201527f507572636861736520706861736520636f6e636c7564656400000000000000006044820152606401620006bf565b600454600160a060020a0316330362000cd05760405160e560020a62461bcd02815260206004820152602660248201527f5468652062616c616e63652052656365697665722063616e277420626520612060448201527f706c6179657200000000000000000000000000000000000000000000000000006064820152608401620006bf565b6040805160c081810190925262000d00918690600690839083908082843760009201919091525062001b2f915050565b62000d775760405160e560020a62461bcd02815260206004820152603960248201527f596f752063616e277420696e73657274206475706c69636174652076616c756560448201527f7320696e20746865207374616e64617264206e756d62657273000000000000006064820152608401620006bf565b6040805160c081810190925262000da7918690600690839083908082843760009201919091525062001be3915050565b62000df85760405160e560020a62461bcd02815260206004820152601560248201527f57726f6e672076616c75657320696e73657274656400000000000000000000006044820152606401620006bf565b7f000000000000000000000000000000000000000000000000000000000000000067ffffffffffffffff168267ffffffffffffffff16101562000e815760405160e560020a62461bcd02815260206004820152601960248201527f596f752068617665206e6f7420656e6f756768206574686572000000000000006044820152606401620006bf565b6000604051806040016040528083600160a060020a0316815260200186600680602002604051908101604052809291908260066020028082843760009201829052509290935250600d8054600181018255915282517fd7b6990105719101dabeb77144f2a3385c8033acd3af97e9423a695e81ad1eb560029092029182018054600160a060020a031916600160a060020a039092169190911781556020840151939450849390925062000f59917fd7b6990105719101dabeb77144f2a3385c8033acd3af97e9423a695e81ad1eb601906006620020a8565b5050507f000000000000000000000000000000000000000000000000000000000000000067ffffffffffffffff168367ffffffffffffffff16106200100c57600062000fc67f00000000000000000000000000000000000000000000000000000000000000008562002671565b604051909150600160a060020a0384169067ffffffffffffffff831680156108fc02916000818181858888f1935050505015801562001009573d6000803e3d6000fd5b50505b7fb2394f9c9bb5d12e330ce91c38c81cff0ad6288c778694866c2b4d45d98faffb856040516200103d91906200269d565b60405180910390a16200104f62001ca1565b506001949350505050565b600e546000906a0100000000000000000000900460ff1615156001036200065f57600354600160a060020a031633036200065f576000806000806200109e62001ffb565b600091505b600d5460ff831610156200128d57600d8260ff1681548110620010ca57620010ca62002357565b6000918252602082206040805160c081019182905293600290930290910160010191600691908390855b825461010083900a900460ff16815260206001928301818104948501949093039092029101808411620010f457905050505050509050620011358162001d3a565b9550935062001145858562001df6565b925060ff83161562001278578260096000600d8560ff16815481106200116f576200116f62002357565b6000918252602080832060029290920290910154600160a060020a031683528201929092526040019020805460ff191660ff928316179055600d8054600a928516908110620011c257620011c262002357565b60009182526020808320600290920290910154835460018101855593835291209091018054600160a060020a031916600160a060020a03909216919091179055600d80547ff873756bc79496e269b0008c58a987062f57ac370949f1e179faa4146e4f4f52919060ff85169081106200123f576200123f62002357565b60009182526020909120600290910201546040516200126f91600160a060020a03169084906007908890620026df565b60405180910390a15b816200128481620024d6565b925050620010a3565b5050600e80546cff00000000000000000000000019166c010000000000000000000000001790555060019250505090565b600354600090600160a060020a031633036200065f57600e546e010000000000000000000000000000900460ff1615156001036200065f57600e80546eff0000ffffffff00000000000000001916905560005b600d5460ff82161015620013bf57600d8160ff168154811062001338576200133862002357565b60009182526020822060029091020154604051600160a060020a039091169167ffffffffffffffff7f00000000000000000000000000000000000000000000000000000000000000001680156108fc02929091818181858888f19350505050158015620013a9573d6000803e3d6000fd5b5080620013b681620024d6565b91505062001311565b50604051600181527f0659ac7df111eba4d389b3feae4a53e02ad4edcc19c4e95ca0029d5f370ae6b29060200160405180910390a150600190565b600354600090600160a060020a031633036200065f57600e546901000000000000000000900460ff1615156001036200065f576200143762001ffb565b6200144162001eaa565b90506200144e8162001b2f565b620014c55760405160e560020a62461bcd02815260206004820152602160248201527f4475706c69636174652076616c75657320696e20647261776e206e756d62657260448201527f73000000000000000000000000000000000000000000000000000000000000006064820152608401620006bf565b7fc80b886e6f9c0666d91267ac1c905449c7f0bb776a1db0a48ef31a6670db751481604051620014f69190620022b3565b60405180910390a160005b60058160ff1610156200156b57600160086000848460ff16600681106200152c576200152c62002357565b6020908102919091015160ff168252810191909152604001600020805460ff1916911515919091179055806200156281620024d6565b91505062001501565b506200157b6007826006620020a8565b506200158662001ffb565b600e80546affff00000000000000000019166a0100000000000000000000179055604051600181529091507f0e87928f64a1ef045acbd433780e69cb58318838fa89de5f49d0ccbebc2266f0906020015b60405180910390a1600191505090565b60065460609060ff9081169083161115620016485760405160e560020a62461bcd02815260206004820152601d60248201527f57726f6e6720636f6c6c65637469626c655f696420696e7365727465640000006044820152606401620006bf565b60ff8216600090815260056020526040902080546200166790620023af565b80601f01602080910402602001604051908101604052809291908181526020018280546200169590620023af565b8015620016e65780601f10620016ba57610100808354040283529160200191620016e6565b820191906000526020600020905b815481529060010190602001808311620016c857829003601f168201915b50505050509050919050565b600354600090600160a060020a031633036200065f57600e546b010000000000000000000000900460ff1615156001036200065f57600e546f01000000000000000000000000000000900460ff1615156001036200065f57600e546000906a0100000000000000000000900460ff1615620018aa5762001775600d60006200213d565b5060005b60058160ff161015620017e5576008600060078360ff1660068110620017a357620017a362002357565b60208082049092015460ff601f9092166101000a9004168252810191909152604001600020805460ff1916905580620017dc81620024d6565b91505062001779565b60006007555060005b600a5460ff821610156200185a5760096000600a8360ff168154811062001819576200181962002357565b6000918252602080832090910154600160a060020a031683528201929092526040019020805460ff19169055806200185181620024d6565b915050620017ee565b62001868600a600062002163565b600454604051600160a060020a0390911690303180156108fc02916000818181858888f19350505050158015620018a3573d6000803e3d6000fd5b50620019fa565b60018054600354600083815260056020526040517f356837fe0000000000000000000000000000000000000000000000000000000081529093600160a060020a039384169363356837fe9362001928939116917f1471eb6eb2c5e789fc3de43f8ce62938c7d1836ec861730447e2ada8fd81017b9160040162002492565b6020604051808303816000875af115801562001948573d6000803e3d6000fd5b505050506040513d601f19601f820116820180604052508101906200196e9190620024b6565b600b8054600181810190925560208082047f0175b7a638427703f0dbe7bb9bbf987a2551717b34e79f33b5b1008d1fa01db901805460ff958616601f9094166101000a93840295909302199092169390931790556000819052600c9091527fd421a5181c571bba3f01190c922c3b2a896fc1d84e86c9f17ac10e67ebef8b5c805460ff19169091179055505b600e80546bff0000000000000000000000196dffff00ff00ffffffffffffffffff1990911667ffffffffffffffff4316176801000000000000000017169055604051600181527fe3ee5c1e4b32c4126630276967b880e5c3b9a28873a027ad25c175fde6816a1990602001620015d7565b600354600090600160a060020a0316330362000bdc57600160a060020a03821660000362001adf5760405160e560020a62461bcd02815260206004820152601560248201527f496e76616c6964206164647265737320676976656e00000000000000000000006044820152606401620006bf565b5060048054600160a060020a038316600160a060020a0319909116179055600e80546fff00000000000000000000000000000019166f010000000000000000000000000000001790556001919050565b6000805b60058160ff16101562001bda57600062001b4f82600162002767565b90505b60058160ff16101562001bc457838160ff166006811062001b775762001b7762002357565b602002015160ff16848360ff166006811062001b975762001b9762002357565b602002015160ff160362001baf575060009392505050565b8062001bbb81620024d6565b91505062001b52565b508062001bd181620024d6565b91505062001b33565b50600192915050565b6000805b60058160ff16101562001c66576001838260ff166006811062001c0e5762001c0e62002357565b602002015160ff16108062001c4257506045838260ff166006811062001c385762001c3862002357565b602002015160ff16115b1562001c515750600092915050565b8062001c5d81620024d6565b91505062001be7565b506001826005602002015160ff16108062001c8b5750601a826005602002015160ff16115b1562001c9957506000919050565b506001919050565b600e5467ffffffffffffffff7f000000000000000000000000000000000000000000000000000000000000000081169162001cde9116436200278f565b1062001d3857600e805469ffff000000000000000019166901000000000000000000179055604051600181527fe411c435e9a63d07b976dbd9902808836d5bb60d1f58033508d4ce5bdde3f70e9060200160405180910390a15b565b60008060008060005b60058160ff16101562001dbb5760086000878360ff166006811062001d6c5762001d6c62002357565b6020908102919091015160ff9081168352908201929092526040016000205416151560010362001da6578262001da281620024d6565b9350505b8062001db281620024d6565b91505062001d43565b5060a085015160075460ff918216650100000000009091049091160362001dec578062001de881620024d6565b9150505b9094909350915050565b600080808060ff861660010362001e31578460ff1660000362001e1c5760089150600192505b8460ff1660050362001e315760019150600192505b8560ff1660000362001e67578460ff1660010362001e525760079150600192505b8460ff1660050362001e675760029150600192505b8262001e9f5762001e79858762002767565b905060ff81161562001e9a5762001e9281600862002389565b915062001e9f565b600091505b509150505b92915050565b62001eb462001ffb565b62001ebe62001ffb565b4460008080805b60068160ff16101562001fd457604080514360208201527f010000000000000000000000000000000000000000000000000000000000000060ff871602918101919091526041810186905260610160408051601f1981840301815282825280516020918201209083018190529450016040516020818303038152906040528051906020012091508060ff1660050362001f6d5762001f65601b83620027a9565b935062001f7d565b62001f7a604683620027a9565b93505b8360ff1660000362001f99578362001f9581620024d6565b9450505b83868260ff166006811062001fb25762001fb262002357565b60ff90921660209290920201528062001fcb81620024d6565b91505062001ec5565b509395945050505050565b611fdc80620027d083390190565b610c6280620047ac83390190565b6040518060c001604052806006906020820280368337509192915050565b8280546200202790620023af565b90600052602060002090601f0160209004810192826200204b576000855562002096565b82601f106200206657805160ff191683800117855562002096565b8280016001018555821562002096579182015b828111156200209657825182559160200191906001019062002079565b50620020a49291506200217e565b5090565b600183019183908215620020965791602002820160005b83821115620020ff57835183826101000a81548160ff021916908360ff1602179055509260200192600101602081600001049283019260010302620020bf565b80156200212e5782816101000a81549060ff0219169055600101602081600001049283019260010302620020ff565b5050620020a49291506200217e565b508054600082556002029060005260206000209081019062002160919062002195565b50565b50805460008255906000526020600020908101906200216091905b5b80821115620020a457600081556001016200217f565b80821115620020a4578054600160a060020a03191681556000600182015560020162002195565b60ff811681146200216057600080fd5b600060208284031215620021df57600080fd5b8135620021ec81620021bc565b9392505050565b60005b8381101562002210578181015183820152602001620021f6565b8381111562002220576000848401525b50505050565b6000815180845262002240816020860160208601620021f3565b601f01601f19169290920160200192915050565b600160a060020a038416815260606020820152600062002278606083018562002226565b905060ff83166040830152949350505050565b8060005b60068110156200222057815160ff168452602093840193909101906001016200228f565b60c0810162001ea482846200228b565b600160a060020a038316815260e08101620021ec60208301846200228b565b600060c08284031215620022f557600080fd5b8260c0830111156200230657600080fd5b50919050565b602081526000620021ec602083018462002226565b600160a060020a03811681146200216057600080fd5b6000602082840312156200234a57600080fd5b8135620021ec8162002321565b60e060020a634e487b7102600052603260045260246000fd5b60e060020a634e487b7102600052601160045260246000fd5b600060ff821660ff841680821015620023a657620023a662002370565b90039392505050565b600281046001821680620023c457607f821691505b602082108103620023065760e060020a634e487b7102600052602260045260246000fd5b8054600090600281046001808316806200240357607f831692505b60208084108203620024285760e060020a634e487b7102600052602260045260246000fd5b83885260208801828015620024465760018114620024585762002485565b60ff1987168252828201975062002485565b60008981526020902060005b878110156200247f5781548482015290860190840162002464565b83019850505b5050505050505092915050565b600160a060020a0384168152606060208201526000620022786060830185620023e8565b600060208284031215620024c957600080fd5b8151620021ec81620021bc565b600060ff821660ff8103620024ef57620024ef62002370565b60010192915050565b60e060020a634e487b7102600052604160045260246000fd5b600082601f8301126200252357600080fd5b815167ffffffffffffffff80821115620025415762002541620024f8565b604051601f8301601f19908116603f011681019082821181831017156200256c576200256c620024f8565b816040528381528660208588010111156200258657600080fd5b62002599846020830160208901620021f3565b9695505050505050565b600080600060608486031215620025b957600080fd5b8351620025c68162002321565b602085015190935067ffffffffffffffff811115620025e457600080fd5b620025f28682870162002511565b92505060408401516200260581620021bc565b809150509250925092565b6000602082840312156200262357600080fd5b8151620021ec8162002321565b6000602082840312156200264357600080fd5b815167ffffffffffffffff8111156200265b57600080fd5b620026698482850162002511565b949350505050565b600067ffffffffffffffff8381169083168181101562002695576200269562002370565b039392505050565b60c08101818360005b6006811015620026d6578135620026bd81620021bc565b60ff1683526020928301929190910190600101620026a6565b50505092915050565b600160a060020a03851681526101c08101620026ff60208301866200228b565b925460ff80821660e0840152610100808304821690840152620100008204811661012084015263010000008204811661014084015264010000000082048116610160840152650100000000009091048116610180830152919091166101a09091015292915050565b600060ff821660ff84168060ff0382111562002787576200278762002370565b019392505050565b600082821015620027a457620027a462002370565b500390565b600082620027ca5760e060020a634e487b7102600052601260045260246000fd5b50069056fe60806040523480156200001157600080fd5b506040518060400160405280600381526020017f4e465400000000000000000000000000000000000000000000000000000000008152506040518060400160405280600781526020017f5452595f4e465400000000000000000000000000000000000000000000000000815250620000aa6200009b620000de640100000000026401000000009004565b640100000000620000e2810204565b8151620000bf90600190602085019062000132565b508051620000d590600290602084019062000132565b5050506200022d565b3390565b60008054600160a060020a03838116600160a060020a0319831681178455604051919092169283917f8be0079c531659141344cd1fd0a4f28419497f9722a3daafe3b4186f6b6457e09190a35050565b8280546200014090620001d8565b90600052602060002090601f016020900481019282620001645760008555620001af565b82601f106200017f57805160ff1916838001178555620001af565b82800160010185558215620001af579182015b82811115620001af57825182559160200191906001019062000192565b50620001bd929150620001c1565b5090565b5b80821115620001bd5760008155600101620001c2565b600281046001821680620001ed57607f821691505b60208210810362000227577f4e487b7100000000000000000000000000000000000000000000000000000000600052602260045260246000fd5b50919050565b611d9f806200023d6000396000f3fe608060405234801561001057600080fd5b5060043610610149576000357c010000000000000000000000000000000000000000000000000000000090048063715018a6116100ca578063b88d4fde1161008e578063b88d4fde146102b4578063c87b56dd146102c7578063e985e9c5146102da578063ecd6935414610316578063f2fde38b1461033857600080fd5b8063715018a61461025d5780638d764859146102655780638da5cb5b1461028857806395d89b4114610299578063a22cb465146102a157600080fd5b8063356837fe11610111578063356837fe146101de5780634227e9891461020357806342842e0e146102165780636352211e1461022957806370a082311461023c57600080fd5b806301ffc9a71461014e57806306fdde0314610176578063081812fc1461018b578063095ea7b3146101b657806323b872dd146101cb575b600080fd5b61016161015c3660046116e1565b61034b565b60405190151581526020015b60405180910390f35b61017e6103e8565b60405161016d9190611756565b61019e610199366004611769565b61047a565b604051600160a060020a03909116815260200161016d565b6101c96101c436600461179e565b610528565b005b6101c96101d93660046117c8565b61065f565b6101f16101ec3660046118a4565b610693565b60405160ff909116815260200161016d565b6101c9610211366004611916565b6107fd565b6101c96102243660046117c8565b61080f565b61019e610237366004611769565b61082a565b61024f61024a366004611949565b6108b8565b60405190815260200161016d565b6101c9610955565b610278610273366004611964565b61098e565b60405161016d949392919061197f565b600054600160a060020a031661019e565b61017e610a63565b6101c96102af3660046119be565b610a72565b6101c96102c23660046119fa565b610a7d565b61017e6102d5366004611769565b610ab8565b6101616102e8366004611a76565b600160a060020a03918216600090815260066020908152604080832093909416825291909152205460ff1690565b610329610324366004611964565b610bb1565b60405161016d93929190611aa0565b6101c9610346366004611949565b610c81565b6000600160e060020a031982167f80ac58cd0000000000000000000000000000000000000000000000000000000014806103ae5750600160e060020a031982167f5b5e139f00000000000000000000000000000000000000000000000000000000145b806103e257507f01ffc9a700000000000000000000000000000000000000000000000000000000600160e060020a03198316145b92915050565b6060600180546103f790611ad5565b80601f016020809104026020016040519081016040528092919081815260200182805461042390611ad5565b80156104705780601f1061044557610100808354040283529160200191610470565b820191906000526020600020905b81548152906001019060200180831161045357829003601f168201915b5050505050905090565b600081815260036020526040812054600160a060020a031661050c5760405160e560020a62461bcd02815260206004820152602c60248201527f4552433732313a20617070726f76656420717565727920666f72206e6f6e657860448201527f697374656e7420746f6b656e000000000000000000000000000000000000000060648201526084015b60405180910390fd5b50600090815260056020526040902054600160a060020a031690565b60006105338261082a565b905080600160a060020a031683600160a060020a0316036105bf5760405160e560020a62461bcd02815260206004820152602160248201527f4552433732313a20617070726f76616c20746f2063757272656e74206f776e6560448201527f72000000000000000000000000000000000000000000000000000000000000006064820152608401610503565b33600160a060020a03821614806105db57506105db81336102e8565b6106505760405160e560020a62461bcd02815260206004820152603860248201527f4552433732313a20617070726f76652063616c6c6572206973206e6f74206f7760448201527f6e6572206e6f7220617070726f76656420666f7220616c6c00000000000000006064820152608401610503565b61065a8383610d39565b505050565b6106693382610db4565b6106885760405160e560020a62461bcd02815260040161050390611b12565b61065a838383610ebf565b60008054600160a060020a031633146106c15760405160e560020a62461bcd02815260040161050390611b6f565b6007546106d290859060ff1661109f565b60408051608081018252600160a060020a03808716825260075460ff90811660208085018281528587018a8152898516606088015260009384526008835296909220855181549351909416740100000000000000000000000000000000000000000274ffffffffffffffffffffffffffffffffffffffffff19909316939094169290921717825592518051929391926107719260018501920190611632565b50606091909101516002909101805460ff191660ff9283161790556007546040519116907f6469667cdac4cd397a04489a77d1cca2dc4372837749e590f8642e067a2ecd51906107c890879084908890889061197f565b60405180910390a16007546107e19060ff166001611bbd565b6007805460ff191660ff92909216919091179055949350505050565b61080b33838360ff16610ebf565b5050565b61065a83838360405180602001604052806000815250610a7d565b600081815260036020526040812054600160a060020a0316806103e25760405160e560020a62461bcd02815260206004820152602960248201527f4552433732313a206f776e657220717565727920666f72206e6f6e657869737460448201527f656e7420746f6b656e00000000000000000000000000000000000000000000006064820152608401610503565b6000600160a060020a0382166109395760405160e560020a62461bcd02815260206004820152602a60248201527f4552433732313a2062616c616e636520717565727920666f7220746865207a6560448201527f726f2061646472657373000000000000000000000000000000000000000000006064820152608401610503565b50600160a060020a031660009081526004602052604090205490565b600054600160a060020a031633146109825760405160e560020a62461bcd02815260040161050390611b6f565b61098c60006110b9565b565b60086020526000908152604090208054600182018054600160a060020a038316937401000000000000000000000000000000000000000090930460ff169291906109d790611ad5565b80601f0160208091040260200160405190810160405280929190818152602001828054610a0390611ad5565b8015610a505780601f10610a2557610100808354040283529160200191610a50565b820191906000526020600020905b815481529060010190602001808311610a3357829003601f168201915b5050506002909301549192505060ff1684565b6060600280546103f790611ad5565b61080b338383611116565b610a873383610db4565b610aa65760405160e560020a62461bcd02815260040161050390611b12565b610ab2848484846111e7565b50505050565b600081815260036020526040902054606090600160a060020a0316610b485760405160e560020a62461bcd02815260206004820152602f60248201527f4552433732314d657461646174613a2055524920717565727920666f72206e6f60448201527f6e6578697374656e7420746f6b656e00000000000000000000000000000000006064820152608401610503565b6000610b5f60408051602081019091526000815290565b90506000815111610b7f5760405180602001604052806000815250610baa565b80610b898461121d565b604051602001610b9a929190611be2565b6040516020818303038152906040525b9392505050565b60ff8082166000908152600860205260408120805460028201546001909201805493946060948694600160a060020a0390941693909116908290610bf490611ad5565b80601f0160208091040260200160405190810160405280929190818152602001828054610c2090611ad5565b8015610c6d5780601f10610c4257610100808354040283529160200191610c6d565b820191906000526020600020905b815481529060010190602001808311610c5057829003601f168201915b505050505091509250925092509193909250565b600054600160a060020a03163314610cae5760405160e560020a62461bcd02815260040161050390611b6f565b600160a060020a038116610d2d5760405160e560020a62461bcd02815260206004820152602660248201527f4f776e61626c653a206e6577206f776e657220697320746865207a65726f206160448201527f64647265737300000000000000000000000000000000000000000000000000006064820152608401610503565b610d36816110b9565b50565b6000818152600560205260409020805473ffffffffffffffffffffffffffffffffffffffff1916600160a060020a0384169081179091558190610d7b8261082a565b600160a060020a03167f8c5be1e5ebec7d5bd14f71427d1e84f3dd0314c0f7b2291e5b200ac8c7c3b92560405160405180910390a45050565b600081815260036020526040812054600160a060020a0316610e415760405160e560020a62461bcd02815260206004820152602c60248201527f4552433732313a206f70657261746f7220717565727920666f72206e6f6e657860448201527f697374656e7420746f6b656e00000000000000000000000000000000000000006064820152608401610503565b6000610e4c8361082a565b905080600160a060020a031684600160a060020a03161480610e935750600160a060020a0380821660009081526006602090815260408083209388168352929052205460ff165b80610eb7575083600160a060020a0316610eac8461047a565b600160a060020a0316145b949350505050565b82600160a060020a0316610ed28261082a565b600160a060020a031614610f515760405160e560020a62461bcd02815260206004820152602560248201527f4552433732313a207472616e736665722066726f6d20696e636f72726563742060448201527f6f776e65720000000000000000000000000000000000000000000000000000006064820152608401610503565b600160a060020a038216610fcf5760405160e560020a62461bcd028152602060048201526024808201527f4552433732313a207472616e7366657220746f20746865207a65726f2061646460448201527f72657373000000000000000000000000000000000000000000000000000000006064820152608401610503565b610fda600082610d39565b600160a060020a0383166000908152600460205260408120805460019290611003908490611c11565b9091555050600160a060020a0382166000908152600460205260408120805460019290611031908490611c28565b9091555050600081815260036020526040808220805473ffffffffffffffffffffffffffffffffffffffff1916600160a060020a0386811691821790925591518493918716917fddf252ad1be2c89b69c2b068fc378daa952ba7f163c4a11628f55a4df523b3ef91a4505050565b61080b828260405180602001604052806000815250611371565b60008054600160a060020a0383811673ffffffffffffffffffffffffffffffffffffffff19831681178455604051919092169283917f8be0079c531659141344cd1fd0a4f28419497f9722a3daafe3b4186f6b6457e09190a35050565b81600160a060020a031683600160a060020a03160361117a5760405160e560020a62461bcd02815260206004820152601960248201527f4552433732313a20617070726f766520746f2063616c6c6572000000000000006044820152606401610503565b600160a060020a03838116600081815260066020908152604080832094871680845294825291829020805460ff191686151590811790915591519182527f17307eab39ab6107e8899845ad3d59bd9653f200f220920489ca2b5937696c31910160405180910390a3505050565b6111f2848484610ebf565b6111fe848484846113a7565b610ab25760405160e560020a62461bcd02815260040161050390611c40565b60608160000361126057505060408051808201909152600181527f3000000000000000000000000000000000000000000000000000000000000000602082015290565b8160005b811561128a578061127481611c9d565b91506112839050600a83611ccf565b9150611264565b60008167ffffffffffffffff8111156112a5576112a5611804565b6040519080825280601f01601f1916602001820160405280156112cf576020820181803683370190505b5090505b8415610eb7576112e4600183611c11565b91506112f1600a86611ce3565b6112fc906030611c28565b7f01000000000000000000000000000000000000000000000000000000000000000281838151811061133057611330611cf7565b60200101907effffffffffffffffffffffffffffffffffffffffffffffffffffffffffffff1916908160001a90535061136a600a86611ccf565b94506112d3565b61137b83836114dd565b61138860008484846113a7565b61065a5760405160e560020a62461bcd02815260040161050390611c40565b6000600160a060020a0384163b156114d2576040517f150b7a02000000000000000000000000000000000000000000000000000000008152600160a060020a0385169063150b7a0290611404903390899088908890600401611d10565b6020604051808303816000875af192505050801561143f575060408051601f3d908101601f1916820190925261143c91810190611d4c565b60015b61149f573d80801561146d576040519150601f19603f3d011682016040523d82523d6000602084013e611472565b606091505b5080516000036114975760405160e560020a62461bcd02815260040161050390611c40565b805181602001fd5b600160e060020a0319167f150b7a0200000000000000000000000000000000000000000000000000000000149050610eb7565b506001949350505050565b600160a060020a0382166115365760405160e560020a62461bcd02815260206004820181905260248201527f4552433732313a206d696e7420746f20746865207a65726f20616464726573736044820152606401610503565b600081815260036020526040902054600160a060020a03161561159e5760405160e560020a62461bcd02815260206004820152601c60248201527f4552433732313a20746f6b656e20616c7265616479206d696e746564000000006044820152606401610503565b600160a060020a03821660009081526004602052604081208054600192906115c7908490611c28565b9091555050600081815260036020526040808220805473ffffffffffffffffffffffffffffffffffffffff1916600160a060020a03861690811790915590518392907fddf252ad1be2c89b69c2b068fc378daa952ba7f163c4a11628f55a4df523b3ef908290a45050565b82805461163e90611ad5565b90600052602060002090601f01602090048101928261166057600085556116a6565b82601f1061167957805160ff19168380011785556116a6565b828001600101855582156116a6579182015b828111156116a657825182559160200191906001019061168b565b506116b29291506116b6565b5090565b5b808211156116b257600081556001016116b7565b600160e060020a031981168114610d3657600080fd5b6000602082840312156116f357600080fd5b8135610baa816116cb565b60005b83811015611719578181015183820152602001611701565b83811115610ab25750506000910152565b600081518084526117428160208601602086016116fe565b601f01601f19169290920160200192915050565b602081526000610baa602083018461172a565b60006020828403121561177b57600080fd5b5035919050565b8035600160a060020a038116811461179957600080fd5b919050565b600080604083850312156117b157600080fd5b6117ba83611782565b946020939093013593505050565b6000806000606084860312156117dd57600080fd5b6117e684611782565b92506117f460208501611782565b9150604084013590509250925092565b60e060020a634e487b7102600052604160045260246000fd5b600067ffffffffffffffff8084111561183857611838611804565b604051601f8501601f19908116603f0116810190828211818310171561186057611860611804565b8160405280935085815286868601111561187957600080fd5b858560208301376000602087830101525050509392505050565b803560ff8116811461179957600080fd5b6000806000606084860312156118b957600080fd5b6118c284611782565b9250602084013567ffffffffffffffff8111156118de57600080fd5b8401601f810186136118ef57600080fd5b6118fe8682356020840161181d565b92505061190d60408501611893565b90509250925092565b6000806040838503121561192957600080fd5b61193283611782565b915061194060208401611893565b90509250929050565b60006020828403121561195b57600080fd5b610baa82611782565b60006020828403121561197657600080fd5b610baa82611893565b600160a060020a038516815260ff841660208201526080604082015260006119aa608083018561172a565b905060ff8316606083015295945050505050565b600080604083850312156119d157600080fd5b6119da83611782565b9150602083013580151581146119ef57600080fd5b809150509250929050565b60008060008060808587031215611a1057600080fd5b611a1985611782565b9350611a2760208601611782565b925060408501359150606085013567ffffffffffffffff811115611a4a57600080fd5b8501601f81018713611a5b57600080fd5b611a6a8782356020840161181d565b91505092959194509250565b60008060408385031215611a8957600080fd5b611a9283611782565b915061194060208401611782565b600160a060020a0384168152606060208201526000611ac2606083018561172a565b905060ff83166040830152949350505050565b600281046001821680611ae957607f821691505b602082108103611b0c5760e060020a634e487b7102600052602260045260246000fd5b50919050565b60208082526031908201527f4552433732313a207472616e736665722063616c6c6572206973206e6f74206f60408201527f776e6572206e6f7220617070726f766564000000000000000000000000000000606082015260800190565b6020808252818101527f4f776e61626c653a2063616c6c6572206973206e6f7420746865206f776e6572604082015260600190565b60e060020a634e487b7102600052601160045260246000fd5b600060ff821660ff84168060ff03821115611bda57611bda611ba4565b019392505050565b60008351611bf48184602088016116fe565b835190830190611c088183602088016116fe565b01949350505050565b600082821015611c2357611c23611ba4565b500390565b60008219821115611c3b57611c3b611ba4565b500190565b60208082526032908201527f4552433732313a207472616e7366657220746f206e6f6e20455243373231526560408201527f63656976657220696d706c656d656e7465720000000000000000000000000000606082015260800190565b600060018201611caf57611caf611ba4565b5060010190565b60e060020a634e487b7102600052601260045260246000fd5b600082611cde57611cde611cb6565b500490565b600082611cf257611cf2611cb6565b500690565b60e060020a634e487b7102600052603260045260246000fd5b6000600160a060020a03808716835280861660208401525083604083015260806060830152611d42608083018461172a565b9695505050505050565b600060208284031215611d5e57600080fd5b8151610baa816116cb56fea26469706673582212203b39eca73dce06456a48c7534a79d34e2392a0edc69faf4515cde61ec4776c6f64736f6c634300080e003360c0604052670de0b6b3a7640000608052600860a05234801561002157600080fd5b5060408051808201909152600d81527f48656c6c6f5f4b697474795f3000000000000000000000000000000000000000602080830191825260008080529052905161008d917fad3228b676f7d3cd4284a5443f17f1962b36e491b30a40b2405849e597ba5fb591610403565b5060408051808201909152600d81527f48656c6c6f5f4b697474795f3100000000000000000000000000000000000000602080830191825260016000908152905290516100fb917fada5013122d395ba3c54772283fb069b10426056ef8ca54750cb9bb552a59e7d91610403565b5060408051808201909152600d81527f48656c6c6f5f4b697474795f320000000000000000000000000000000000000060208083019182526002600090815290529051610169917fabbb5caa7dda850e60932de0934eb1f9d0f59695050f761dc64e443e5030a56991610403565b5060408051808201909152600d81527f48656c6c6f5f4b697474795f3300000000000000000000000000000000000000602080830191825260036000908152905290516101d7917f101e368776582e57ab3d116ffe2517c0a585cd5b23174b01e275c2d8329c3d8391610403565b5060408051808201909152600d81527f48656c6c6f5f4b697474795f340000000000000000000000000000000000000060208083019182526004600090815290529051610245917f52d75039926638d3c558b2bdefb945d5be8dae29dedd1c313212a4d472d9fde591610403565b5060408051808201909152600d81527f48656c6c6f5f4b697474795f3500000000000000000000000000000000000000602080830191825260056000908152905290516102b3917f2b232c97452f0950c94e2539fdc7e69d21166113cf7a9bcb99b220a3fe5d720a91610403565b5060408051808201909152600d81527f48656c6c6f5f4b697474795f360000000000000000000000000000000000000060208083019182526006600090815290529051610321917f62103cf3131c85df57aad364d21cba02556d3092d6cb54c298c2e7726a7870bd91610403565b5060408051808201909152600d81527f48656c6c6f5f4b697474795f37000000000000000000000000000000000000006020808301918252600760009081529052905161038f917f870253054e3d98b71abec8fff9ebf8a15d167f15909091a800d4acaab9266d2b91610403565b5060408051808201909152600d81527f48656c6c6f5f4b697474795f3800000000000000000000000000000000000000602080830191825260086000908152905290516103fd917f5b8b9143058ba3a137192c563ca6541845e62f0a2f9a667aac4db2fa3c334e3c91610403565b506104ef565b82805461040f9061049c565b90600052602060002090601f0160209004810192826104315760008555610477565b82601f1061044a57805160ff1916838001178555610477565b82800160010185558215610477579182015b8281111561047757825182559160200191906001019061045c565b50610483929150610487565b5090565b5b808211156104835760008155600101610488565b6002810460018216806104b057607f821691505b6020821081036104e9577f4e487b7100000000000000000000000000000000000000000000000000000000600052602260045260246000fd5b50919050565b60805160a05161073162000531600039600081816101470152610256015260008181610105015281816102eb0152818161040b015261043601526107316000f3fe608060405260043610610071577c010000000000000000000000000000000000000000000000000000000060003504630131222f811461007657806313fd311b1461009657806352801f97146100c35780635e96430c146100f35780638e621c0e14610135578063fdd695f31461017b575b600080fd5b34801561008257600080fd5b506040513081526020015b60405180910390f35b3480156100a257600080fd5b506100b66100b13660046105a3565b61018e565b60405161008d91906105cd565b3480156100cf57600080fd5b506100e36100de366004610622565b610228565b604051901515815260200161008d565b3480156100ff57600080fd5b506101277f000000000000000000000000000000000000000000000000000000000000000081565b60405190815260200161008d565b34801561014157600080fd5b506101697f000000000000000000000000000000000000000000000000000000000000000081565b60405160ff909116815260200161008d565b6100b66101893660046105a3565b610252565b600060208190529081526040902080546101a79061063b565b80601f01602080910402602001604051908101604052809291908181526020018280546101d39061063b565b80156102205780601f106101f557610100808354040283529160200191610220565b820191906000526020600020905b81548152906001019060200180831161020357829003601f168201915b505050505081565b6001816009811061023857600080fd5b60209182820401919006915054906101000a900460ff1681565b60607f000000000000000000000000000000000000000000000000000000000000000060ff168260ff1611156102e9576040517f08c379a000000000000000000000000000000000000000000000000000000000815260206004820152601460248201527f57726f6e6720436f6c6c65637469626c655f494400000000000000000000000060448201526064015b60405180910390fd5b7f0000000000000000000000000000000000000000000000000000000000000000341015610373576040517f08c379a000000000000000000000000000000000000000000000000000000000815260206004820152600f60248201527f56616c756520746f6f20736d616c6c000000000000000000000000000000000060448201526064016102e0565b60018260ff16600981106103895761038961068e565b602081049091015460ff601f9092166101000a90041615610406576040517f08c379a000000000000000000000000000000000000000000000000000000000815260206004820152601860248201527f436f6c6c65637469626c6520616c726561647920736f6c64000000000000000060448201526064016102e0565b3460007f000000000000000000000000000000000000000000000000000000000000000082111561048d5761045b7f0000000000000000000000000000000000000000000000000000000000000000836106bd565b604051909150339082156108fc029083906000818181858888f1935050505015801561048b573d6000803e3d6000fd5b505b60405160ff851681527fe160d4cad63836d753e897f60292d5c77089a275ac297cd64bd763c15fbd23499060200160405180910390a16001808560ff16600981106104da576104da61068e565b602091828204019190066101000a81548160ff0219169083151502179055506000808560ff1660ff168152602001908152602001600020805461051c9061063b565b80601f01602080910402602001604051908101604052809291908181526020018280546105489061063b565b80156105955780601f1061056a57610100808354040283529160200191610595565b820191906000526020600020905b81548152906001019060200180831161057857829003601f168201915b505050505092505050919050565b6000602082840312156105b557600080fd5b813560ff811681146105c657600080fd5b9392505050565b600060208083528351808285015260005b818110156105fa578581018301518582016040015282016105de565b8181111561060c576000604083870101525b50601f01601f1916929092016040019392505050565b60006020828403121561063457600080fd5b5035919050565b60028104600182168061064f57607f821691505b602082108103610688577f4e487b7100000000000000000000000000000000000000000000000000000000600052602260045260246000fd5b50919050565b7f4e487b7100000000000000000000000000000000000000000000000000000000600052603260045260246000fd5b6000828210156106f6577f4e487b7100000000000000000000000000000000000000000000000000000000600052601160045260246000fd5b50039056fea264697066735822122006e1b06cadf9fcea0e26dd10540fd429049b30be3be7027cd104d56b5aa738fb64736f6c634300080e0033a2646970667358221220deddd79524177ed4fecaa627dd4491acee3a0ed777851132944622f22f43657364736f6c634300080e0033",
  "immutableReferences": {
    "220": [
      {
        "length": 32,
        "start": 838
      },
      {
        "length": 32,
        "start": 3578
      },
      {
        "length": 32,
        "start": 3934
      },
      {
        "length": 32,
        "start": 4000
      },
      {
        "length": 32,
        "start": 4962
      }
    ],
    "225": [
      {
        "length": 32,
        "start": 7343
      }
    ],
    "252": [
      {
        "length": 32,
        "start": 2675
      }
    ]
  },
  "source": "// SPDX-License-Identifier: GPL-3.0\r\n\r\npragma solidity >=0.8.0 <0.9.0;\r\nimport \"./Collectibles.sol\";\r\nimport \"./newNFT.sol\";\r\ncontract Lottery{\r\n\r\n    Collectibles CL;\r\n    newNFT newnft;\r\n    address private CL_address; //address of the Collectibles deployed contract\r\n\r\n    address private operator;\r\n    address public balance_receiver;\r\n    mapping(uint8=>string) private collectibles_bought; // id_collectible => collectible description\r\n    uint8 private number_of_collectibles_bought;\r\n    uint8 [6] private drawn_numbers; \r\n    mapping (uint8 => bool) private drawn_numbers_mapping; // drawn_number => true\r\n    mapping (address => uint8) private reward_list; //address winner => class of the reward nft\r\n    address[] private winners;\r\n    \r\n\r\n    uint8[] private NFT_minted; //take track of nft minted by this\r\n\r\n    mapping (uint8 => bool) private free_NFT; // nft_class => bool saying if the NFT minted intially, with that class, is already assigned (value false) or not (value true)\r\n\r\n    struct Ticket{ \r\n        address owner;\r\n        uint8 [6] chosen_numbers;\r\n    }\r\n\r\n    Ticket[] private tickets_sold;\r\n\r\n    uint64 private immutable price_tricket = 1000000000000000000;\r\n    uint64 private block_number_init; //\r\n    uint64 private immutable M = 5;\r\n\r\n    bool private buy_phase=false;\r\n    bool private extraction_phase=false; \r\n    bool private reward_phase=false; \r\n    bool private round_finished=true; //start initially as true, so a new round can start\r\n    bool private prizes_computed=false;\r\n    bool private prizes_given=false;\r\n    bool private lottery_open=true; //set to true since it's used to distinghuish if the lottery has been closed or not.\r\n    bool private balance_receiver_set = false;\r\n\r\n    uint8 private immutable collectibles_number = 8;\r\n\r\n\r\n    constructor () {\r\n        //init the lottery operator\r\n        operator = msg.sender;\r\n    }\r\n\r\n    //EVENTS\r\n\r\n    event bal_initialized(bool res);\r\n    event start_new_round(bool buy_phase);\r\n    event start_extraction_phase(bool extraction_phase);\r\n    event start_reward_phase(bool reward_phase);\r\n\r\n    event ticket_bought(uint8 [6] ticket_bought);\r\n    event values_drawn(uint8[6] values_drawn);\r\n    \r\n    event prize_assigned(address winner, uint8[6] value_provided_user, uint8[6] draw_numbers, uint8 class_prize); \r\n    //address of the winner, values provided by the winner, drawn numbers, class of the prize\r\n\r\n\r\n    event lottery_closed(bool lottery_closed);\r\n    \r\n\r\n    //MODIFIERS\r\n\r\n    modifier onlyOperator { //verify that only the lottery operator can execute a function\r\n        if (msg.sender == operator) _;\r\n    }\r\n\r\n    modifier buyPhaseActive { //verify that the buy phase is start, so now the users can buy tickets\r\n        if(buy_phase==true) _;\r\n    }\r\n\r\n    modifier  extractionPhaseActive { //verify that the buy phase is closed, so now the operator can extract the random numbers\r\n        if(extraction_phase == true ) _;\r\n    }\r\n\r\n    modifier rewardPhaseActive{ //verify that the random numbers are extracted, so now the operator can assign and compute the prizes\r\n        if(reward_phase==true)\r\n            _;\r\n    }\r\n\r\n    modifier roundIsFinished{ //verify that a round is finished, so now the oprator can start a new round\r\n        if(round_finished==true)\r\n            _;\r\n    }\r\n\r\n    modifier prizesAlreadyComputed{ //verify that the prizes are computed, so now the operator can give them to the winner users\r\n        if(prizes_computed==true)\r\n            _;\r\n    }\r\n\r\n    modifier lotteryOpen{ //verify that the lottery is open. Once the close_lottery() fun is invoked the value of lottery_open is set to false, so the function can't be invoked anymore.\r\n        if(lottery_open==true)\r\n            _;\r\n    }\r\n\r\n    modifier prizesNotGivenYet{ //verify that the prizes are not given yet to the winners. Once the give_prizes() fun is invoked, prizes_given is set to false, so the function can't be invoked anymore.\r\n        if(prizes_given==false)\r\n        _;\r\n    }\r\n\r\n    modifier balanceReceiverAlreadySet{ //verify that the account that takes the ether at end round is set. If it is not set, the function startNewRound() can't be invoked.\r\n        if(balance_receiver_set==true)\r\n        _;\r\n    }\r\n\r\n    //GETTER FUNCTIONS\r\n\r\n\r\n    //returns the block.number registered at the start round time\r\n    function get_block_initRound() view public returns (uint){\r\n        return block_number_init;\r\n    }\r\n\r\n\r\n    //receive the NFT_id and retrieve the NFT informations (owner, description, class) \r\n    function get_NFT_information(uint8 id) view public returns(address, string memory, uint8){\r\n        require(id < NFT_minted.length, \"Wrong ticket_id inserted\");\r\n        return newnft.get_NFT_informations(id);\r\n    }\r\n\r\n    //receive the ticket_id and retrieve the ticket informations (owner, submitted values)\r\n    function get_ticket_information(uint8 id) view public returns(address, uint8 [6] memory){\r\n        require(id < tickets_sold.length, \"Wrong ticket_id inserted\");\r\n        return (tickets_sold[id].owner, tickets_sold[id].chosen_numbers);\r\n    }\r\n\r\n    function get_drawn_numbers() view public returns (uint8 [6] memory){\r\n        return drawn_numbers;\r\n    }\r\n\r\n    function get_collectibles_information(uint8 id) view public returns (string memory){\r\n        require(id <= number_of_collectibles_bought, \"Wrong collectible_id inserted\");\r\n        return collectibles_bought[id];\r\n    }\r\n\r\n    function get_operator() view public returns (address){\r\n        return operator;\r\n    }\r\n\r\n    function get_ticket_price() pure public returns (uint){\r\n        return price_tricket;\r\n    }\r\n\r\n    //BUSINESS LOGIC FUNCTIONS\r\n\r\n    function init_side_contracts() external returns (bool res){\r\n        newnft = new newNFT();\r\n\r\n        CL = new Collectibles(); \r\n        CL_address = CL.get_address();\r\n        res = true;\r\n        emit bal_initialized(true);\r\n        return res;\r\n    }\r\n\r\n\r\n\r\n    function set_balance_receiver(address receiver) onlyOperator external returns (bool res){\r\n        require(address(0x0)!= receiver, \"Invalid address given\");\r\n        balance_receiver=receiver;\r\n        balance_receiver_set=true;\r\n        res = true;\r\n        return res;\r\n    }\r\n\r\n    //operator can close the lottery in any moment\r\n    function close_lottery() onlyOperator lotteryOpen external returns (bool res){\r\n        //first disable all the other function calls\r\n        lottery_open=false; //no way to sei it false again => no way of getting reentrancy\r\n        buy_phase = false;\r\n        extraction_phase=false;\r\n        reward_phase=false;\r\n        round_finished=false;\r\n\r\n        for(uint8 i=0;i<tickets_sold.length;i++)\r\n            payable(tickets_sold[i].owner).transfer(price_tricket);    \r\n\r\n        emit lottery_closed (true); \r\n        res = true;\r\n        return res; \r\n    }\r\n\r\n\r\n    //buy collectibles through the Collectibles object\r\n    function buy_collectibles(uint8 id_collectible) onlyOperator payable external returns(bool res){\r\n        require(id_collectible <= collectibles_number, \"Too high Collectible_id inserted\");\r\n        collectibles_bought[id_collectible] = string(Collectibles(CL_address).buy_collectible{value:msg.value}(id_collectible));\r\n        number_of_collectibles_bought++;\r\n        res = true;\r\n        return res;\r\n    }\r\n\r\n    //verify the correctness of the numbers provided by the users\r\n    //invoked by buy_ticket()\r\n    function check_given_numbers(uint8 [6] memory given_numbers) pure private returns (bool){\r\n\r\n        for(uint8 i=0; i<5; i++){\r\n            if(given_numbers[i] < 1 || given_numbers[i] > 69)\r\n                return false;\r\n        }\r\n        if(given_numbers[5] < 1 || given_numbers[5] > 26)\r\n            return false;\r\n        \r\n        return true;\r\n    }\r\n\r\n    //verify the correctness of the numbers provided by the users\r\n    //invoked by buy_ticket()\r\n    function check_duplicate(uint8 [6] memory input) private pure returns(bool){\r\n        for(uint8 i=0; i<5;i++){\r\n            for(uint8 j=i+1; j<5;j++){\r\n                if(input[i]==input[j])\r\n                    return false;\r\n            }\r\n        }\r\n        return true;\r\n    }\r\n\r\n\r\n\r\n    function buy_ticket(uint8 [6] calldata  chosen_numbers) payable external returns (bool){\r\n\r\n        uint64 money=uint64(msg.value);\r\n        address owner = msg.sender;\r\n        //checks for input data\r\n        require(buy_phase,\"Purchase phase concluded\");\r\n        require(msg.sender != balance_receiver, \"The balance Receiver can't be a player\");\r\n        require(chosen_numbers.length == 6, \"You have to choose 6 numbers\");\r\n        require(check_duplicate(chosen_numbers), \"You can't insert duplicate values in the standard numbers\");\r\n        \r\n        require(check_given_numbers(chosen_numbers), \"Wrong values inserted\");\r\n        \r\n        require(money>=price_tricket, \"You have not enough ether\");\r\n\r\n        Ticket memory  ticket =  Ticket(owner, chosen_numbers);\r\n        tickets_sold.push(ticket);\r\n\r\n        if(money >= price_tricket) {\r\n            uint64 change = uint64(money) - price_tricket;\r\n            // send the change\r\n            payable(owner).transfer(change);\r\n        }\r\n\r\n        emit ticket_bought(chosen_numbers);\r\n\r\n        check_round_is_active();\r\n        \r\n        return true;\r\n    }\r\n\r\n    //after each ticket bought, verify if the number of blocks M is reached or not\r\n    //invoked by buy_ticket()\r\n    function check_round_is_active() private {\r\n        if( (block.number - block_number_init)>= M){ //round concluded\r\n            buy_phase=false;\r\n            extraction_phase=true; \r\n            emit start_extraction_phase(true);\r\n        }   \r\n    }\r\n\r\n    //extract the numbers randomly, done outside of the blockchain\r\n    //invoked by draw_numbers() \r\n    function draw_numbers_compute() private view returns (uint8 [6] memory ){ //returns the extracted value\r\n\r\n        uint8 [6] memory  numbers;\r\n        uint seed =block.difficulty;\r\n        uint8 extracted_value;\r\n        bytes32 bhash;\r\n        bytes32 rand;\r\n\r\n\r\n        for(uint8 i=0;i<6;i++){\r\n            \r\n            bhash = (keccak256(abi.encodePacked(block.number,extracted_value,seed)));\r\n            \r\n            rand = keccak256(abi.encodePacked(bhash));\r\n\r\n            if(i==5)\r\n                extracted_value=uint8(uint(rand) % 27); \r\n            else\r\n                extracted_value=uint8(uint(rand) % 70);                \r\n            \r\n            if(extracted_value==0) //since value range start from 1\r\n                extracted_value++; \r\n            \r\n            numbers[i]=extracted_value; \r\n        }\r\n            \r\n        bhash=0;\r\n        rand=0;\r\n            \r\n        return (numbers);\r\n    }\r\n\r\n\r\n    function draw_numbers() onlyOperator extractionPhaseActive external returns(bool res) {\r\n\r\n        uint8 [6] memory  computed_values; //mi permette di non accedere allo storage nel for\r\n        computed_values = draw_numbers_compute();\r\n\r\n        require(check_duplicate(computed_values), \"Duplicate values in drawn numbers\");\r\n\r\n        emit values_drawn (computed_values);\r\n\r\n        //aggiorno il mapping\r\n        for(uint8 i =0; i<5;i++)\r\n            drawn_numbers_mapping[computed_values[i]]=true;\r\n\r\n        //scrivo su storage i valori estratti\r\n        drawn_numbers = computed_values;\r\n\r\n        //cancello variabile locale\r\n        delete computed_values;\r\n\r\n        extraction_phase=false;\r\n        reward_phase=true;\r\n        emit start_reward_phase(true);\r\n        res = true;\r\n        return res;\r\n    }\r\n\r\n    //compute, for each ticket bought, the number of matches obtained\r\n    //invoked by compute_prizes()\r\n    function compute_matches(uint8[6] memory num_picked_usr ) view private returns (uint8 , uint8 ){\r\n        //input= array numeri scelti da utente\r\n        uint8 normal_matches;\r\n        uint8 powerball_match;\r\n        for(uint8 i=0; i<5;i++){ //for each value submitted by user\r\n            if(drawn_numbers_mapping[num_picked_usr[i]]==true)\r\n                normal_matches++;\r\n        }\r\n\r\n        if(drawn_numbers[5]==num_picked_usr[5])\r\n            powerball_match++;\r\n\r\n        return (normal_matches, powerball_match);\r\n    }\r\n\r\n    \r\n    //compare the drawn_numbers with the values provided by the users in the tickets and elect the winners \r\n    function compute_prizes() rewardPhaseActive onlyOperator external returns (bool res){\r\n\r\n        uint8 powerball_match; //counter\r\n        uint8 normal_matches; //counter\r\n        uint8 class_value;\r\n        uint8 i;\r\n\r\n        uint8 [6] memory num_picked_usr;\r\n\r\n        for( i=0; i<tickets_sold.length;i++){ //for each ticket\r\n            num_picked_usr = tickets_sold[i].chosen_numbers; //take values submitted\r\n            \r\n            (normal_matches, powerball_match) = compute_matches(num_picked_usr);\r\n\r\n            class_value=compute_class_value_prize(powerball_match, normal_matches);\r\n            //modifica\r\n            if(class_value>0){\r\n                reward_list[tickets_sold[i].owner] = class_value;\r\n                winners.push(tickets_sold[i].owner);\r\n                emit prize_assigned(tickets_sold[i].owner, num_picked_usr, drawn_numbers, class_value);\r\n            }\r\n            \r\n        }\r\n\r\n        prizes_computed=true;\r\n        res = true;\r\n        return res;\r\n    }\r\n\r\n    //compute, for each ticket bought, the class of the NFT given as reward based on the number of matches\r\n    function compute_class_value_prize(uint8 powerball_match, uint8 normal_matches) pure private returns (uint8){\r\n        bool done=false;\r\n        uint8 class_value=0;\r\n        uint8 sum_values;\r\n        //classes 1,2,7,8 handled handmade\r\n        if(powerball_match==1){\r\n            if(normal_matches==0){\r\n                class_value=8;\r\n                done=true;\r\n            }\r\n            if(normal_matches==5){\r\n                class_value=1;\r\n                done=true;\r\n            }\r\n        }\r\n\r\n        if(powerball_match==0){\r\n            if(normal_matches==1){\r\n                class_value=7;\r\n                done=true;\r\n            }\r\n            if(normal_matches==5){\r\n                class_value=2;\r\n                done=true;\r\n            }\r\n        }\r\n\r\n        //classes 3,4,5,6 computed algorithmically\r\n        if(!done){\r\n            sum_values = powerball_match+normal_matches;\r\n            if(sum_values>0)\r\n                class_value= 8 - sum_values;\r\n            else\r\n                class_value=0;\r\n        }\r\n\r\n        return class_value;\r\n    }\r\n\r\n    //assign the NFTs to the winners: if a NFT is avaible it just transfer it to the winner, else it mints a new NFT  \r\n    function give_prizes() onlyOperator rewardPhaseActive prizesAlreadyComputed prizesNotGivenYet external returns (bool res){\r\n        uint8 i;\r\n        uint8 NFT_class;\r\n        for(i=0;i<winners.length;i++){\r\n            NFT_class = reward_list[winners[i]]; // take the class of the nft to give as reward\r\n            if(free_NFT[NFT_class]==true){ //if among the first 2 nfts minted there's the one with that class free, transfer it to the winner\r\n                newnft.give_to_winner(winners[i],NFT_class-1); //class-1 perche i primi 8 nft, memorizzati in indici [0,7] corrispondo alle 8 classi\r\n                free_NFT[NFT_class]=false; //set it to false\r\n            }\r\n            else\r\n                newnft.mintToken(winners[i], collectibles_bought[NFT_class], NFT_class);\r\n        }\r\n        prizes_given=true;\r\n        round_finished=true; //allow start_New_Round() to be invoked\r\n        res = true;\r\n        return res;\r\n    }\r\n\r\n\r\n    function mint(uint8 NFT_class, address owner) private returns (bool) {\r\n\r\n        uint8 tokenId = newnft.mintToken(owner, collectibles_bought[NFT_class], NFT_class);\r\n\r\n        NFT_minted.push(tokenId);\r\n\r\n        return true;\r\n    }\r\n\r\n\r\n\r\n\r\n\r\n    function start_New_Round() onlyOperator roundIsFinished balanceReceiverAlreadySet external returns (bool res) { //non deve avere modifier rewardPhase perche viene invocato anche nel construttore \r\n        \r\n        uint8 i;\r\n        if(reward_phase){ //IF A LOTTERY'S ENDING => CLEAN ALL DATA STRUCTURE AND RESTART\r\n\r\n            delete tickets_sold;\r\n\r\n            for( i=0; i<5;i++)\r\n                delete drawn_numbers_mapping[drawn_numbers[i]];\r\n            \r\n            delete drawn_numbers;\r\n\r\n            for(i=0; i<winners.length;i++)\r\n                delete reward_list[winners[i]];\r\n            \r\n            delete winners;\r\n\r\n            payable(balance_receiver).transfer(address(this).balance);\r\n            \r\n        }\r\n        else{\r\n            uint8 tokenId = newnft.mintToken(operator, collectibles_bought[1], 1); //initially just mints 1 NFT1 with class == 1\r\n            NFT_minted.push(tokenId);\r\n            free_NFT[1]=true;\r\n        }\r\n        \r\n            \r\n        block_number_init = uint64(block.number); //SET THE NEW INITIAL BLOCK NUMBER\r\n        prizes_computed=false;\r\n        prizes_given=false;\r\n        reward_phase=false;\r\n        buy_phase=true;\r\n        round_finished=false;\r\n        emit start_new_round(true);\r\n        res = true;\r\n        return res;\r\n    }\r\n\r\n\r\n\r\n\r\n}",
  "sourcePath": "/home/matteo/P2P/contracts/Lottery.sol",
  "compiler": {
    "name": "solc",
    "version": "0.8.14+commit.80d49f37.Emscripten.clang"
  },
  "schemaVersion": "3.4.7",
  "updatedAt": "2022-06-15T17:15:35.191Z",
  "devdoc": {
    "kind": "dev",
    "methods": {},
    "version": 1
  },
  "userdoc": {
    "kind": "user",
    "methods": {},
    "version": 1
  }
}