{
  "contractName": "Lottery",
  "abi": [
    {
      "inputs": [],
      "stateMutability": "nonpayable",
      "type": "constructor"
    },
    {
      "anonymous": false,
      "inputs": [
        {
          "indexed": false,
          "internalType": "address",
          "name": "owner",
          "type": "address"
        },
        {
          "indexed": false,
          "internalType": "string",
          "name": "description",
          "type": "string"
        },
        {
          "indexed": false,
          "internalType": "uint8",
          "name": "NFT_class",
          "type": "uint8"
        },
        {
          "indexed": false,
          "internalType": "uint8",
          "name": "id",
          "type": "uint8"
        }
      ],
      "name": "NFT_minted_now",
      "type": "event"
    },
    {
      "anonymous": false,
      "inputs": [
        {
          "indexed": false,
          "internalType": "address",
          "name": "owner",
          "type": "address"
        },
        {
          "indexed": false,
          "internalType": "string",
          "name": "description",
          "type": "string"
        },
        {
          "indexed": false,
          "internalType": "uint8",
          "name": "NFT_class",
          "type": "uint8"
        },
        {
          "indexed": false,
          "internalType": "uint8",
          "name": "id",
          "type": "uint8"
        }
      ],
      "name": "NFT_transfered",
      "type": "event"
    },
    {
      "anonymous": false,
      "inputs": [
        {
          "indexed": false,
          "internalType": "address",
          "name": "receiver",
          "type": "address"
        }
      ],
      "name": "bal_initialized",
      "type": "event"
    },
    {
      "anonymous": false,
      "inputs": [
        {
          "indexed": false,
          "internalType": "uint8",
          "name": "id",
          "type": "uint8"
        },
        {
          "indexed": false,
          "internalType": "string",
          "name": "description",
          "type": "string"
        }
      ],
      "name": "collectible_bought",
      "type": "event"
    },
    {
      "anonymous": false,
      "inputs": [
        {
          "indexed": false,
          "internalType": "bool",
          "name": "lottery_closed",
          "type": "bool"
        }
      ],
      "name": "lottery_closed",
      "type": "event"
    },
    {
      "anonymous": false,
      "inputs": [
        {
          "indexed": false,
          "internalType": "bool",
          "name": "lottery_closed",
          "type": "bool"
        }
      ],
      "name": "lottery_created",
      "type": "event"
    },
    {
      "anonymous": false,
      "inputs": [
        {
          "indexed": false,
          "internalType": "string",
          "name": "phase_name",
          "type": "string"
        }
      ],
      "name": "phase_change",
      "type": "event"
    },
    {
      "anonymous": false,
      "inputs": [
        {
          "indexed": false,
          "internalType": "address",
          "name": "winner",
          "type": "address"
        },
        {
          "indexed": false,
          "internalType": "uint8[6]",
          "name": "value_provided_user",
          "type": "uint8[6]"
        },
        {
          "indexed": false,
          "internalType": "uint8[6]",
          "name": "draw_numbers",
          "type": "uint8[6]"
        },
        {
          "indexed": false,
          "internalType": "uint8",
          "name": "class_prize",
          "type": "uint8"
        }
      ],
      "name": "prize_assigned",
      "type": "event"
    },
    {
      "anonymous": false,
      "inputs": [
        {
          "indexed": false,
          "internalType": "address",
          "name": "owner",
          "type": "address"
        },
        {
          "indexed": false,
          "internalType": "uint8[6]",
          "name": "return_chosen_numbers",
          "type": "uint8[6]"
        }
      ],
      "name": "ticket_bought",
      "type": "event"
    },
    {
      "anonymous": false,
      "inputs": [
        {
          "indexed": false,
          "internalType": "uint8[6]",
          "name": "values_drawn",
          "type": "uint8[6]"
        }
      ],
      "name": "values_drawn",
      "type": "event"
    },
    {
      "inputs": [],
      "name": "balance_receiver",
      "outputs": [
        {
          "internalType": "address",
          "name": "",
          "type": "address"
        }
      ],
      "stateMutability": "view",
      "type": "function",
      "constant": true
    },
    {
      "inputs": [],
      "name": "contatore",
      "outputs": [
        {
          "internalType": "uint8",
          "name": "",
          "type": "uint8"
        }
      ],
      "stateMutability": "view",
      "type": "function",
      "constant": true
    },
    {
      "inputs": [
        {
          "internalType": "uint256",
          "name": "",
          "type": "uint256"
        }
      ],
      "name": "drawn_numbers",
      "outputs": [
        {
          "internalType": "uint8",
          "name": "",
          "type": "uint8"
        }
      ],
      "stateMutability": "view",
      "type": "function",
      "constant": true
    },
    {
      "inputs": [],
      "name": "lottery_phase_operator",
      "outputs": [
        {
          "internalType": "string",
          "name": "",
          "type": "string"
        }
      ],
      "stateMutability": "view",
      "type": "function",
      "constant": true
    },
    {
      "inputs": [],
      "name": "lottery_state",
      "outputs": [
        {
          "internalType": "string",
          "name": "",
          "type": "string"
        }
      ],
      "stateMutability": "view",
      "type": "function",
      "constant": true
    },
    {
      "inputs": [],
      "name": "operator",
      "outputs": [
        {
          "internalType": "address",
          "name": "",
          "type": "address"
        }
      ],
      "stateMutability": "view",
      "type": "function",
      "constant": true
    },
    {
      "inputs": [],
      "name": "price_tricket",
      "outputs": [
        {
          "internalType": "uint64",
          "name": "",
          "type": "uint64"
        }
      ],
      "stateMutability": "view",
      "type": "function",
      "constant": true
    },
    {
      "inputs": [],
      "name": "get_max_collectible_id",
      "outputs": [
        {
          "internalType": "uint8",
          "name": "",
          "type": "uint8"
        }
      ],
      "stateMutability": "view",
      "type": "function",
      "constant": true
    },
    {
      "inputs": [],
      "name": "get_block_initRound",
      "outputs": [
        {
          "internalType": "uint256",
          "name": "",
          "type": "uint256"
        }
      ],
      "stateMutability": "view",
      "type": "function",
      "constant": true
    },
    {
      "inputs": [],
      "name": "get_num_tickets_sold",
      "outputs": [
        {
          "internalType": "uint8",
          "name": "",
          "type": "uint8"
        }
      ],
      "stateMutability": "view",
      "type": "function",
      "constant": true
    },
    {
      "inputs": [
        {
          "internalType": "uint8",
          "name": "index",
          "type": "uint8"
        }
      ],
      "name": "get_ticket_information",
      "outputs": [
        {
          "internalType": "address",
          "name": "",
          "type": "address"
        },
        {
          "internalType": "uint8[6]",
          "name": "",
          "type": "uint8[6]"
        }
      ],
      "stateMutability": "view",
      "type": "function",
      "constant": true
    },
    {
      "inputs": [],
      "name": "get_contract_balance",
      "outputs": [
        {
          "internalType": "uint256",
          "name": "",
          "type": "uint256"
        }
      ],
      "stateMutability": "view",
      "type": "function",
      "constant": true
    },
    {
      "inputs": [],
      "name": "get_num_collectibles_bought",
      "outputs": [
        {
          "internalType": "uint8",
          "name": "",
          "type": "uint8"
        }
      ],
      "stateMutability": "view",
      "type": "function",
      "constant": true
    },
    {
      "inputs": [
        {
          "internalType": "uint8",
          "name": "index",
          "type": "uint8"
        }
      ],
      "name": "get_collectible_info",
      "outputs": [
        {
          "internalType": "string",
          "name": "",
          "type": "string"
        }
      ],
      "stateMutability": "view",
      "type": "function",
      "constant": true
    },
    {
      "inputs": [],
      "name": "get_num_NFTs_minted",
      "outputs": [
        {
          "internalType": "uint8",
          "name": "",
          "type": "uint8"
        }
      ],
      "stateMutability": "view",
      "type": "function",
      "constant": true
    },
    {
      "inputs": [
        {
          "internalType": "uint8",
          "name": "index",
          "type": "uint8"
        }
      ],
      "name": "get_NFT_information",
      "outputs": [
        {
          "internalType": "address",
          "name": "",
          "type": "address"
        },
        {
          "internalType": "string",
          "name": "",
          "type": "string"
        },
        {
          "internalType": "uint8",
          "name": "",
          "type": "uint8"
        },
        {
          "internalType": "uint8",
          "name": "",
          "type": "uint8"
        }
      ],
      "stateMutability": "view",
      "type": "function",
      "constant": true
    },
    {
      "inputs": [],
      "name": "get_last_ticket_bought",
      "outputs": [
        {
          "internalType": "address",
          "name": "",
          "type": "address"
        },
        {
          "internalType": "uint8[6]",
          "name": "",
          "type": "uint8[6]"
        }
      ],
      "stateMutability": "view",
      "type": "function",
      "constant": true
    },
    {
      "inputs": [],
      "name": "get_drawn_numbers",
      "outputs": [
        {
          "internalType": "uint8[6]",
          "name": "",
          "type": "uint8[6]"
        }
      ],
      "stateMutability": "view",
      "type": "function",
      "constant": true
    },
    {
      "inputs": [],
      "name": "create_lottery",
      "outputs": [],
      "stateMutability": "nonpayable",
      "type": "function"
    },
    {
      "inputs": [
        {
          "internalType": "address",
          "name": "receiver",
          "type": "address"
        }
      ],
      "name": "set_balance_receiver",
      "outputs": [
        {
          "internalType": "bool",
          "name": "res",
          "type": "bool"
        }
      ],
      "stateMutability": "nonpayable",
      "type": "function"
    },
    {
      "inputs": [
        {
          "internalType": "uint8",
          "name": "id_collectible",
          "type": "uint8"
        }
      ],
      "name": "buy_collectibles",
      "outputs": [
        {
          "internalType": "bool",
          "name": "res",
          "type": "bool"
        }
      ],
      "stateMutability": "payable",
      "type": "function",
      "payable": true
    },
    {
      "inputs": [],
      "name": "close_lottery",
      "outputs": [
        {
          "internalType": "bool",
          "name": "res",
          "type": "bool"
        }
      ],
      "stateMutability": "nonpayable",
      "type": "function"
    },
    {
      "inputs": [
        {
          "internalType": "uint8[6]",
          "name": "chosen_numbers",
          "type": "uint8[6]"
        }
      ],
      "name": "buy_ticket",
      "outputs": [
        {
          "internalType": "bool",
          "name": "res",
          "type": "bool"
        }
      ],
      "stateMutability": "payable",
      "type": "function",
      "payable": true
    },
    {
      "inputs": [],
      "name": "draw_numbers",
      "outputs": [
        {
          "internalType": "bool",
          "name": "res",
          "type": "bool"
        }
      ],
      "stateMutability": "nonpayable",
      "type": "function"
    },
    {
      "inputs": [],
      "name": "compute_prizes",
      "outputs": [
        {
          "internalType": "bool",
          "name": "res",
          "type": "bool"
        }
      ],
      "stateMutability": "nonpayable",
      "type": "function"
    },
    {
      "inputs": [],
      "name": "give_prizes",
      "outputs": [
        {
          "internalType": "bool",
          "name": "res",
          "type": "bool"
        }
      ],
      "stateMutability": "nonpayable",
      "type": "function"
    },
    {
      "inputs": [],
      "name": "start_New_Round",
      "outputs": [
        {
          "internalType": "bool",
          "name": "res",
          "type": "bool"
        }
      ],
      "stateMutability": "nonpayable",
      "type": "function"
    }
  ],
  "bytecode": "0x670de0b6b3a7640000608052600560a052600860c052610120604052600660e08190527f436c6f73656400000000000000000000000000000000000000000000000000006101009081526200005891600e919062000222565b5060408051808201909152600b8082527f4e6f745f6372656174656400000000000000000000000000000000000000000060209092019182526200009f91600f9162000222565b506010805461ffff19166001179055348015620000bb57600080fd5b5060038054600160a060020a03191633179055620000e1640100000000620000e8810204565b506200036b565b6000604051620000f890620002b1565b604051809103906000f08015801562000115573d6000803e3d6000fd5b5060018054600160a060020a031916600160a060020a03929092169190911790556040516200014490620002bf565b604051809103906000f08015801562000161573d6000803e3d6000fd5b5060008054600160a060020a031916600160a060020a03929092169182179055604080517f0131222f0000000000000000000000000000000000000000000000000000000081529051630131222f916004808201926020929091908290030181865afa158015620001d6573d6000803e3d6000fd5b505050506040513d601f19601f82011682018060405250810190620001fc9190620002e4565b60028054600160a060020a031916600160a060020a039290921691909117905550600190565b828054620002309062000316565b90600052602060002090601f0160209004810192826200025457600085556200029f565b82601f106200026f57805160ff19168380011785556200029f565b828001600101855582156200029f579182015b828111156200029f57825182559160200191906001019062000282565b50620002ad929150620002cd565b5090565b6120b8806200319183390190565b610bf5806200524983390190565b5b80821115620002ad5760008155600101620002ce565b600060208284031215620002f757600080fd5b8151600160a060020a03811681146200030f57600080fd5b9392505050565b6002810460018216806200032b57607f821691505b60208210810362000365577f4e487b7100000000000000000000000000000000000000000000000000000000600052602260045260246000fd5b50919050565b60805160a05160c051612dda620003b76000396000610c3301526000612289015260008181610328015281816110a5015281816112120152818161125201526117a50152612dda6000f3fe6080604052600436106101a05760003560e060020a90048063b340a8a6116100f0578063e8db515c1161008e578063ee37926e11610068578063ee37926e1461048a578063f0bc153a146104aa578063f7d3de2a146104be578063f8cf168b146104d357600080fd5b8063e8db515c14610440578063e94bb0e914610460578063edaed2971461047557600080fd5b8063ce4be61e116100ca578063ce4be61e146103ec578063d258ddd314610401578063d31d773e14610416578063e11f35a21461042b57600080fd5b8063b340a8a6146103a4578063c1558ac1146103c4578063cbc80f20146103d757600080fd5b8063756f07831161015d57806389275c3e1161013757806389275c3e146102f45780639b2d2c7814610316578063aa5162d214610363578063ab17aa431461039157600080fd5b8063756f0783146102a65780637ab49d3c146102bd57806381447999146102d257600080fd5b806310038421146101a5578063175dcbd8146101db578063393cd6691461020057806349a2d6a614610230578063570ca73514610259578063572b97de14610291575b600080fd5b3480156101b157600080fd5b506010546101c490610100900460ff1681565b60405160ff90911681526020015b60405180910390f35b3480156101e757600080fd5b506101f06104f3565b60405190151581526020016101d2565b34801561020c57600080fd5b5061022061021b36600461275b565b6107e6565b6040516101d294939291906127d4565b34801561023c57600080fd5b50600d5467ffffffffffffffff165b6040519081526020016101d2565b34801561026557600080fd5b5060035461027990600160a060020a031681565b604051600160a060020a0390911681526020016101d2565b34801561029d57600080fd5b506101c46108a8565b3480156102b257600080fd5b506102bb610928565b005b3480156102c957600080fd5b50600b546101c4565b3480156102de57600080fd5b506102e7610a0f565b6040516101d29190612811565b34801561030057600080fd5b50610309610a9d565b6040516101d2919061284a565b34801561032257600080fd5b5061034a7f000000000000000000000000000000000000000000000000000000000000000081565b60405167ffffffffffffffff90911681526020016101d2565b34801561036f57600080fd5b5061038361037e36600461275b565b610af5565b6040516101d2929190612858565b6101f061039f36600461275b565b610c1c565b3480156103b057600080fd5b506101c46103bf366004612875565b610e60565b6101f06103d236600461288e565b610e8a565b3480156103e357600080fd5b506101f0611334565b3480156103f857600080fd5b506101f0611621565b34801561040d57600080fd5b506101f061183a565b34801561042257600080fd5b506006546101c4565b34801561043757600080fd5b506101f0611a79565b34801561044c57600080fd5b5060045461027990600160a060020a031681565b34801561046c57600080fd5b506102e7611ce2565b34801561048157600080fd5b50600c546101c4565b34801561049657600080fd5b506101f06104a53660046128cb565b611cef565b3480156104b657600080fd5b50303161024b565b3480156104ca57600080fd5b50610383611dbb565b3480156104df57600080fd5b506102e76104ee36600461275b565b611e2a565b600354600090600160a060020a031633036107e3576040517f476976655f7072697a65735f7068617365000000000000000000000000000000602082015260310160405160208183030381529060405280519060200120600f60405160200161055c919061291f565b60405160208183030381529060405280519060200120036107e35760408051808201909152600a8082527f496e69745f70686173650000000000000000000000000000000000000000000060209092019182526105bb91600f91612597565b5060008080606081805b600a5460ff871610156107b25760096000600a8860ff16815481106105ec576105ec612991565b6000918252602080832090910154600160a060020a0316835282019290925260400190205460ff16945061062461021b6001876129c3565b60035493975091955093509150600160a060020a039081169085160361076857600154600354600a8054600160a060020a0393841693638ea6d6a59316919060ff8b1690811061067657610676612991565b60009182526020909120015460405163ffffffff841660e060020a028152600160a060020a0392831660048201529116602482015260ff84166044820152606401600060405180830381600087803b1580156106d157600080fd5b505af11580156106e5573d6000803e3d6000fd5b505050507fd0cdcb5cc5cbb3601b031453efdaf93abc65405e94eaf0ed2f2dcf153bc2e512600a8760ff168154811061072057610720612991565b600091825260208083209091015460ff891683526005909152604091829020915161075b92600160a060020a03909216919089908690612a5d565b60405180910390a16107a0565b61079e85600a8860ff168154811061078257610782612991565b600091825260209091200154600160a060020a03166001611f4d565b505b856107aa81612a7f565b9650506105c5565b600080516020612d85833981519152600f6040516107d09190612a9e565b60405180910390a1600196505050505050505b90565b600154600b805460009260609284928392600160a060020a03169163ecd693549160ff891690811061081a5761081a612991565b60009182526020918290209181049091015460405163ffffffff841660e060020a028152601f9092166101000a900460ff166004820152602401600060405180830381865afa158015610871573d6000803e3d6000fd5b505050506040513d6000823e601f3d908101601f191682016040526108999190810190612b52565b93509350935093509193509193565b60008060009054906101000a9004600160a060020a0316600160a060020a0316638e621c0e6040518163ffffffff1660e060020a028152600401602060405180830381865afa1580156108ff573d6000803e3d6000fd5b505050506040513d601f19601f820116820180604052508101906109239190612bc9565b905090565b6040805180820190915260078082527f4372656174656400000000000000000000000000000000000000000000000000602090920191825261096c91600f91612597565b506040805180820190915260048082527f4f70656e0000000000000000000000000000000000000000000000000000000060209092019182526109b191600e91612597565b50600080516020612d85833981519152600f6040516109d09190612a9e565b60405180910390a1604051600181527f674ad1413765ae41a920065d7575b2bb63a370b369de114be843ec892afe86ca906020015b60405180910390a1565b600e8054610a1c906128e8565b80601f0160208091040260200160405190810160405280929190818152602001828054610a48906128e8565b8015610a955780601f10610a6a57610100808354040283529160200191610a95565b820191906000526020600020905b815481529060010190602001808311610a7857829003601f168201915b505050505081565b610aa561261b565b6040805160c081019182905290600790600690826000855b825461010083900a900460ff16815260206001928301818104948501949093039092029101808411610abd5790505050505050905090565b6000610aff61261b565b600c5460ff841610610b5b5760405160e560020a62461bcd02815260206004820152601860248201527f57726f6e67207469636b65745f696420696e736572746564000000000000000060448201526064015b60405180910390fd5b600c8360ff1681548110610b7157610b71612991565b6000918252602090912060029091020154600c8054600160a060020a039092169160ff8616908110610ba557610ba5612991565b906000526020600020906002020160010180600680602002604051908101604052809291908260068015610c0c576020028201916000905b825461010083900a900460ff16815260206001928301818104948501949093039092029101808411610bdd5790505b5050505050905091509150915091565b600354600090600160a060020a03163303610e5b577f000000000000000000000000000000000000000000000000000000000000000060ff168260ff161115610caa5760405160e560020a62461bcd02815260206004820152601d60248201527f57726f6e6720436f6c6c65637469626c655f696420696e7365727465640000006044820152606401610b52565b60008260ff1611610d005760405160e560020a62461bcd02815260206004820152601d60248201527f57726f6e6720436f6c6c65637469626c655f696420696e7365727465640000006044820152606401610b52565b6002546040517ffdd695f300000000000000000000000000000000000000000000000000000000815260ff84166004820152600160a060020a039091169063fdd695f390349060240160006040518083038185885af1158015610d67573d6000803e3d6000fd5b50505050506040513d6000823e601f3d908101601f19168201604052610d909190810190612be6565b60ff831660009081526005602090815260409091208251610db79391929190910190612597565b50600680546001810190915560208082047ff652222313e28459528d920b65115c16c04f3efc82aaedc97be59f3f377c0d3f01805460ff808716601f9095166101000a85810291021990911617905560009182526005905260409081902090517f462c37611244c9b3a410255022028feba64bdcd621d2311bd329b11c13434ee091610e4591859190612c23565b60405180910390a1610e556120aa565b50600190505b919050565b60078160068110610e7057600080fd5b60209182820401919006915054906101000a900460ff1681565b6040517f4275795f70686173650000000000000000000000000000000000000000000000602082015260009060290160405160208183030381529060405280519060200120600f604051602001610ee1919061291f565b6040516020818303038152906040528051906020012003610e5b5760045434903390600160a060020a03168103610f835760405160e560020a62461bcd02815260206004820152602660248201527f5468652062616c616e63652052656365697665722063616e277420626520612060448201527f706c6179657200000000000000000000000000000000000000000000000000006064820152608401610b52565b6040805160c0818101909252610fb19186906006908390839080828437600092019190915250612131915050565b6110265760405160e560020a62461bcd02815260206004820152603960248201527f596f752063616e277420696e73657274206475706c69636174652076616c756560448201527f7320696e20746865207374616e64617264206e756d62657273000000000000006064820152608401610b52565b6040805160c081810190925261105491869060069083908390808284376000920191909152506121cb915050565b6110a35760405160e560020a62461bcd02815260206004820152601560248201527f57726f6e672076616c75657320696e73657274656400000000000000000000006044820152606401610b52565b7f000000000000000000000000000000000000000000000000000000000000000067ffffffffffffffff168267ffffffffffffffff16101561112a5760405160e560020a62461bcd02815260206004820152601960248201527f596f752068617665206e6f7420656e6f756768206574686572000000000000006044820152606401610b52565b6000604051806040016040528083600160a060020a0316815260200186600680602002604051908101604052809291908260066020028082843760009201829052509290935250600c8054600181018255915282517fdf6966c971051c3d54ec59162606531493a51404a002842f56009d7e5cf4a8c76002909202918201805473ffffffffffffffffffffffffffffffffffffffff1916600160a060020a039092169190911781556020840151939450849390925061120d917fdf6966c971051c3d54ec59162606531493a51404a002842f56009d7e5cf4a8c801906006612639565b5050507f000000000000000000000000000000000000000000000000000000000000000067ffffffffffffffff168367ffffffffffffffff16106112bc5760006112777f000000000000000000000000000000000000000000000000000000000000000085612c3f565b604051909150600160a060020a0384169067ffffffffffffffff831680156108fc02916000818181858888f193505050501580156112b9573d6000803e3d6000fd5b50505b6040805160c081810190925260009187906006908390839080828437600092019190915250506040519192507f3d1eff019dc6e647c310af9615e7b4d7128376827b6de311313a4f38ddc4a7de91611318915033908490612858565b60405180910390a161132861227b565b50600195945050505050565b6040517f436f6d707574655f7072697a65735f7068617365000000000000000000000000602082015260009060340160405160208183030381529060405280519060200120600f60405160200161138b919061291f565b60405160208183030381529060405280519060200120036107e357600354600160a060020a031633036107e3576000806000806113c661261b565b600091505b600c5460ff831610156115aa57600c8260ff16815481106113ee576113ee612991565b6000918252602082206040805160c081019182905293600290930290910160010191600691908390855b825461010083900a900460ff168152602060019283018181049485019490930390920291018084116114185790505050505050905061145681612320565b9550935061146485856123cf565b925060ff831615611598578260096000600c8560ff168154811061148a5761148a612991565b6000918252602080832060029290920290910154600160a060020a031683528201929092526040019020805460ff191660ff928316179055600c8054600a9285169081106114da576114da612991565b6000918252602080832060029092029091015483546001810185559383529120909101805473ffffffffffffffffffffffffffffffffffffffff1916600160a060020a03909216919091179055600c80547ff873756bc79496e269b0008c58a987062f57ac370949f1e179faa4146e4f4f52919060ff851690811061156157611561612991565b600091825260209091206002909102015460405161158f91600160a060020a03169084906007908890612c68565b60405180910390a15b816115a281612a7f565b9250506113cb565b6040805180820190915260118082527f476976655f7072697a65735f706861736500000000000000000000000000000060209092019182526115ee91600f91612597565b50600080516020612d85833981519152600f60405161160d9190612a9e565b60405180910390a160019550505050505090565b600354600090600160a060020a031633036107e3576040517f4f70656e00000000000000000000000000000000000000000000000000000000602082015260240160405160208183030381529060405280519060200120600e60405160200161168a919061291f565b60405160208183030381529060405280519060200120036107e3576040805180820190915260068082527f436c6f736564000000000000000000000000000000000000000000000000000060209092019182526116e991600e91612597565b506040805180820190915260068082527f436c6f7365640000000000000000000000000000000000000000000000000000602090920191825261172e91600f91612597565b50600080516020612d85833981519152600f60405161174d9190612a9e565b60405180910390a160005b600c5460ff821610156117fe57600c8160ff168154811061177b5761177b612991565b60009182526020822060029091020154604051600160a060020a039091169167ffffffffffffffff7f00000000000000000000000000000000000000000000000000000000000000001680156108fc02929091818181858888f193505050501580156117eb573d6000803e3d6000fd5b50806117f681612a7f565b915050611758565b50604051600181527f0659ac7df111eba4d389b3feae4a53e02ad4edcc19c4e95ca0029d5f370ae6b2906020015b60405180910390a150600190565b600354600090600160a060020a031633036107e3576040517f45787472616374696f6e5f706861736500000000000000000000000000000000602082015260300160405160208183030381529060405280519060200120600f6040516020016118a3919061291f565b60405160208183030381529060405280519060200120036107e3576118c661261b565b6118ce612476565b90506118d981612131565b61194e5760405160e560020a62461bcd02815260206004820152602160248201527f4475706c69636174652076616c75657320696e20647261776e206e756d62657260448201527f73000000000000000000000000000000000000000000000000000000000000006064820152608401610b52565b7fc80b886e6f9c0666d91267ac1c905449c7f0bb776a1db0a48ef31a6670db75148160405161197d919061284a565b60405180910390a160005b60058160ff1610156119eb57600160086000848460ff16600681106119af576119af612991565b6020908102919091015160ff168252810191909152604001600020805460ff1916911515919091179055806119e381612a7f565b915050611988565b506119f96007826006612639565b50611a0261261b565b6040805180820190915260148082527f436f6d707574655f7072697a65735f70686173650000000000000000000000006020909201918252919250611a4a91600f9190612597565b50600080516020612d85833981519152600f604051611a699190612a9e565b60405180910390a1600191505090565b600354600090600160a060020a031633036107e3576040517f496e69745f7068617365000000000000000000000000000000000000000000006020820152602a0160405160208183030381529060405280519060200120600f604051602001611ae2919061291f565b60405160208183030381529060405280519060200120036107e35760105460009060ff1615611b56575060015b60098160ff161015611b4757600354611b34908290600160a060020a03166000611f4d565b5080611b3f81612a7f565b915050611b0f565b6010805460ff19169055611c81565b611b62600c60006126c7565b5060005b60058160ff161015611bcb576008600060078360ff1660068110611b8c57611b8c612991565b60208082049092015460ff601f9092166101000a9004168252810191909152604001600020805460ff1916905580611bc381612a7f565b915050611b66565b60006007555060005b600a5460ff82161015611c395760096000600a8360ff1681548110611bfb57611bfb612991565b6000918252602080832090910154600160a060020a031683528201929092526040019020805460ff1916905580611c3181612a7f565b915050611bd4565b611c45600a60006126eb565b600454604051600160a060020a0390911690303180156108fc02916000818181858888f19350505050158015611c7f573d6000803e3d6000fd5b505b600d805467ffffffffffffffff19164367ffffffffffffffff161790556040805180820190915260098082527f4275795f706861736500000000000000000000000000000000000000000000006020909201918252611a4a91600f91612597565b600f8054610a1c906128e8565b600354600090600160a060020a03163303610e5b57600160a060020a038216600003611d605760405160e560020a62461bcd02815260206004820152601560248201527f496e76616c6964206164647265737320676976656e00000000000000000000006044820152606401610b52565b6004805473ffffffffffffffffffffffffffffffffffffffff1916600160a060020a0384169081179091556040519081527ff93eb9e3b721341abd7c252b6294eb3919a1152e62b53fecc26d5e143d5ac0d090602001610e45565b6000611dc561261b565b600c5415611df357600c54600090611ddf90600190612cee565b9050611dea81610af5565b92509250509091565b50506040805160c081018252600080825260208201819052918101829052606081018290526080810182905260a081018290529091565b606060068054905060ff168260ff161015611f14576005600060068460ff1681548110611e5957611e59612991565b600091825260208083208183040154601f9092166101000a90910460ff16835282019290925260400190208054611e8f906128e8565b80601f0160208091040260200160405190810160405280929190818152602001828054611ebb906128e8565b8015611f085780601f10611edd57610100808354040283529160200191611f08565b820191906000526020600020905b815481529060010190602001808311611eeb57829003601f168201915b50505050509050919050565b505060408051808201909152601c81527f4e6f20636f6c6c65637469626c6520626f7567687420736f2066617200000000602082015290565b60015460ff841660009081526005602052604080822090517f356837fe00000000000000000000000000000000000000000000000000000000815291928392600160a060020a039091169163356837fe91611fae9188918a90600401612d05565b6020604051808303816000875af1158015611fcd573d6000803e3d6000fd5b505050506040513d601f19601f82011682018060405250810190611ff19190612bc9565b600b8054600181018255600091909152602081047f0175b7a638427703f0dbe7bb9bbf987a2551717b34e79f33b5b1008d1fa01db901805460ff808516601f9094166101000a938402930219169190911790559050821561209d5760ff85166000908152600560205260409081902090517fc748d8d79d13a3370dc6b92d331ea16e535e6c933d5e96c4726f05987cc332cd916120949187919089908690612a5d565b60405180910390a15b60019150505b9392505050565b60065460009060081480156120c95750600454600160a060020a031615155b156107e35760408051808201909152600a8082527f496e69745f706861736500000000000000000000000000000000000000000000602090920191825261211291600f91612597565b50600080516020612d85833981519152600f60405161182c9190612a9e565b6000805b60058160ff161015610e5557600061214e826001612d3a565b90505b60058160ff1610156121b857838160ff166006811061217257612172612991565b602002015160ff16848360ff166006811061218f5761218f612991565b602002015160ff16036121a6575060009392505050565b806121b081612a7f565b915050612151565b50806121c381612a7f565b915050612135565b6000805b60058160ff161015612242576001838260ff16600681106121f2576121f2612991565b602002015160ff16108061222257506045838260ff166006811061221857612218612991565b602002015160ff16115b156122305750600092915050565b8061223a81612a7f565b9150506121cf565b506001826005602002015160ff1610806122665750601a826005602002015160ff16115b1561227357506000919050565b506001919050565b600d5467ffffffffffffffff7f00000000000000000000000000000000000000000000000000000000000000008116916122b6911643612cee565b1061231e576040805180820190915260108082527f45787472616374696f6e5f70686173650000000000000000000000000000000060209092019182526122ff91600f91612597565b50600080516020612d85833981519152600f604051610a059190612a9e565b565b60008060008060005b60058160ff1610156123975760086000878360ff166006811061234e5761234e612991565b6020908102919091015160ff90811683529082019290925260400160002054161515600103612385578261238181612a7f565b9350505b8061238f81612a7f565b915050612329565b5060a085015160075460ff91821665010000000000909104909116036123c557806123c181612a7f565b9150505b9094909350915050565b600080808060ff8616600103612407578460ff166000036123f35760089150600192505b8460ff166005036124075760019150600192505b8560ff1660000361243a578460ff166001036124265760079150600192505b8460ff1660050361243a5760029150600192505b8261246b576124498587612d3a565b905060ff8116156124665761245f8160086129c3565b915061246b565b600091505b509150505b92915050565b61247e61261b565b61248661261b565b4460008080805b60068160ff16101561258c57604080514360208201527f010000000000000000000000000000000000000000000000000000000000000060ff871602918101919091526041810186905260610160408051601f1981840301815282825280516020918201209083018190529450016040516020818303038152906040528051906020012091508060ff1660050361253057612529601b83612d5f565b935061253e565b61253b604683612d5f565b93505b8360ff16600003612557578361255381612a7f565b9450505b83868260ff166006811061256d5761256d612991565b60ff90921660209290920201528061258481612a7f565b91505061248d565b509395945050505050565b8280546125a3906128e8565b90600052602060002090601f0160209004810192826125c5576000855561260b565b82601f106125de57805160ff191683800117855561260b565b8280016001018555821561260b579182015b8281111561260b5782518255916020019190600101906125f0565b50612617929150612705565b5090565b6040518060c001604052806006906020820280368337509192915050565b60018301918390821561260b5791602002820160005b8382111561268d57835183826101000a81548160ff021916908360ff160217905550926020019260010160208160000104928301926001030261264f565b80156126ba5782816101000a81549060ff021916905560010160208160000104928301926001030261268d565b5050612617929150612705565b50805460008255600202906000526020600020908101906126e8919061271a565b50565b50805460008255906000526020600020908101906126e891905b5b808211156126175760008155600101612706565b8082111561261757805473ffffffffffffffffffffffffffffffffffffffff191681556000600182015560020161271a565b60ff811681146126e857600080fd5b60006020828403121561276d57600080fd5b81356120a38161274c565b60005b8381101561279357818101518382015260200161277b565b838111156127a2576000848401525b50505050565b600081518084526127c0816020860160208601612778565b601f01601f19169290920160200192915050565b600160a060020a03851681526080602082015260006127f660808301866127a8565b60ff9485166040840152929093166060909101529392505050565b6020815260006120a360208301846127a8565b8060005b60068110156127a257815160ff16845260209384019390910190600101612828565b60c081016124708284612824565b600160a060020a038316815260e081016120a36020830184612824565b60006020828403121561288757600080fd5b5035919050565b600060c082840312156128a057600080fd5b8260c0830111156128b057600080fd5b50919050565b600160a060020a03811681146126e857600080fd5b6000602082840312156128dd57600080fd5b81356120a3816128b6565b6002810460018216806128fc57607f821691505b6020821081036128b05760e060020a634e487b7102600052602260045260246000fd5b600080835461292d816128e8565b60018281168015612945576001811461295657612985565b60ff19841687528287019450612985565b8760005260208060002060005b8581101561297c5781548a820152908401908201612963565b50505082870194505b50929695505050505050565b60e060020a634e487b7102600052603260045260246000fd5b60e060020a634e487b7102600052601160045260246000fd5b600060ff821660ff8416808210156129dd576129dd6129aa565b90039392505050565b600081546129f3816128e8565b808552602060018381168015612a105760018114612a2457612a52565b60ff19851688840152604088019550612a52565b866000528260002060005b85811015612a4a5781548a8201860152908301908401612a2f565b890184019650505b505050505092915050565b600160a060020a03851681526080602082015260006127f660808301866129e6565b600060ff821660ff8103612a9557612a956129aa565b60010192915050565b6020815260006120a360208301846129e6565b60e060020a634e487b7102600052604160045260246000fd5b600082601f830112612adb57600080fd5b815167ffffffffffffffff80821115612af657612af6612ab1565b604051601f8301601f19908116603f01168101908282118183101715612b1e57612b1e612ab1565b81604052838152866020858801011115612b3757600080fd5b612b48846020830160208901612778565b9695505050505050565b60008060008060808587031215612b6857600080fd5b8451612b73816128b6565b602086015190945067ffffffffffffffff811115612b9057600080fd5b612b9c87828801612aca565b9350506040850151612bad8161274c565b6060860151909250612bbe8161274c565b939692955090935050565b600060208284031215612bdb57600080fd5b81516120a38161274c565b600060208284031215612bf857600080fd5b815167ffffffffffffffff811115612c0f57600080fd5b612c1b84828501612aca565b949350505050565b60ff83168152604060208201526000612c1b60408301846129e6565b600067ffffffffffffffff83811690831681811015612c6057612c606129aa565b039392505050565b600160a060020a03851681526101c08101612c866020830186612824565b925460ff80821660e0840152610100808304821690840152620100008204811661012084015263010000008204811661014084015264010000000082048116610160840152650100000000009091048116610180830152919091166101a09091015292915050565b600082821015612d0057612d006129aa565b500390565b600160a060020a0384168152606060208201526000612d2760608301856129e6565b905060ff83166040830152949350505050565b600060ff821660ff84168060ff03821115612d5757612d576129aa565b019392505050565b600082612d7f5760e060020a634e487b7102600052601260045260246000fd5b50069056fe237b5c000ad9e2f7755af5c2f6bf4043b4f88559c836b5308745c8ecc19be275a26469706673582212208c6334f50705d33b849ddc012f9a441eed87e0a6f543ab14b9df5e2cff661cca64736f6c634300080e003360806040523480156200001157600080fd5b506040518060400160405280600381526020017f4e465400000000000000000000000000000000000000000000000000000000008152506040518060400160405280600781526020017f5452595f4e465400000000000000000000000000000000000000000000000000815250620000aa6200009b620000de640100000000026401000000009004565b640100000000620000e2810204565b8151620000bf90600190602085019062000132565b508051620000d590600290602084019062000132565b5050506200022d565b3390565b60008054600160a060020a03838116600160a060020a0319831681178455604051919092169283917f8be0079c531659141344cd1fd0a4f28419497f9722a3daafe3b4186f6b6457e09190a35050565b8280546200014090620001d8565b90600052602060002090601f016020900481019282620001645760008555620001af565b82601f106200017f57805160ff1916838001178555620001af565b82800160010185558215620001af579182015b82811115620001af57825182559160200191906001019062000192565b50620001bd929150620001c1565b5090565b5b80821115620001bd5760008155600101620001c2565b600281046001821680620001ed57607f821691505b60208210810362000227577f4e487b7100000000000000000000000000000000000000000000000000000000600052602260045260246000fd5b50919050565b611e7b806200023d6000396000f3fe608060405234801561001057600080fd5b5060043610610154576000357c0100000000000000000000000000000000000000000000000000000000900480638d764859116100d5578063b88d4fde11610099578063b88d4fde146102bf578063c87b56dd146102d2578063e5f1be1c146102e5578063e985e9c5146102f8578063ecd6935414610334578063f2fde38b1461035757600080fd5b80638d7648591461025d5780638da5cb5b146102805780638ea6d6a51461029157806395d89b41146102a4578063a22cb465146102ac57600080fd5b8063356837fe1161011c578063356837fe146101e957806342842e0e1461020e5780636352211e1461022157806370a0823114610234578063715018a61461025557600080fd5b806301ffc9a71461015957806306fdde0314610181578063081812fc14610196578063095ea7b3146101c157806323b872dd146101d6575b600080fd5b61016c6101673660046117a5565b61036a565b60405190151581526020015b60405180910390f35b610189610407565b604051610178919061181a565b6101a96101a436600461182d565b610499565b604051600160a060020a039091168152602001610178565b6101d46101cf366004611862565b610547565b005b6101d46101e436600461188c565b61067e565b6101fc6101f7366004611968565b6106b2565b60405160ff9091168152602001610178565b6101d461021c36600461188c565b6107d6565b6101a961022f36600461182d565b6107f1565b6102476102423660046119da565b61087f565b604051908152602001610178565b6101d461091c565b61027061026b3660046119f5565b610955565b6040516101789493929190611a10565b600054600160a060020a03166101a9565b6101d461029f366004611a4f565b610a2a565b610189610a77565b6101d46102ba366004611a89565b610a86565b6101d46102cd366004611ac5565b610a95565b6101896102e036600461182d565b610ad0565b6101896102f33660046119f5565b610bc9565b61016c610306366004611b41565b600160a060020a03918216600090815260066020908152604080832093909416825291909152205460ff1690565b6103476103423660046119f5565b610c72565b6040516101789493929190611b74565b6101d46103653660046119da565b610d45565b6000600160e060020a031982167f80ac58cd0000000000000000000000000000000000000000000000000000000014806103cd5750600160e060020a031982167f5b5e139f00000000000000000000000000000000000000000000000000000000145b8061040157507f01ffc9a700000000000000000000000000000000000000000000000000000000600160e060020a03198316145b92915050565b60606001805461041690611bb1565b80601f016020809104026020016040519081016040528092919081815260200182805461044290611bb1565b801561048f5780601f106104645761010080835404028352916020019161048f565b820191906000526020600020905b81548152906001019060200180831161047257829003601f168201915b5050505050905090565b600081815260036020526040812054600160a060020a031661052b5760405160e560020a62461bcd02815260206004820152602c60248201527f4552433732313a20617070726f76656420717565727920666f72206e6f6e657860448201527f697374656e7420746f6b656e000000000000000000000000000000000000000060648201526084015b60405180910390fd5b50600090815260056020526040902054600160a060020a031690565b6000610552826107f1565b905080600160a060020a031683600160a060020a0316036105de5760405160e560020a62461bcd02815260206004820152602160248201527f4552433732313a20617070726f76616c20746f2063757272656e74206f776e6560448201527f72000000000000000000000000000000000000000000000000000000000000006064820152608401610522565b33600160a060020a03821614806105fa57506105fa8133610306565b61066f5760405160e560020a62461bcd02815260206004820152603860248201527f4552433732313a20617070726f76652063616c6c6572206973206e6f74206f7760448201527f6e6572206e6f7220617070726f76656420666f7220616c6c00000000000000006064820152608401610522565b6106798383610dfd565b505050565b6106883382610e78565b6106a75760405160e560020a62461bcd02815260040161052290611bee565b610679838383610f83565b60008054600160a060020a031633146106e05760405160e560020a62461bcd02815260040161052290611c4b565b6007546106f190859060ff16611163565b60408051608081018252600160a060020a03808716825260075460ff90811660208085018281528587018a8152898516606088015260009384526008835296909220855181549351909416740100000000000000000000000000000000000000000274ffffffffffffffffffffffffffffffffffffffffff199093169390941692909217178255925180519293919261079092600185019201906116f6565b50606091909101516002909101805460ff191660ff928316179055600754166107ba816001611c99565b6007805460ff191660ff92909216919091179055949350505050565b61067983838360405180602001604052806000815250610a95565b600081815260036020526040812054600160a060020a0316806104015760405160e560020a62461bcd02815260206004820152602960248201527f4552433732313a206f776e657220717565727920666f72206e6f6e657869737460448201527f656e7420746f6b656e00000000000000000000000000000000000000000000006064820152608401610522565b6000600160a060020a0382166109005760405160e560020a62461bcd02815260206004820152602a60248201527f4552433732313a2062616c616e636520717565727920666f7220746865207a6560448201527f726f2061646472657373000000000000000000000000000000000000000000006064820152608401610522565b50600160a060020a031660009081526004602052604090205490565b600054600160a060020a031633146109495760405160e560020a62461bcd02815260040161052290611c4b565b610953600061117d565b565b60086020526000908152604090208054600182018054600160a060020a038316937401000000000000000000000000000000000000000090930460ff1692919061099e90611bb1565b80601f01602080910402602001604051908101604052809291908181526020018280546109ca90611bb1565b8015610a175780601f106109ec57610100808354040283529160200191610a17565b820191906000526020600020905b8154815290600101906020018083116109fa57829003601f168201915b5050506002909301549192505060ff1684565b610a3883838360ff16610f83565b60ff166000908152600860205260409020805473ffffffffffffffffffffffffffffffffffffffff1916600160a060020a039290921691909117905550565b60606002805461041690611bb1565b610a913383836111da565b5050565b610a9f3383610e78565b610abe5760405160e560020a62461bcd02815260040161052290611bee565b610aca848484846112ab565b50505050565b600081815260036020526040902054606090600160a060020a0316610b605760405160e560020a62461bcd02815260206004820152602f60248201527f4552433732314d657461646174613a2055524920717565727920666f72206e6f60448201527f6e6578697374656e7420746f6b656e00000000000000000000000000000000006064820152608401610522565b6000610b7760408051602081019091526000815290565b90506000815111610b975760405180602001604052806000815250610bc2565b80610ba1846112e1565b604051602001610bb2929190611cbe565b6040516020818303038152906040525b9392505050565b60ff81166000908152600860205260409020600101805460609190610bed90611bb1565b80601f0160208091040260200160405190810160405280929190818152602001828054610c1990611bb1565b8015610c665780601f10610c3b57610100808354040283529160200191610c66565b820191906000526020600020905b815481529060010190602001808311610c4957829003601f168201915b50505050509050919050565b60ff80821660009081526008602052604081208054600282015460019092018054939460609486948594600160a060020a03169392169088908390610cb690611bb1565b80601f0160208091040260200160405190810160405280929190818152602001828054610ce290611bb1565b8015610d2f5780601f10610d0457610100808354040283529160200191610d2f565b820191906000526020600020905b815481529060010190602001808311610d1257829003601f168201915b5050505050925093509350935093509193509193565b600054600160a060020a03163314610d725760405160e560020a62461bcd02815260040161052290611c4b565b600160a060020a038116610df15760405160e560020a62461bcd02815260206004820152602660248201527f4f776e61626c653a206e6577206f776e657220697320746865207a65726f206160448201527f64647265737300000000000000000000000000000000000000000000000000006064820152608401610522565b610dfa8161117d565b50565b6000818152600560205260409020805473ffffffffffffffffffffffffffffffffffffffff1916600160a060020a0384169081179091558190610e3f826107f1565b600160a060020a03167f8c5be1e5ebec7d5bd14f71427d1e84f3dd0314c0f7b2291e5b200ac8c7c3b92560405160405180910390a45050565b600081815260036020526040812054600160a060020a0316610f055760405160e560020a62461bcd02815260206004820152602c60248201527f4552433732313a206f70657261746f7220717565727920666f72206e6f6e657860448201527f697374656e7420746f6b656e00000000000000000000000000000000000000006064820152608401610522565b6000610f10836107f1565b905080600160a060020a031684600160a060020a03161480610f575750600160a060020a0380821660009081526006602090815260408083209388168352929052205460ff165b80610f7b575083600160a060020a0316610f7084610499565b600160a060020a0316145b949350505050565b82600160a060020a0316610f96826107f1565b600160a060020a0316146110155760405160e560020a62461bcd02815260206004820152602560248201527f4552433732313a207472616e736665722066726f6d20696e636f72726563742060448201527f6f776e65720000000000000000000000000000000000000000000000000000006064820152608401610522565b600160a060020a0382166110935760405160e560020a62461bcd028152602060048201526024808201527f4552433732313a207472616e7366657220746f20746865207a65726f2061646460448201527f72657373000000000000000000000000000000000000000000000000000000006064820152608401610522565b61109e600082610dfd565b600160a060020a03831660009081526004602052604081208054600192906110c7908490611ced565b9091555050600160a060020a03821660009081526004602052604081208054600192906110f5908490611d04565b9091555050600081815260036020526040808220805473ffffffffffffffffffffffffffffffffffffffff1916600160a060020a0386811691821790925591518493918716917fddf252ad1be2c89b69c2b068fc378daa952ba7f163c4a11628f55a4df523b3ef91a4505050565b610a91828260405180602001604052806000815250611435565b60008054600160a060020a0383811673ffffffffffffffffffffffffffffffffffffffff19831681178455604051919092169283917f8be0079c531659141344cd1fd0a4f28419497f9722a3daafe3b4186f6b6457e09190a35050565b81600160a060020a031683600160a060020a03160361123e5760405160e560020a62461bcd02815260206004820152601960248201527f4552433732313a20617070726f766520746f2063616c6c6572000000000000006044820152606401610522565b600160a060020a03838116600081815260066020908152604080832094871680845294825291829020805460ff191686151590811790915591519182527f17307eab39ab6107e8899845ad3d59bd9653f200f220920489ca2b5937696c31910160405180910390a3505050565b6112b6848484610f83565b6112c28484848461146b565b610aca5760405160e560020a62461bcd02815260040161052290611d1c565b60608160000361132457505060408051808201909152600181527f3000000000000000000000000000000000000000000000000000000000000000602082015290565b8160005b811561134e578061133881611d79565b91506113479050600a83611dab565b9150611328565b60008167ffffffffffffffff811115611369576113696118c8565b6040519080825280601f01601f191660200182016040528015611393576020820181803683370190505b5090505b8415610f7b576113a8600183611ced565b91506113b5600a86611dbf565b6113c0906030611d04565b7f0100000000000000000000000000000000000000000000000000000000000000028183815181106113f4576113f4611dd3565b60200101907effffffffffffffffffffffffffffffffffffffffffffffffffffffffffffff1916908160001a90535061142e600a86611dab565b9450611397565b61143f83836115a1565b61144c600084848461146b565b6106795760405160e560020a62461bcd02815260040161052290611d1c565b6000600160a060020a0384163b15611596576040517f150b7a02000000000000000000000000000000000000000000000000000000008152600160a060020a0385169063150b7a02906114c8903390899088908890600401611dec565b6020604051808303816000875af1925050508015611503575060408051601f3d908101601f1916820190925261150091810190611e28565b60015b611563573d808015611531576040519150601f19603f3d011682016040523d82523d6000602084013e611536565b606091505b50805160000361155b5760405160e560020a62461bcd02815260040161052290611d1c565b805181602001fd5b600160e060020a0319167f150b7a0200000000000000000000000000000000000000000000000000000000149050610f7b565b506001949350505050565b600160a060020a0382166115fa5760405160e560020a62461bcd02815260206004820181905260248201527f4552433732313a206d696e7420746f20746865207a65726f20616464726573736044820152606401610522565b600081815260036020526040902054600160a060020a0316156116625760405160e560020a62461bcd02815260206004820152601c60248201527f4552433732313a20746f6b656e20616c7265616479206d696e746564000000006044820152606401610522565b600160a060020a038216600090815260046020526040812080546001929061168b908490611d04565b9091555050600081815260036020526040808220805473ffffffffffffffffffffffffffffffffffffffff1916600160a060020a03861690811790915590518392907fddf252ad1be2c89b69c2b068fc378daa952ba7f163c4a11628f55a4df523b3ef908290a45050565b82805461170290611bb1565b90600052602060002090601f016020900481019282611724576000855561176a565b82601f1061173d57805160ff191683800117855561176a565b8280016001018555821561176a579182015b8281111561176a57825182559160200191906001019061174f565b5061177692915061177a565b5090565b5b80821115611776576000815560010161177b565b600160e060020a031981168114610dfa57600080fd5b6000602082840312156117b757600080fd5b8135610bc28161178f565b60005b838110156117dd5781810151838201526020016117c5565b83811115610aca5750506000910152565b600081518084526118068160208601602086016117c2565b601f01601f19169290920160200192915050565b602081526000610bc260208301846117ee565b60006020828403121561183f57600080fd5b5035919050565b8035600160a060020a038116811461185d57600080fd5b919050565b6000806040838503121561187557600080fd5b61187e83611846565b946020939093013593505050565b6000806000606084860312156118a157600080fd5b6118aa84611846565b92506118b860208501611846565b9150604084013590509250925092565b60e060020a634e487b7102600052604160045260246000fd5b600067ffffffffffffffff808411156118fc576118fc6118c8565b604051601f8501601f19908116603f01168101908282118183101715611924576119246118c8565b8160405280935085815286868601111561193d57600080fd5b858560208301376000602087830101525050509392505050565b803560ff8116811461185d57600080fd5b60008060006060848603121561197d57600080fd5b61198684611846565b9250602084013567ffffffffffffffff8111156119a257600080fd5b8401601f810186136119b357600080fd5b6119c2868235602084016118e1565b9250506119d160408501611957565b90509250925092565b6000602082840312156119ec57600080fd5b610bc282611846565b600060208284031215611a0757600080fd5b610bc282611957565b600160a060020a038516815260ff84166020820152608060408201526000611a3b60808301856117ee565b905060ff8316606083015295945050505050565b600080600060608486031215611a6457600080fd5b611a6d84611846565b9250611a7b60208501611846565b91506119d160408501611957565b60008060408385031215611a9c57600080fd5b611aa583611846565b915060208301358015158114611aba57600080fd5b809150509250929050565b60008060008060808587031215611adb57600080fd5b611ae485611846565b9350611af260208601611846565b925060408501359150606085013567ffffffffffffffff811115611b1557600080fd5b8501601f81018713611b2657600080fd5b611b35878235602084016118e1565b91505092959194509250565b60008060408385031215611b5457600080fd5b611b5d83611846565b9150611b6b60208401611846565b90509250929050565b600160a060020a0385168152608060208201526000611b9660808301866117ee565b60ff9485166040840152929093166060909101529392505050565b600281046001821680611bc557607f821691505b602082108103611be85760e060020a634e487b7102600052602260045260246000fd5b50919050565b60208082526031908201527f4552433732313a207472616e736665722063616c6c6572206973206e6f74206f60408201527f776e6572206e6f7220617070726f766564000000000000000000000000000000606082015260800190565b6020808252818101527f4f776e61626c653a2063616c6c6572206973206e6f7420746865206f776e6572604082015260600190565b60e060020a634e487b7102600052601160045260246000fd5b600060ff821660ff84168060ff03821115611cb657611cb6611c80565b019392505050565b60008351611cd08184602088016117c2565b835190830190611ce48183602088016117c2565b01949350505050565b600082821015611cff57611cff611c80565b500390565b60008219821115611d1757611d17611c80565b500190565b60208082526032908201527f4552433732313a207472616e7366657220746f206e6f6e20455243373231526560408201527f63656976657220696d706c656d656e7465720000000000000000000000000000606082015260800190565b600060018201611d8b57611d8b611c80565b5060010190565b60e060020a634e487b7102600052601260045260246000fd5b600082611dba57611dba611d92565b500490565b600082611dce57611dce611d92565b500690565b60e060020a634e487b7102600052603260045260246000fd5b6000600160a060020a03808716835280861660208401525083604083015260806060830152611e1e60808301846117ee565b9695505050505050565b600060208284031215611e3a57600080fd5b8151610bc28161178f56fea2646970667358221220dc52440efad9782936baefe5ca917f5663f0cd9ec53d37f5e34c7815addb02d464736f6c634300080e003360c0604052670de0b6b3a7640000608052600860a05234801561002157600080fd5b5060408051808201909152600d81527f48656c6c6f5f4b697474795f31000000000000000000000000000000000000006020808301918252600160009081529052905161008f917fada5013122d395ba3c54772283fb069b10426056ef8ca54750cb9bb552a59e7d91610397565b5060408051808201909152600d81527f48656c6c6f5f4b697474795f3200000000000000000000000000000000000000602080830191825260026000908152905290516100fd917fabbb5caa7dda850e60932de0934eb1f9d0f59695050f761dc64e443e5030a56991610397565b5060408051808201909152600d81527f48656c6c6f5f4b697474795f33000000000000000000000000000000000000006020808301918252600360009081529052905161016b917f101e368776582e57ab3d116ffe2517c0a585cd5b23174b01e275c2d8329c3d8391610397565b5060408051808201909152600d81527f48656c6c6f5f4b697474795f3400000000000000000000000000000000000000602080830191825260046000908152905290516101d9917f52d75039926638d3c558b2bdefb945d5be8dae29dedd1c313212a4d472d9fde591610397565b5060408051808201909152600d81527f48656c6c6f5f4b697474795f350000000000000000000000000000000000000060208083019182526005600090815290529051610247917f2b232c97452f0950c94e2539fdc7e69d21166113cf7a9bcb99b220a3fe5d720a91610397565b5060408051808201909152600d81527f48656c6c6f5f4b697474795f3600000000000000000000000000000000000000602080830191825260066000908152905290516102b5917f62103cf3131c85df57aad364d21cba02556d3092d6cb54c298c2e7726a7870bd91610397565b5060408051808201909152600d81527f48656c6c6f5f4b697474795f370000000000000000000000000000000000000060208083019182526007600090815290529051610323917f870253054e3d98b71abec8fff9ebf8a15d167f15909091a800d4acaab9266d2b91610397565b5060408051808201909152600d81527f48656c6c6f5f4b697474795f380000000000000000000000000000000000000060208083019182526008600090815290529051610391917f5b8b9143058ba3a137192c563ca6541845e62f0a2f9a667aac4db2fa3c334e3c91610397565b50610483565b8280546103a390610430565b90600052602060002090601f0160209004810192826103c5576000855561040b565b82601f106103de57805160ff191683800117855561040b565b8280016001018555821561040b579182015b8281111561040b5782518255916020019190600101906103f0565b5061041792915061041b565b5090565b5b80821115610417576000815560010161041c565b60028104600182168061044457607f821691505b60208210810361047d577f4e487b7100000000000000000000000000000000000000000000000000000000600052602260045260246000fd5b50919050565b60805160a0516107316104c4600039600081816101470152610256015260008181610105015281816102eb0152818161040b015261043601526107316000f3fe608060405260043610610071577c010000000000000000000000000000000000000000000000000000000060003504630131222f811461007657806313fd311b1461009657806352801f97146100c35780635e96430c146100f35780638e621c0e14610135578063fdd695f31461017b575b600080fd5b34801561008257600080fd5b506040513081526020015b60405180910390f35b3480156100a257600080fd5b506100b66100b13660046105a3565b61018e565b60405161008d91906105cd565b3480156100cf57600080fd5b506100e36100de366004610622565b610228565b604051901515815260200161008d565b3480156100ff57600080fd5b506101277f000000000000000000000000000000000000000000000000000000000000000081565b60405190815260200161008d565b34801561014157600080fd5b506101697f000000000000000000000000000000000000000000000000000000000000000081565b60405160ff909116815260200161008d565b6100b66101893660046105a3565b610252565b600060208190529081526040902080546101a79061063b565b80601f01602080910402602001604051908101604052809291908181526020018280546101d39061063b565b80156102205780601f106101f557610100808354040283529160200191610220565b820191906000526020600020905b81548152906001019060200180831161020357829003601f168201915b505050505081565b6001816009811061023857600080fd5b60209182820401919006915054906101000a900460ff1681565b60607f000000000000000000000000000000000000000000000000000000000000000060ff168260ff1611156102e9576040517f08c379a000000000000000000000000000000000000000000000000000000000815260206004820152601460248201527f57726f6e6720436f6c6c65637469626c655f494400000000000000000000000060448201526064015b60405180910390fd5b7f0000000000000000000000000000000000000000000000000000000000000000341015610373576040517f08c379a000000000000000000000000000000000000000000000000000000000815260206004820152600f60248201527f56616c756520746f6f20736d616c6c000000000000000000000000000000000060448201526064016102e0565b60018260ff16600981106103895761038961068e565b602081049091015460ff601f9092166101000a90041615610406576040517f08c379a000000000000000000000000000000000000000000000000000000000815260206004820152601860248201527f436f6c6c65637469626c6520616c726561647920736f6c64000000000000000060448201526064016102e0565b3460007f000000000000000000000000000000000000000000000000000000000000000082111561048d5761045b7f0000000000000000000000000000000000000000000000000000000000000000836106bd565b604051909150339082156108fc029083906000818181858888f1935050505015801561048b573d6000803e3d6000fd5b505b60405160ff851681527fe160d4cad63836d753e897f60292d5c77089a275ac297cd64bd763c15fbd23499060200160405180910390a16001808560ff16600981106104da576104da61068e565b602091828204019190066101000a81548160ff0219169083151502179055506000808560ff1660ff168152602001908152602001600020805461051c9061063b565b80601f01602080910402602001604051908101604052809291908181526020018280546105489061063b565b80156105955780601f1061056a57610100808354040283529160200191610595565b820191906000526020600020905b81548152906001019060200180831161057857829003601f168201915b505050505092505050919050565b6000602082840312156105b557600080fd5b813560ff811681146105c657600080fd5b9392505050565b600060208083528351808285015260005b818110156105fa578581018301518582016040015282016105de565b8181111561060c576000604083870101525b50601f01601f1916929092016040019392505050565b60006020828403121561063457600080fd5b5035919050565b60028104600182168061064f57607f821691505b602082108103610688577f4e487b7100000000000000000000000000000000000000000000000000000000600052602260045260246000fd5b50919050565b7f4e487b7100000000000000000000000000000000000000000000000000000000600052603260045260246000fd5b6000828210156106f6577f4e487b7100000000000000000000000000000000000000000000000000000000600052601160045260246000fd5b50039056fea264697066735822122056cd4a8a88d1f7765a896cca15822eb9bdeaa9de0712cbbd2b0023a0d160590464736f6c634300080e0033",
  "immutableReferences": {
    "211": [
      {
        "length": 32,
        "start": 808
      },
      {
        "length": 32,
        "start": 4261
      },
      {
        "length": 32,
        "start": 4626
      },
      {
        "length": 32,
        "start": 4690
      },
      {
        "length": 32,
        "start": 6053
      }
    ],
    "216": [
      {
        "length": 32,
        "start": 8841
      }
    ],
    "219": [
      {
        "length": 32,
        "start": 3123
      }
    ]
  },
  "source": "// SPDX-License-Identifier: GPL-3.0\r\n\r\npragma solidity >=0.8.0 <0.9.0;\r\nimport \"./Collectibles.sol\";\r\nimport \"./newNFT.sol\";\r\ncontract Lottery{\r\n\r\n    Collectibles CL;\r\n    newNFT newnft;\r\n    address private CL_address; //address of the Collectibles deployed contract\r\n\r\n    address public operator;\r\n    address public balance_receiver;\r\n\r\n    mapping(uint8=>string) private collectibles_bought; // id_collectible => collectible description\r\n    uint8 [] private collectibles_bought_id;\r\n\r\n    uint8 [6] public drawn_numbers; \r\n    mapping (uint8 => bool) private drawn_numbers_mapping; // drawn_number => true\r\n\r\n    mapping (address => uint8) private reward_list; //address winner => class of the reward nft\r\n    address[] private winners;\r\n    \r\n    uint8[] private NFT_minted; //take track of token id minted so far\r\n\r\n    struct Ticket{ \r\n        address owner;\r\n        uint8 [6] chosen_numbers;\r\n    }\r\n    Ticket[] private tickets_sold;\r\n\r\n    uint64 public immutable price_tricket = 1000000000000000000;\r\n    uint64 private block_number_init; //\r\n    uint64 private immutable M = 5;\r\n\r\n    uint8 private immutable collectibles_number = 8;\r\n\r\n    string public lottery_state = \"Closed\";\r\n    string public lottery_phase_operator = \"Not_created\";\r\n\r\n    bool private first_init_round = true; //used in order to detect the case in startNewRound\r\n\r\n    uint8 public contatore =0;\r\n\r\n    constructor () {\r\n        //init the lottery operator\r\n        operator = msg.sender;\r\n        init_side_contracts();\r\n    }\r\n\r\n    //EVENTS\r\n\r\n    event bal_initialized(address receiver);\r\n\r\n    event phase_change(string phase_name);\r\n\r\n    event ticket_bought(address owner, uint8 [6] return_chosen_numbers);\r\n    event values_drawn(uint8[6] values_drawn);\r\n    \r\n    event prize_assigned(address winner, uint8[6] value_provided_user, uint8[6] draw_numbers, uint8 class_prize); \r\n    //address of the winner, values provided by the winner, drawn numbers, class of the prize\r\n\r\n    event collectible_bought(uint8 id, string description);\r\n\r\n    event NFT_minted_now (address owner,string description, uint8 NFT_class, uint8 id);\r\n\r\n    event NFT_transfered (address owner, string description, uint8 NFT_class, uint8 id);\r\n\r\n    event lottery_created(bool lottery_closed);\r\n\r\n    event lottery_closed(bool lottery_closed);\r\n    \r\n\r\n    //MODIFIERS\r\n\r\n    modifier onlyOperator { //verify that only the lottery operator can execute a function\r\n        if (msg.sender == operator) _;\r\n    }\r\n\r\n    modifier initPhaseActive{\r\n        if(keccak256(abi.encodePacked(lottery_phase_operator)) == keccak256(abi.encodePacked(\"Init_phase\")))\r\n        _;\r\n    }\r\n\r\n    modifier buyPhaseActive { //verify that the buy phase is start, so now the users can buy tickets\r\n        if(keccak256(abi.encodePacked(lottery_phase_operator)) == keccak256(abi.encodePacked(\"Buy_phase\")))\r\n         _;\r\n    }\r\n\r\n    modifier  extractionPhaseActive { //verify that the buy phase is closed, so now the operator can extract the random numbers\r\n        if(keccak256(abi.encodePacked(lottery_phase_operator)) == keccak256(abi.encodePacked(\"Extraction_phase\")))\r\n         _;\r\n    }\r\n\r\n    modifier givePrizesPhaseActive{ //verify that the random numbers are extracted, so now the operator can assign and compute the prizes\r\n        if(keccak256(abi.encodePacked(lottery_phase_operator)) == keccak256(abi.encodePacked(\"Give_prizes_phase\")))\r\n        _;\r\n    }\r\n\r\n    modifier computePrizesPhaseActive{ //verify that the prizes are computed, so now the operator can give them to the winner users\r\n        if(keccak256(abi.encodePacked(lottery_phase_operator)) == keccak256(abi.encodePacked(\"Compute_prizes_phase\")))\r\n            _;\r\n    }\r\n\r\n    modifier lotteryOpen{ //verify that the lottery is open. Once the close_lottery() fun is invoked the value of lottery_open is set to false, so the function can't be invoked anymore.\r\n        if(keccak256(abi.encodePacked(lottery_state)) == keccak256(abi.encodePacked(\"Open\")))\r\n            _;\r\n    }\r\n\r\n    //GETTER FUNCTIONS\r\n\r\n    function get_max_collectible_id() view public returns (uint8){\r\n        return CL.collectibles_number();\r\n    }\r\n\r\n    //returns the block.number registered at the start round time\r\n    function get_block_initRound() view public returns (uint){\r\n        return block_number_init;\r\n    }\r\n\r\n    function get_num_tickets_sold() view public returns (uint8){\r\n        return uint8(tickets_sold.length);\r\n    }\r\n\r\n    //receive the ticket_id and retrieve the ticket informations (owner, submitted values)\r\n    function get_ticket_information(uint8 index) view public returns(address, uint8 [6] memory){\r\n        require(index < tickets_sold.length, \"Wrong ticket_id inserted\");\r\n        return (tickets_sold[index].owner, tickets_sold[index].chosen_numbers);\r\n    }\r\n\r\n    function get_contract_balance () view public returns (uint){\r\n        return address(this).balance;\r\n    }\r\n\r\n    function get_num_collectibles_bought() view public returns (uint8){\r\n        return uint8(collectibles_bought_id.length);\r\n    }\r\n\r\n    function get_collectible_info(uint8 index) view public returns (string memory){\r\n        if(index < uint8(collectibles_bought_id.length))\r\n            return string(collectibles_bought[collectibles_bought_id[index]]);\r\n        else\r\n            return (\"No collectible bought so far\");\r\n    }\r\n\r\n    function get_num_NFTs_minted() view public returns (uint8){\r\n        return uint8(NFT_minted.length);\r\n    }\r\n\r\n        //receive the index in NFT_Minted, then retrieve the NFT informations (owner, description, class) \r\n    function get_NFT_information(uint8 index) view public returns(address, string memory, uint8, uint8){\r\n        return newnft.get_NFT_informations(NFT_minted[index]);\r\n    }  \r\n\r\n    function get_last_ticket_bought() view public returns (address, uint8 [6] memory){\r\n        //require (tickets_sold.length > 0, \"No ticket bought so far\");\r\n        if(tickets_sold.length > 0){\r\n            uint8 ticket_id = uint8(tickets_sold.length-1);\r\n            return get_ticket_information(ticket_id);\r\n        }\r\n        else{\r\n            uint8 [6] memory ret = [0,0,0,0,0,0];\r\n            return (address(0x0), ret);\r\n        }\r\n    }\r\n\r\n    function get_drawn_numbers() view public returns (uint8 [6] memory){\r\n        return drawn_numbers;\r\n    }\r\n\r\n    /*\r\n    function get_last_prize_assigned() view public returns (uint){\r\n        return address(this).balance;\r\n    }\r\n    */\r\n\r\n    //drawn numbers gestita da app.js\r\n\r\n    //BUSINESS LOGIC FUNCTIONS\r\n\r\n    function init_side_contracts() internal returns (bool res){\r\n        newnft = new newNFT();\r\n\r\n        CL = new Collectibles(); \r\n        CL_address = CL.get_address();\r\n        res = true;\r\n        return res;\r\n    }\r\n\r\n    function create_lottery() public {\r\n        lottery_phase_operator=\"Created\";\r\n        lottery_state=\"Open\";\r\n        emit phase_change(lottery_phase_operator);\r\n        emit lottery_created(true);\r\n    }\r\n\r\n    function check_initPhase() internal returns (bool res){\r\n        res=false;\r\n        if(collectibles_bought_id.length==8 && (balance_receiver!= address(0x0)) ){\r\n            lottery_phase_operator=\"Init_phase\";\r\n            emit phase_change(lottery_phase_operator);\r\n            res = true;\r\n        }\r\n        return res;    \r\n    }\r\n\r\n\r\n\r\n    function set_balance_receiver(address receiver) onlyOperator external returns (bool res){\r\n        require(address(0x0)!= receiver, \"Invalid address given\");\r\n        balance_receiver=receiver;\r\n\r\n        emit bal_initialized(receiver);\r\n        \r\n        check_initPhase(); // verify if startNewRound can be invoked\r\n        \r\n        return res = true;\r\n    }\r\n\r\n        //buy collectibles through the Collectibles object\r\n    function buy_collectibles(uint8 id_collectible) onlyOperator payable external returns(bool res){\r\n        require(id_collectible <= collectibles_number, \"Wrong Collectible_id inserted\");\r\n        require( id_collectible >0 , \"Wrong Collectible_id inserted\");\r\n        collectibles_bought[id_collectible] = string(Collectibles(CL_address).buy_collectible{value:msg.value}(id_collectible));\r\n        collectibles_bought_id.push(id_collectible);\r\n\r\n        emit collectible_bought(id_collectible,collectibles_bought[id_collectible] );\r\n        \r\n        check_initPhase(); // verify if startNewRound can be invoked\r\n\r\n        return res = true;\r\n    }\r\n\r\n    //operator can close the lottery in any moment\r\n    function close_lottery() onlyOperator lotteryOpen external returns (bool res){\r\n        //first disable all the other function calls\r\n        lottery_state=\"Closed\"; //no way to set it Open again => no way of getting reentrancy\r\n        lottery_phase_operator = \"Closed\";\r\n        emit phase_change(lottery_phase_operator);\r\n\r\n        for(uint8 i=0;i<tickets_sold.length;i++)\r\n            payable(tickets_sold[i].owner).transfer(price_tricket);    \r\n\r\n        emit lottery_closed (true);\r\n        \r\n        return res = true; \r\n    }\r\n\r\n    //verify the correctness of the numbers provided by the users\r\n    //invoked by buy_ticket()\r\n    function check_given_numbers(uint8 [6] memory given_numbers) pure private returns (bool){\r\n\r\n        for(uint8 i=0; i<5; i++){\r\n            if(given_numbers[i] < 1 || given_numbers[i] > 69)\r\n                return false;\r\n        }\r\n        if(given_numbers[5] < 1 || given_numbers[5] > 26)\r\n            return false;\r\n        \r\n        return true;\r\n    }\r\n\r\n    //verify the correctness of the numbers provided by the users\r\n    //invoked by buy_ticket()\r\n    function check_duplicate(uint8 [6] memory input) private pure returns(bool){\r\n        for(uint8 i=0; i<5;i++){\r\n            for(uint8 j=i+1; j<5;j++){\r\n                if(input[i]==input[j])\r\n                    return false;\r\n            }\r\n        }\r\n        return true;\r\n    }\r\n\r\n\r\n\r\n    function buy_ticket(uint8 [6] calldata  chosen_numbers) buyPhaseActive payable external returns (bool res){\r\n\r\n        uint64 money=uint64(msg.value);\r\n        address owner = msg.sender;\r\n        //checks for input data\r\n        require(msg.sender != balance_receiver, \"The balance Receiver can't be a player\");\r\n        require(chosen_numbers.length == 6, \"You have to choose 6 numbers\");\r\n        require(check_duplicate(chosen_numbers), \"You can't insert duplicate values in the standard numbers\");\r\n        \r\n        require(check_given_numbers(chosen_numbers), \"Wrong values inserted\");\r\n        \r\n        require(money>=price_tricket, \"You have not enough ether\");\r\n\r\n        Ticket memory  ticket =  Ticket(owner, chosen_numbers);\r\n        tickets_sold.push(ticket);\r\n\r\n        if(money >= price_tricket) {\r\n            uint64 change = uint64(money) - price_tricket;\r\n            // send the change\r\n            payable(owner).transfer(change);\r\n        }\r\n\r\n        uint8 [6] memory return_chosen_numbers = chosen_numbers; \r\n\r\n        emit ticket_bought(address(msg.sender), return_chosen_numbers);\r\n\r\n        check_round_is_active();\r\n        \r\n        return res = true;\r\n    }\r\n\r\n    //after each ticket bought, verify if the number of blocks M is reached or not\r\n    //invoked by buy_ticket()\r\n    function check_round_is_active() private {\r\n        if( (block.number - block_number_init)>= M){ //round concluded\r\n            lottery_phase_operator = \"Extraction_phase\";\r\n            emit phase_change(lottery_phase_operator);\r\n        }   \r\n    }\r\n\r\n    //extract the numbers randomly, done outside of the blockchain\r\n    //invoked by draw_numbers() \r\n    function draw_numbers_compute() private view returns (uint8 [6] memory ){ //returns the extracted value\r\n\r\n        uint8 [6] memory  numbers;\r\n        uint seed =block.difficulty;\r\n        uint8 extracted_value;\r\n        bytes32 bhash;\r\n        bytes32 rand;\r\n\r\n\r\n        for(uint8 i=0;i<6;i++){\r\n            \r\n            bhash = (keccak256(abi.encodePacked(block.number,extracted_value,seed)));\r\n            \r\n            rand = keccak256(abi.encodePacked(bhash));\r\n\r\n            if(i==5)\r\n                extracted_value=uint8(uint(rand) % 27); \r\n            else\r\n                extracted_value=uint8(uint(rand) % 70);                \r\n            \r\n            if(extracted_value==0) //since value range start from 1\r\n                extracted_value++; \r\n            \r\n            numbers[i]=extracted_value; \r\n        }\r\n            \r\n        bhash=0;\r\n        rand=0;\r\n            \r\n        return (numbers);\r\n    }\r\n\r\n\r\n    function draw_numbers() onlyOperator extractionPhaseActive external returns(bool res) {\r\n\r\n        uint8 [6] memory  computed_values; //mi permette di non accedere allo storage nel for\r\n        computed_values = draw_numbers_compute();\r\n\r\n        require(check_duplicate(computed_values), \"Duplicate values in drawn numbers\");\r\n\r\n        emit values_drawn (computed_values);\r\n\r\n        //aggiorno il mapping\r\n        for(uint8 i =0; i<5;i++)\r\n            drawn_numbers_mapping[computed_values[i]]=true;\r\n\r\n        //scrivo su storage i valori estratti\r\n        drawn_numbers = computed_values;\r\n\r\n        //cancello variabile locale\r\n        delete computed_values;\r\n\r\n        lottery_phase_operator = \"Compute_prizes_phase\";\r\n        emit phase_change(lottery_phase_operator);\r\n\r\n        return res = true;\r\n    }\r\n\r\n    //compute, for each ticket bought, the number of matches obtained\r\n    //invoked by compute_prizes()\r\n    function compute_matches(uint8[6] memory num_picked_usr ) view private returns (uint8 , uint8 ){\r\n        //input= array numeri scelti da utente\r\n        uint8 normal_matches;\r\n        uint8 powerball_match;\r\n        for(uint8 i=0; i<5;i++){ //for each value submitted by user\r\n            if(drawn_numbers_mapping[num_picked_usr[i]]==true)\r\n                normal_matches++;\r\n        }\r\n\r\n        if(drawn_numbers[5]==num_picked_usr[5])\r\n            powerball_match++;\r\n\r\n        return (normal_matches, powerball_match);\r\n    }\r\n\r\n    \r\n    //compare the drawn_numbers with the values provided by the users in the tickets and elect the winners \r\n    function compute_prizes() computePrizesPhaseActive onlyOperator external returns (bool res){\r\n\r\n        uint8 powerball_match; //counter\r\n        uint8 normal_matches; //counter\r\n        uint8 class_value;\r\n        uint8 i;\r\n\r\n        uint8 [6] memory num_picked_usr;\r\n\r\n        for( i=0; i<tickets_sold.length;i++){ //for each ticket\r\n            num_picked_usr = tickets_sold[i].chosen_numbers; //take values submitted\r\n            \r\n            (normal_matches, powerball_match) = compute_matches(num_picked_usr);\r\n\r\n            class_value=compute_class_value_prize(powerball_match, normal_matches);\r\n            //modifica\r\n            if(class_value>0){\r\n                reward_list[tickets_sold[i].owner] = class_value;\r\n                winners.push(tickets_sold[i].owner);\r\n                emit prize_assigned(tickets_sold[i].owner, num_picked_usr, drawn_numbers, class_value);\r\n            }\r\n            \r\n        }\r\n        lottery_phase_operator = \"Give_prizes_phase\";\r\n        emit phase_change(lottery_phase_operator);\r\n        res = true;\r\n        return res;\r\n    }\r\n\r\n    //compute, for each ticket bought, the class of the NFT given as reward based on the number of matches\r\n    function compute_class_value_prize(uint8 powerball_match, uint8 normal_matches) pure private returns (uint8){\r\n        bool done=false;\r\n        uint8 class_value=0;\r\n        uint8 sum_values;\r\n        //classes 1,2,7,8 handled handmade\r\n        if(powerball_match==1){\r\n            if(normal_matches==0){\r\n                class_value=8;\r\n                done=true;\r\n            }\r\n            if(normal_matches==5){\r\n                class_value=1;\r\n                done=true;\r\n            }\r\n        }\r\n\r\n        if(powerball_match==0){\r\n            if(normal_matches==1){\r\n                class_value=7;\r\n                done=true;\r\n            }\r\n            if(normal_matches==5){\r\n                class_value=2;\r\n                done=true;\r\n            }\r\n        }\r\n\r\n        //classes 3,4,5,6 computed algorithmically\r\n        if(!done){\r\n            sum_values = powerball_match+normal_matches;\r\n            if(sum_values>0)\r\n                class_value= 8 - sum_values;\r\n            else\r\n                class_value=0;\r\n        }\r\n\r\n        return class_value;\r\n    }\r\n\r\n    //assign the NFTs to the winners: if a NFT is avaible it just transfer it to the winner, else it mints a new NFT  \r\n    function give_prizes() onlyOperator givePrizesPhaseActive external returns (bool res){\r\n        lottery_phase_operator = \"Init_phase\"; // set here, ANTI REENTRANCY\r\n        uint8 i;\r\n        uint8 NFT_class;\r\n\r\n        address address_temp;\r\n        string memory description_temp;\r\n        uint8 class_temp;\r\n        uint8 token_id_temp;\r\n        for(i=0;i<winners.length;i++){\r\n\r\n            NFT_class = reward_list[winners[i]]; // take the class of the nft to give as reward\r\n\r\n            // initially, 8 NFTs (one for each class) were minted with owner = operator, and their token_id are in the array NFT_Minted\r\n            // so now check:\r\n            // if the NFT minted initially with the class = class of the reward  is owned by the operator yet (this means that was not assigned as reward) => transfer this NFT to the winner user\r\n            // if the NFT minted initially with the class = class of the reward is owned by a user (this means that was already assigned as reward) => mint another with the same class\r\n            \r\n            (address_temp, description_temp, class_temp, token_id_temp) = get_NFT_information(NFT_class-1); \r\n            // get_NFT_information takes the token_id of the NFT in input.\r\n            // Since the first 8 NFT minted are one for each class and they're stored in NFT_Minted, an NFT of class 1 is stored in NFT_Minted[0] (because the index of the array NFT_Minted starts from 0, while the NFT class start from 1)\r\n            // So generally for the first 8 NFT minted is true that a NFT of class x is stored in NFT_Minted[x-1].  \r\n            \r\n            if(address_temp == operator){ \r\n                newnft.give_to_winner(operator,winners[i],token_id_temp); //class-1 perche i primi 8 nft, memorizzati in indici [0,7] corrispondo alle 8 classi\r\n                emit NFT_transfered (winners[i], collectibles_bought[NFT_class], NFT_class, token_id_temp);\r\n            }\r\n            else\r\n                mint(NFT_class, winners[i], true);\r\n        }\r\n\r\n        emit phase_change(lottery_phase_operator);\r\n        return res = true;\r\n    }\r\n\r\n\r\n    function mint(uint8 NFT_class, address owner, bool print) private returns (bool) {\r\n\r\n        uint8 tokenId = newnft.mintToken(owner, collectibles_bought[NFT_class], NFT_class);\r\n\r\n        NFT_minted.push(tokenId);\r\n\r\n        if(print)\r\n            emit NFT_minted_now (owner, collectibles_bought[NFT_class], NFT_class, tokenId);\r\n\r\n        return true;\r\n    }\r\n\r\n\r\n\r\n\r\n\r\n    function start_New_Round() onlyOperator initPhaseActive  external returns (bool res) { //non deve avere modifier rewardPhase perche viene invocato anche nel construttore \r\n        \r\n        uint8 i;\r\n        if(first_init_round){ //IF A LOTTERY'S ENDING => CLEAN ALL DATA STRUCTURE AND RESTART\r\n\r\n            //mint the first 8 NFTs, one for each class\r\n            for(i =1; i< 9; i++)\r\n                mint(i, operator, false); //(class, owner, bool that def if print or not the minting)\r\n            \r\n            first_init_round = false;\r\n            \r\n        }\r\n        else{\r\n            delete tickets_sold;\r\n\r\n            for( i=0; i<5;i++)\r\n                delete drawn_numbers_mapping[drawn_numbers[i]];\r\n            \r\n            delete drawn_numbers;\r\n\r\n            for(i=0; i<winners.length;i++)\r\n                delete reward_list[winners[i]];\r\n            \r\n            delete winners;\r\n\r\n            payable(balance_receiver).transfer(address(this).balance);\r\n        }\r\n        \r\n            \r\n        block_number_init = uint64(block.number); //SET THE NEW INITIAL BLOCK NUMBER\r\n\r\n        lottery_phase_operator=\"Buy_phase\";\r\n        emit phase_change(lottery_phase_operator);\r\n        res = true;\r\n        return res;\r\n    }\r\n\r\n\r\n\r\n\r\n}",
  "sourcePath": "/home/matteo/P2P/contracts/Lottery.sol",
  "compiler": {
    "name": "solc",
    "version": "0.8.14+commit.80d49f37.Emscripten.clang"
  },
  "schemaVersion": "3.4.7",
  "updatedAt": "2022-06-23T13:43:37.279Z",
  "networkType": "ethereum",
  "devdoc": {
    "kind": "dev",
    "methods": {},
    "version": 1
  },
  "userdoc": {
    "kind": "user",
    "methods": {},
    "version": 1
  }
}