{
  "contractName": "newNFT",
  "abi": [
    {
      "anonymous": false,
      "inputs": [
        {
          "indexed": true,
          "internalType": "address",
          "name": "owner",
          "type": "address"
        },
        {
          "indexed": true,
          "internalType": "address",
          "name": "approved",
          "type": "address"
        },
        {
          "indexed": true,
          "internalType": "uint256",
          "name": "tokenId",
          "type": "uint256"
        }
      ],
      "name": "Approval",
      "type": "event"
    },
    {
      "anonymous": false,
      "inputs": [
        {
          "indexed": true,
          "internalType": "address",
          "name": "owner",
          "type": "address"
        },
        {
          "indexed": true,
          "internalType": "address",
          "name": "operator",
          "type": "address"
        },
        {
          "indexed": false,
          "internalType": "bool",
          "name": "approved",
          "type": "bool"
        }
      ],
      "name": "ApprovalForAll",
      "type": "event"
    },
    {
      "anonymous": false,
      "inputs": [
        {
          "indexed": false,
          "internalType": "address",
          "name": "owner",
          "type": "address"
        },
        {
          "indexed": false,
          "internalType": "uint8",
          "name": "token_id",
          "type": "uint8"
        },
        {
          "indexed": false,
          "internalType": "string",
          "name": "description_collectible",
          "type": "string"
        },
        {
          "indexed": false,
          "internalType": "uint8",
          "name": "class",
          "type": "uint8"
        }
      ],
      "name": "NFT_mint",
      "type": "event"
    },
    {
      "anonymous": false,
      "inputs": [
        {
          "indexed": true,
          "internalType": "address",
          "name": "previousOwner",
          "type": "address"
        },
        {
          "indexed": true,
          "internalType": "address",
          "name": "newOwner",
          "type": "address"
        }
      ],
      "name": "OwnershipTransferred",
      "type": "event"
    },
    {
      "anonymous": false,
      "inputs": [
        {
          "indexed": true,
          "internalType": "address",
          "name": "from",
          "type": "address"
        },
        {
          "indexed": true,
          "internalType": "address",
          "name": "to",
          "type": "address"
        },
        {
          "indexed": true,
          "internalType": "uint256",
          "name": "tokenId",
          "type": "uint256"
        }
      ],
      "name": "Transfer",
      "type": "event"
    },
    {
      "inputs": [
        {
          "internalType": "address",
          "name": "to",
          "type": "address"
        },
        {
          "internalType": "uint256",
          "name": "tokenId",
          "type": "uint256"
        }
      ],
      "name": "approve",
      "outputs": [],
      "stateMutability": "nonpayable",
      "type": "function"
    },
    {
      "inputs": [
        {
          "internalType": "address",
          "name": "owner",
          "type": "address"
        }
      ],
      "name": "balanceOf",
      "outputs": [
        {
          "internalType": "uint256",
          "name": "",
          "type": "uint256"
        }
      ],
      "stateMutability": "view",
      "type": "function"
    },
    {
      "inputs": [
        {
          "internalType": "uint256",
          "name": "tokenId",
          "type": "uint256"
        }
      ],
      "name": "getApproved",
      "outputs": [
        {
          "internalType": "address",
          "name": "",
          "type": "address"
        }
      ],
      "stateMutability": "view",
      "type": "function"
    },
    {
      "inputs": [
        {
          "internalType": "address",
          "name": "owner",
          "type": "address"
        },
        {
          "internalType": "address",
          "name": "operator",
          "type": "address"
        }
      ],
      "name": "isApprovedForAll",
      "outputs": [
        {
          "internalType": "bool",
          "name": "",
          "type": "bool"
        }
      ],
      "stateMutability": "view",
      "type": "function"
    },
    {
      "inputs": [],
      "name": "name",
      "outputs": [
        {
          "internalType": "string",
          "name": "",
          "type": "string"
        }
      ],
      "stateMutability": "view",
      "type": "function"
    },
    {
      "inputs": [],
      "name": "owner",
      "outputs": [
        {
          "internalType": "address",
          "name": "",
          "type": "address"
        }
      ],
      "stateMutability": "view",
      "type": "function"
    },
    {
      "inputs": [
        {
          "internalType": "uint256",
          "name": "tokenId",
          "type": "uint256"
        }
      ],
      "name": "ownerOf",
      "outputs": [
        {
          "internalType": "address",
          "name": "",
          "type": "address"
        }
      ],
      "stateMutability": "view",
      "type": "function"
    },
    {
      "inputs": [
        {
          "internalType": "uint8",
          "name": "",
          "type": "uint8"
        }
      ],
      "name": "ownershipRecord",
      "outputs": [
        {
          "internalType": "address",
          "name": "nft_owner",
          "type": "address"
        },
        {
          "internalType": "uint8",
          "name": "token_Id",
          "type": "uint8"
        },
        {
          "internalType": "string",
          "name": "description_collectible",
          "type": "string"
        },
        {
          "internalType": "uint8",
          "name": "class",
          "type": "uint8"
        }
      ],
      "stateMutability": "view",
      "type": "function"
    },
    {
      "inputs": [],
      "name": "renounceOwnership",
      "outputs": [],
      "stateMutability": "nonpayable",
      "type": "function"
    },
    {
      "inputs": [
        {
          "internalType": "address",
          "name": "from",
          "type": "address"
        },
        {
          "internalType": "address",
          "name": "to",
          "type": "address"
        },
        {
          "internalType": "uint256",
          "name": "tokenId",
          "type": "uint256"
        }
      ],
      "name": "safeTransferFrom",
      "outputs": [],
      "stateMutability": "nonpayable",
      "type": "function"
    },
    {
      "inputs": [
        {
          "internalType": "address",
          "name": "from",
          "type": "address"
        },
        {
          "internalType": "address",
          "name": "to",
          "type": "address"
        },
        {
          "internalType": "uint256",
          "name": "tokenId",
          "type": "uint256"
        },
        {
          "internalType": "bytes",
          "name": "_data",
          "type": "bytes"
        }
      ],
      "name": "safeTransferFrom",
      "outputs": [],
      "stateMutability": "nonpayable",
      "type": "function"
    },
    {
      "inputs": [
        {
          "internalType": "address",
          "name": "operator",
          "type": "address"
        },
        {
          "internalType": "bool",
          "name": "approved",
          "type": "bool"
        }
      ],
      "name": "setApprovalForAll",
      "outputs": [],
      "stateMutability": "nonpayable",
      "type": "function"
    },
    {
      "inputs": [
        {
          "internalType": "bytes4",
          "name": "interfaceId",
          "type": "bytes4"
        }
      ],
      "name": "supportsInterface",
      "outputs": [
        {
          "internalType": "bool",
          "name": "",
          "type": "bool"
        }
      ],
      "stateMutability": "view",
      "type": "function"
    },
    {
      "inputs": [],
      "name": "symbol",
      "outputs": [
        {
          "internalType": "string",
          "name": "",
          "type": "string"
        }
      ],
      "stateMutability": "view",
      "type": "function"
    },
    {
      "inputs": [
        {
          "internalType": "uint256",
          "name": "tokenId",
          "type": "uint256"
        }
      ],
      "name": "tokenURI",
      "outputs": [
        {
          "internalType": "string",
          "name": "",
          "type": "string"
        }
      ],
      "stateMutability": "view",
      "type": "function"
    },
    {
      "inputs": [
        {
          "internalType": "address",
          "name": "from",
          "type": "address"
        },
        {
          "internalType": "address",
          "name": "to",
          "type": "address"
        },
        {
          "internalType": "uint256",
          "name": "tokenId",
          "type": "uint256"
        }
      ],
      "name": "transferFrom",
      "outputs": [],
      "stateMutability": "nonpayable",
      "type": "function"
    },
    {
      "inputs": [
        {
          "internalType": "address",
          "name": "newOwner",
          "type": "address"
        }
      ],
      "name": "transferOwnership",
      "outputs": [],
      "stateMutability": "nonpayable",
      "type": "function"
    },
    {
      "inputs": [
        {
          "internalType": "address",
          "name": "recipient",
          "type": "address"
        },
        {
          "internalType": "string",
          "name": "description_collectible_given",
          "type": "string"
        },
        {
          "internalType": "uint8",
          "name": "given_class",
          "type": "uint8"
        }
      ],
      "name": "mintToken",
      "outputs": [
        {
          "internalType": "uint8",
          "name": "",
          "type": "uint8"
        }
      ],
      "stateMutability": "nonpayable",
      "type": "function"
    },
    {
      "inputs": [
        {
          "internalType": "address",
          "name": "owner",
          "type": "address"
        },
        {
          "internalType": "address",
          "name": "winner",
          "type": "address"
        },
        {
          "internalType": "uint8",
          "name": "_tokenId",
          "type": "uint8"
        }
      ],
      "name": "give_to_winner",
      "outputs": [],
      "stateMutability": "nonpayable",
      "type": "function"
    },
    {
      "inputs": [
        {
          "internalType": "uint8",
          "name": "tokenId_given",
          "type": "uint8"
        }
      ],
      "name": "get_NFT_informations",
      "outputs": [
        {
          "internalType": "address",
          "name": "",
          "type": "address"
        },
        {
          "internalType": "string",
          "name": "",
          "type": "string"
        },
        {
          "internalType": "uint8",
          "name": "",
          "type": "uint8"
        },
        {
          "internalType": "uint8",
          "name": "",
          "type": "uint8"
        }
      ],
      "stateMutability": "view",
      "type": "function"
    },
    {
      "inputs": [
        {
          "internalType": "uint8",
          "name": "tokenId_given",
          "type": "uint8"
        }
      ],
      "name": "get_NFT_desc",
      "outputs": [
        {
          "internalType": "string",
          "name": "",
          "type": "string"
        }
      ],
      "stateMutability": "view",
      "type": "function"
    }
  ],
  "bytecode": "0x60806040523480156200001157600080fd5b506040518060400160405280600381526020017f4e465400000000000000000000000000000000000000000000000000000000008152506040518060400160405280600781526020017f5452595f4e465400000000000000000000000000000000000000000000000000815250620000aa6200009b620000de640100000000026401000000009004565b640100000000620000e2810204565b8151620000bf90600190602085019062000132565b508051620000d590600290602084019062000132565b5050506200022d565b3390565b60008054600160a060020a03838116600160a060020a0319831681178455604051919092169283917f8be0079c531659141344cd1fd0a4f28419497f9722a3daafe3b4186f6b6457e09190a35050565b8280546200014090620001d8565b90600052602060002090601f016020900481019282620001645760008555620001af565b82601f106200017f57805160ff1916838001178555620001af565b82800160010185558215620001af579182015b82811115620001af57825182559160200191906001019062000192565b50620001bd929150620001c1565b5090565b5b80821115620001bd5760008155600101620001c2565b600281046001821680620001ed57607f821691505b60208210810362000227577f4e487b7100000000000000000000000000000000000000000000000000000000600052602260045260246000fd5b50919050565b611e7b806200023d6000396000f3fe608060405234801561001057600080fd5b5060043610610154576000357c0100000000000000000000000000000000000000000000000000000000900480638d764859116100d5578063b88d4fde11610099578063b88d4fde146102bf578063c87b56dd146102d2578063e5f1be1c146102e5578063e985e9c5146102f8578063ecd6935414610334578063f2fde38b1461035757600080fd5b80638d7648591461025d5780638da5cb5b146102805780638ea6d6a51461029157806395d89b41146102a4578063a22cb465146102ac57600080fd5b8063356837fe1161011c578063356837fe146101e957806342842e0e1461020e5780636352211e1461022157806370a0823114610234578063715018a61461025557600080fd5b806301ffc9a71461015957806306fdde0314610181578063081812fc14610196578063095ea7b3146101c157806323b872dd146101d6575b600080fd5b61016c6101673660046117a5565b61036a565b60405190151581526020015b60405180910390f35b610189610407565b604051610178919061181a565b6101a96101a436600461182d565b610499565b604051600160a060020a039091168152602001610178565b6101d46101cf366004611862565b610547565b005b6101d46101e436600461188c565b61067e565b6101fc6101f7366004611968565b6106b2565b60405160ff9091168152602001610178565b6101d461021c36600461188c565b6107d6565b6101a961022f36600461182d565b6107f1565b6102476102423660046119da565b61087f565b604051908152602001610178565b6101d461091c565b61027061026b3660046119f5565b610955565b6040516101789493929190611a10565b600054600160a060020a03166101a9565b6101d461029f366004611a4f565b610a2a565b610189610a77565b6101d46102ba366004611a89565b610a86565b6101d46102cd366004611ac5565b610a95565b6101896102e036600461182d565b610ad0565b6101896102f33660046119f5565b610bc9565b61016c610306366004611b41565b600160a060020a03918216600090815260066020908152604080832093909416825291909152205460ff1690565b6103476103423660046119f5565b610c72565b6040516101789493929190611b74565b6101d46103653660046119da565b610d45565b6000600160e060020a031982167f80ac58cd0000000000000000000000000000000000000000000000000000000014806103cd5750600160e060020a031982167f5b5e139f00000000000000000000000000000000000000000000000000000000145b8061040157507f01ffc9a700000000000000000000000000000000000000000000000000000000600160e060020a03198316145b92915050565b60606001805461041690611bb1565b80601f016020809104026020016040519081016040528092919081815260200182805461044290611bb1565b801561048f5780601f106104645761010080835404028352916020019161048f565b820191906000526020600020905b81548152906001019060200180831161047257829003601f168201915b5050505050905090565b600081815260036020526040812054600160a060020a031661052b5760405160e560020a62461bcd02815260206004820152602c60248201527f4552433732313a20617070726f76656420717565727920666f72206e6f6e657860448201527f697374656e7420746f6b656e000000000000000000000000000000000000000060648201526084015b60405180910390fd5b50600090815260056020526040902054600160a060020a031690565b6000610552826107f1565b905080600160a060020a031683600160a060020a0316036105de5760405160e560020a62461bcd02815260206004820152602160248201527f4552433732313a20617070726f76616c20746f2063757272656e74206f776e6560448201527f72000000000000000000000000000000000000000000000000000000000000006064820152608401610522565b33600160a060020a03821614806105fa57506105fa8133610306565b61066f5760405160e560020a62461bcd02815260206004820152603860248201527f4552433732313a20617070726f76652063616c6c6572206973206e6f74206f7760448201527f6e6572206e6f7220617070726f76656420666f7220616c6c00000000000000006064820152608401610522565b6106798383610dfd565b505050565b6106883382610e78565b6106a75760405160e560020a62461bcd02815260040161052290611bee565b610679838383610f83565b60008054600160a060020a031633146106e05760405160e560020a62461bcd02815260040161052290611c4b565b6007546106f190859060ff16611163565b60408051608081018252600160a060020a03808716825260075460ff90811660208085018281528587018a8152898516606088015260009384526008835296909220855181549351909416740100000000000000000000000000000000000000000274ffffffffffffffffffffffffffffffffffffffffff199093169390941692909217178255925180519293919261079092600185019201906116f6565b50606091909101516002909101805460ff191660ff928316179055600754166107ba816001611c99565b6007805460ff191660ff92909216919091179055949350505050565b61067983838360405180602001604052806000815250610a95565b600081815260036020526040812054600160a060020a0316806104015760405160e560020a62461bcd02815260206004820152602960248201527f4552433732313a206f776e657220717565727920666f72206e6f6e657869737460448201527f656e7420746f6b656e00000000000000000000000000000000000000000000006064820152608401610522565b6000600160a060020a0382166109005760405160e560020a62461bcd02815260206004820152602a60248201527f4552433732313a2062616c616e636520717565727920666f7220746865207a6560448201527f726f2061646472657373000000000000000000000000000000000000000000006064820152608401610522565b50600160a060020a031660009081526004602052604090205490565b600054600160a060020a031633146109495760405160e560020a62461bcd02815260040161052290611c4b565b610953600061117d565b565b60086020526000908152604090208054600182018054600160a060020a038316937401000000000000000000000000000000000000000090930460ff1692919061099e90611bb1565b80601f01602080910402602001604051908101604052809291908181526020018280546109ca90611bb1565b8015610a175780601f106109ec57610100808354040283529160200191610a17565b820191906000526020600020905b8154815290600101906020018083116109fa57829003601f168201915b5050506002909301549192505060ff1684565b610a3883838360ff16610f83565b60ff166000908152600860205260409020805473ffffffffffffffffffffffffffffffffffffffff1916600160a060020a039290921691909117905550565b60606002805461041690611bb1565b610a913383836111da565b5050565b610a9f3383610e78565b610abe5760405160e560020a62461bcd02815260040161052290611bee565b610aca848484846112ab565b50505050565b600081815260036020526040902054606090600160a060020a0316610b605760405160e560020a62461bcd02815260206004820152602f60248201527f4552433732314d657461646174613a2055524920717565727920666f72206e6f60448201527f6e6578697374656e7420746f6b656e00000000000000000000000000000000006064820152608401610522565b6000610b7760408051602081019091526000815290565b90506000815111610b975760405180602001604052806000815250610bc2565b80610ba1846112e1565b604051602001610bb2929190611cbe565b6040516020818303038152906040525b9392505050565b60ff81166000908152600860205260409020600101805460609190610bed90611bb1565b80601f0160208091040260200160405190810160405280929190818152602001828054610c1990611bb1565b8015610c665780601f10610c3b57610100808354040283529160200191610c66565b820191906000526020600020905b815481529060010190602001808311610c4957829003601f168201915b50505050509050919050565b60ff80821660009081526008602052604081208054600282015460019092018054939460609486948594600160a060020a03169392169088908390610cb690611bb1565b80601f0160208091040260200160405190810160405280929190818152602001828054610ce290611bb1565b8015610d2f5780601f10610d0457610100808354040283529160200191610d2f565b820191906000526020600020905b815481529060010190602001808311610d1257829003601f168201915b5050505050925093509350935093509193509193565b600054600160a060020a03163314610d725760405160e560020a62461bcd02815260040161052290611c4b565b600160a060020a038116610df15760405160e560020a62461bcd02815260206004820152602660248201527f4f776e61626c653a206e6577206f776e657220697320746865207a65726f206160448201527f64647265737300000000000000000000000000000000000000000000000000006064820152608401610522565b610dfa8161117d565b50565b6000818152600560205260409020805473ffffffffffffffffffffffffffffffffffffffff1916600160a060020a0384169081179091558190610e3f826107f1565b600160a060020a03167f8c5be1e5ebec7d5bd14f71427d1e84f3dd0314c0f7b2291e5b200ac8c7c3b92560405160405180910390a45050565b600081815260036020526040812054600160a060020a0316610f055760405160e560020a62461bcd02815260206004820152602c60248201527f4552433732313a206f70657261746f7220717565727920666f72206e6f6e657860448201527f697374656e7420746f6b656e00000000000000000000000000000000000000006064820152608401610522565b6000610f10836107f1565b905080600160a060020a031684600160a060020a03161480610f575750600160a060020a0380821660009081526006602090815260408083209388168352929052205460ff165b80610f7b575083600160a060020a0316610f7084610499565b600160a060020a0316145b949350505050565b82600160a060020a0316610f96826107f1565b600160a060020a0316146110155760405160e560020a62461bcd02815260206004820152602560248201527f4552433732313a207472616e736665722066726f6d20696e636f72726563742060448201527f6f776e65720000000000000000000000000000000000000000000000000000006064820152608401610522565b600160a060020a0382166110935760405160e560020a62461bcd028152602060048201526024808201527f4552433732313a207472616e7366657220746f20746865207a65726f2061646460448201527f72657373000000000000000000000000000000000000000000000000000000006064820152608401610522565b61109e600082610dfd565b600160a060020a03831660009081526004602052604081208054600192906110c7908490611ced565b9091555050600160a060020a03821660009081526004602052604081208054600192906110f5908490611d04565b9091555050600081815260036020526040808220805473ffffffffffffffffffffffffffffffffffffffff1916600160a060020a0386811691821790925591518493918716917fddf252ad1be2c89b69c2b068fc378daa952ba7f163c4a11628f55a4df523b3ef91a4505050565b610a91828260405180602001604052806000815250611435565b60008054600160a060020a0383811673ffffffffffffffffffffffffffffffffffffffff19831681178455604051919092169283917f8be0079c531659141344cd1fd0a4f28419497f9722a3daafe3b4186f6b6457e09190a35050565b81600160a060020a031683600160a060020a03160361123e5760405160e560020a62461bcd02815260206004820152601960248201527f4552433732313a20617070726f766520746f2063616c6c6572000000000000006044820152606401610522565b600160a060020a03838116600081815260066020908152604080832094871680845294825291829020805460ff191686151590811790915591519182527f17307eab39ab6107e8899845ad3d59bd9653f200f220920489ca2b5937696c31910160405180910390a3505050565b6112b6848484610f83565b6112c28484848461146b565b610aca5760405160e560020a62461bcd02815260040161052290611d1c565b60608160000361132457505060408051808201909152600181527f3000000000000000000000000000000000000000000000000000000000000000602082015290565b8160005b811561134e578061133881611d79565b91506113479050600a83611dab565b9150611328565b60008167ffffffffffffffff811115611369576113696118c8565b6040519080825280601f01601f191660200182016040528015611393576020820181803683370190505b5090505b8415610f7b576113a8600183611ced565b91506113b5600a86611dbf565b6113c0906030611d04565b7f0100000000000000000000000000000000000000000000000000000000000000028183815181106113f4576113f4611dd3565b60200101907effffffffffffffffffffffffffffffffffffffffffffffffffffffffffffff1916908160001a90535061142e600a86611dab565b9450611397565b61143f83836115a1565b61144c600084848461146b565b6106795760405160e560020a62461bcd02815260040161052290611d1c565b6000600160a060020a0384163b15611596576040517f150b7a02000000000000000000000000000000000000000000000000000000008152600160a060020a0385169063150b7a02906114c8903390899088908890600401611dec565b6020604051808303816000875af1925050508015611503575060408051601f3d908101601f1916820190925261150091810190611e28565b60015b611563573d808015611531576040519150601f19603f3d011682016040523d82523d6000602084013e611536565b606091505b50805160000361155b5760405160e560020a62461bcd02815260040161052290611d1c565b805181602001fd5b600160e060020a0319167f150b7a0200000000000000000000000000000000000000000000000000000000149050610f7b565b506001949350505050565b600160a060020a0382166115fa5760405160e560020a62461bcd02815260206004820181905260248201527f4552433732313a206d696e7420746f20746865207a65726f20616464726573736044820152606401610522565b600081815260036020526040902054600160a060020a0316156116625760405160e560020a62461bcd02815260206004820152601c60248201527f4552433732313a20746f6b656e20616c7265616479206d696e746564000000006044820152606401610522565b600160a060020a038216600090815260046020526040812080546001929061168b908490611d04565b9091555050600081815260036020526040808220805473ffffffffffffffffffffffffffffffffffffffff1916600160a060020a03861690811790915590518392907fddf252ad1be2c89b69c2b068fc378daa952ba7f163c4a11628f55a4df523b3ef908290a45050565b82805461170290611bb1565b90600052602060002090601f016020900481019282611724576000855561176a565b82601f1061173d57805160ff191683800117855561176a565b8280016001018555821561176a579182015b8281111561176a57825182559160200191906001019061174f565b5061177692915061177a565b5090565b5b80821115611776576000815560010161177b565b600160e060020a031981168114610dfa57600080fd5b6000602082840312156117b757600080fd5b8135610bc28161178f565b60005b838110156117dd5781810151838201526020016117c5565b83811115610aca5750506000910152565b600081518084526118068160208601602086016117c2565b601f01601f19169290920160200192915050565b602081526000610bc260208301846117ee565b60006020828403121561183f57600080fd5b5035919050565b8035600160a060020a038116811461185d57600080fd5b919050565b6000806040838503121561187557600080fd5b61187e83611846565b946020939093013593505050565b6000806000606084860312156118a157600080fd5b6118aa84611846565b92506118b860208501611846565b9150604084013590509250925092565b60e060020a634e487b7102600052604160045260246000fd5b600067ffffffffffffffff808411156118fc576118fc6118c8565b604051601f8501601f19908116603f01168101908282118183101715611924576119246118c8565b8160405280935085815286868601111561193d57600080fd5b858560208301376000602087830101525050509392505050565b803560ff8116811461185d57600080fd5b60008060006060848603121561197d57600080fd5b61198684611846565b9250602084013567ffffffffffffffff8111156119a257600080fd5b8401601f810186136119b357600080fd5b6119c2868235602084016118e1565b9250506119d160408501611957565b90509250925092565b6000602082840312156119ec57600080fd5b610bc282611846565b600060208284031215611a0757600080fd5b610bc282611957565b600160a060020a038516815260ff84166020820152608060408201526000611a3b60808301856117ee565b905060ff8316606083015295945050505050565b600080600060608486031215611a6457600080fd5b611a6d84611846565b9250611a7b60208501611846565b91506119d160408501611957565b60008060408385031215611a9c57600080fd5b611aa583611846565b915060208301358015158114611aba57600080fd5b809150509250929050565b60008060008060808587031215611adb57600080fd5b611ae485611846565b9350611af260208601611846565b925060408501359150606085013567ffffffffffffffff811115611b1557600080fd5b8501601f81018713611b2657600080fd5b611b35878235602084016118e1565b91505092959194509250565b60008060408385031215611b5457600080fd5b611b5d83611846565b9150611b6b60208401611846565b90509250929050565b600160a060020a0385168152608060208201526000611b9660808301866117ee565b60ff9485166040840152929093166060909101529392505050565b600281046001821680611bc557607f821691505b602082108103611be85760e060020a634e487b7102600052602260045260246000fd5b50919050565b60208082526031908201527f4552433732313a207472616e736665722063616c6c6572206973206e6f74206f60408201527f776e6572206e6f7220617070726f766564000000000000000000000000000000606082015260800190565b6020808252818101527f4f776e61626c653a2063616c6c6572206973206e6f7420746865206f776e6572604082015260600190565b60e060020a634e487b7102600052601160045260246000fd5b600060ff821660ff84168060ff03821115611cb657611cb6611c80565b019392505050565b60008351611cd08184602088016117c2565b835190830190611ce48183602088016117c2565b01949350505050565b600082821015611cff57611cff611c80565b500390565b60008219821115611d1757611d17611c80565b500190565b60208082526032908201527f4552433732313a207472616e7366657220746f206e6f6e20455243373231526560408201527f63656976657220696d706c656d656e7465720000000000000000000000000000606082015260800190565b600060018201611d8b57611d8b611c80565b5060010190565b60e060020a634e487b7102600052601260045260246000fd5b600082611dba57611dba611d92565b500490565b600082611dce57611dce611d92565b500690565b60e060020a634e487b7102600052603260045260246000fd5b6000600160a060020a03808716835280861660208401525083604083015260806060830152611e1e60808301846117ee565b9695505050505050565b600060208284031215611e3a57600080fd5b8151610bc28161178f56fea2646970667358221220dc52440efad9782936baefe5ca917f5663f0cd9ec53d37f5e34c7815addb02d464736f6c634300080e0033",
  "immutableReferences": {},
  "source": "// SPDX-License-Identifier: MIT\r\npragma solidity >=0.8.0 <0.9.0;\r\n \r\nimport \"./../node_modules/@openzeppelin/contracts/access/Ownable.sol\"; \r\nimport \"./../node_modules/@openzeppelin/contracts/token/ERC721/ERC721.sol\";\r\n\r\n    contract newNFT is Ownable, ERC721(\"NFT\", \"TRY_NFT\"){\r\n        uint8 private tokenId;\r\n        mapping(uint8=>NFT_info) public ownershipRecord;\r\n\r\n        struct NFT_info{\r\n            address nft_owner;\r\n            uint8 token_Id;\r\n            string  description_collectible; // collectible description\r\n            uint8 class; //class value\r\n        }\r\n\r\n        event NFT_mint(address owner, uint8 token_id, string description_collectible, uint8 class );\r\n\r\n        //mint a new token and store locally its information\r\n        function mintToken(address recipient, string memory description_collectible_given, uint8 given_class) onlyOwner external returns (uint8) {\r\n            _safeMint(recipient, tokenId);\r\n            ownershipRecord[tokenId]=(NFT_info(recipient,tokenId, description_collectible_given, given_class));\r\n            \r\n            uint8 token_return = tokenId; //save the token_id of the actual NFT minted, then return it\r\n\r\n            tokenId = tokenId + 1;\r\n            return token_return;\r\n        }\r\n\r\n        //trasnfer the ownership to a new owner\r\n        function give_to_winner(address owner,address winner, uint8 _tokenId) external {\r\n            super._transfer(owner, winner, _tokenId); //change the NFT owner class attribute\r\n            ownershipRecord[_tokenId].nft_owner=winner; //change the NFT owner local attribute\r\n        } \r\n\r\n        //return all the info about a NFT identified by its token_id\r\n        function get_NFT_informations(uint8 tokenId_given) public view returns (address, string memory, uint8, uint8){\r\n            return (ownershipRecord[tokenId_given].nft_owner,  ownershipRecord[tokenId_given].description_collectible, ownershipRecord[tokenId_given].class, tokenId_given);\r\n        }\r\n\r\n        //return the string description about a NFT identified by its token_id\r\n        function get_NFT_desc(uint8 tokenId_given) public view returns (string memory){\r\n            return (ownershipRecord[tokenId_given].description_collectible);\r\n        }\r\n\r\n\r\n\r\n}\r\n",
  "sourcePath": "/home/matteo/P2P/contracts/newNFT.sol",
  "compiler": {
    "name": "solc",
    "version": "0.8.14+commit.80d49f37.Emscripten.clang"
  },
  "schemaVersion": "3.4.7",
  "updatedAt": "2022-06-22T14:40:42.029Z",
  "devdoc": {
    "kind": "dev",
    "methods": {
      "approve(address,uint256)": {
        "details": "See {IERC721-approve}."
      },
      "balanceOf(address)": {
        "details": "See {IERC721-balanceOf}."
      },
      "getApproved(uint256)": {
        "details": "See {IERC721-getApproved}."
      },
      "isApprovedForAll(address,address)": {
        "details": "See {IERC721-isApprovedForAll}."
      },
      "name()": {
        "details": "See {IERC721Metadata-name}."
      },
      "owner()": {
        "details": "Returns the address of the current owner."
      },
      "ownerOf(uint256)": {
        "details": "See {IERC721-ownerOf}."
      },
      "renounceOwnership()": {
        "details": "Leaves the contract without owner. It will not be possible to call `onlyOwner` functions anymore. Can only be called by the current owner. NOTE: Renouncing ownership will leave the contract without an owner, thereby removing any functionality that is only available to the owner."
      },
      "safeTransferFrom(address,address,uint256)": {
        "details": "See {IERC721-safeTransferFrom}."
      },
      "safeTransferFrom(address,address,uint256,bytes)": {
        "details": "See {IERC721-safeTransferFrom}."
      },
      "setApprovalForAll(address,bool)": {
        "details": "See {IERC721-setApprovalForAll}."
      },
      "supportsInterface(bytes4)": {
        "details": "See {IERC165-supportsInterface}."
      },
      "symbol()": {
        "details": "See {IERC721Metadata-symbol}."
      },
      "tokenURI(uint256)": {
        "details": "See {IERC721Metadata-tokenURI}."
      },
      "transferFrom(address,address,uint256)": {
        "details": "See {IERC721-transferFrom}."
      },
      "transferOwnership(address)": {
        "details": "Transfers ownership of the contract to a new account (`newOwner`). Can only be called by the current owner."
      }
    },
    "version": 1
  },
  "userdoc": {
    "kind": "user",
    "methods": {},
    "version": 1
  }
}