{
  "contractName": "newNFT",
  "abi": [
    {
      "anonymous": false,
      "inputs": [
        {
          "indexed": true,
          "internalType": "address",
          "name": "owner",
          "type": "address"
        },
        {
          "indexed": true,
          "internalType": "address",
          "name": "approved",
          "type": "address"
        },
        {
          "indexed": true,
          "internalType": "uint256",
          "name": "tokenId",
          "type": "uint256"
        }
      ],
      "name": "Approval",
      "type": "event"
    },
    {
      "anonymous": false,
      "inputs": [
        {
          "indexed": true,
          "internalType": "address",
          "name": "owner",
          "type": "address"
        },
        {
          "indexed": true,
          "internalType": "address",
          "name": "operator",
          "type": "address"
        },
        {
          "indexed": false,
          "internalType": "bool",
          "name": "approved",
          "type": "bool"
        }
      ],
      "name": "ApprovalForAll",
      "type": "event"
    },
    {
      "anonymous": false,
      "inputs": [
        {
          "indexed": false,
          "internalType": "address",
          "name": "owner",
          "type": "address"
        },
        {
          "indexed": false,
          "internalType": "uint8",
          "name": "token_id",
          "type": "uint8"
        },
        {
          "indexed": false,
          "internalType": "string",
          "name": "description_collectible",
          "type": "string"
        },
        {
          "indexed": false,
          "internalType": "uint8",
          "name": "class",
          "type": "uint8"
        }
      ],
      "name": "NFT_mint",
      "type": "event"
    },
    {
      "anonymous": false,
      "inputs": [
        {
          "indexed": true,
          "internalType": "address",
          "name": "previousOwner",
          "type": "address"
        },
        {
          "indexed": true,
          "internalType": "address",
          "name": "newOwner",
          "type": "address"
        }
      ],
      "name": "OwnershipTransferred",
      "type": "event"
    },
    {
      "anonymous": false,
      "inputs": [
        {
          "indexed": true,
          "internalType": "address",
          "name": "from",
          "type": "address"
        },
        {
          "indexed": true,
          "internalType": "address",
          "name": "to",
          "type": "address"
        },
        {
          "indexed": true,
          "internalType": "uint256",
          "name": "tokenId",
          "type": "uint256"
        }
      ],
      "name": "Transfer",
      "type": "event"
    },
    {
      "inputs": [
        {
          "internalType": "address",
          "name": "to",
          "type": "address"
        },
        {
          "internalType": "uint256",
          "name": "tokenId",
          "type": "uint256"
        }
      ],
      "name": "approve",
      "outputs": [],
      "stateMutability": "nonpayable",
      "type": "function"
    },
    {
      "inputs": [
        {
          "internalType": "address",
          "name": "owner",
          "type": "address"
        }
      ],
      "name": "balanceOf",
      "outputs": [
        {
          "internalType": "uint256",
          "name": "",
          "type": "uint256"
        }
      ],
      "stateMutability": "view",
      "type": "function"
    },
    {
      "inputs": [
        {
          "internalType": "uint256",
          "name": "tokenId",
          "type": "uint256"
        }
      ],
      "name": "getApproved",
      "outputs": [
        {
          "internalType": "address",
          "name": "",
          "type": "address"
        }
      ],
      "stateMutability": "view",
      "type": "function"
    },
    {
      "inputs": [
        {
          "internalType": "address",
          "name": "owner",
          "type": "address"
        },
        {
          "internalType": "address",
          "name": "operator",
          "type": "address"
        }
      ],
      "name": "isApprovedForAll",
      "outputs": [
        {
          "internalType": "bool",
          "name": "",
          "type": "bool"
        }
      ],
      "stateMutability": "view",
      "type": "function"
    },
    {
      "inputs": [],
      "name": "name",
      "outputs": [
        {
          "internalType": "string",
          "name": "",
          "type": "string"
        }
      ],
      "stateMutability": "view",
      "type": "function"
    },
    {
      "inputs": [],
      "name": "owner",
      "outputs": [
        {
          "internalType": "address",
          "name": "",
          "type": "address"
        }
      ],
      "stateMutability": "view",
      "type": "function"
    },
    {
      "inputs": [
        {
          "internalType": "uint256",
          "name": "tokenId",
          "type": "uint256"
        }
      ],
      "name": "ownerOf",
      "outputs": [
        {
          "internalType": "address",
          "name": "",
          "type": "address"
        }
      ],
      "stateMutability": "view",
      "type": "function"
    },
    {
      "inputs": [
        {
          "internalType": "uint8",
          "name": "",
          "type": "uint8"
        }
      ],
      "name": "ownershipRecord",
      "outputs": [
        {
          "internalType": "address",
          "name": "nft_owner",
          "type": "address"
        },
        {
          "internalType": "uint8",
          "name": "token_Id",
          "type": "uint8"
        },
        {
          "internalType": "string",
          "name": "description_collectible",
          "type": "string"
        },
        {
          "internalType": "uint8",
          "name": "class",
          "type": "uint8"
        }
      ],
      "stateMutability": "view",
      "type": "function"
    },
    {
      "inputs": [],
      "name": "renounceOwnership",
      "outputs": [],
      "stateMutability": "nonpayable",
      "type": "function"
    },
    {
      "inputs": [
        {
          "internalType": "address",
          "name": "from",
          "type": "address"
        },
        {
          "internalType": "address",
          "name": "to",
          "type": "address"
        },
        {
          "internalType": "uint256",
          "name": "tokenId",
          "type": "uint256"
        }
      ],
      "name": "safeTransferFrom",
      "outputs": [],
      "stateMutability": "nonpayable",
      "type": "function"
    },
    {
      "inputs": [
        {
          "internalType": "address",
          "name": "from",
          "type": "address"
        },
        {
          "internalType": "address",
          "name": "to",
          "type": "address"
        },
        {
          "internalType": "uint256",
          "name": "tokenId",
          "type": "uint256"
        },
        {
          "internalType": "bytes",
          "name": "_data",
          "type": "bytes"
        }
      ],
      "name": "safeTransferFrom",
      "outputs": [],
      "stateMutability": "nonpayable",
      "type": "function"
    },
    {
      "inputs": [
        {
          "internalType": "address",
          "name": "operator",
          "type": "address"
        },
        {
          "internalType": "bool",
          "name": "approved",
          "type": "bool"
        }
      ],
      "name": "setApprovalForAll",
      "outputs": [],
      "stateMutability": "nonpayable",
      "type": "function"
    },
    {
      "inputs": [
        {
          "internalType": "bytes4",
          "name": "interfaceId",
          "type": "bytes4"
        }
      ],
      "name": "supportsInterface",
      "outputs": [
        {
          "internalType": "bool",
          "name": "",
          "type": "bool"
        }
      ],
      "stateMutability": "view",
      "type": "function"
    },
    {
      "inputs": [],
      "name": "symbol",
      "outputs": [
        {
          "internalType": "string",
          "name": "",
          "type": "string"
        }
      ],
      "stateMutability": "view",
      "type": "function"
    },
    {
      "inputs": [
        {
          "internalType": "uint256",
          "name": "tokenId",
          "type": "uint256"
        }
      ],
      "name": "tokenURI",
      "outputs": [
        {
          "internalType": "string",
          "name": "",
          "type": "string"
        }
      ],
      "stateMutability": "view",
      "type": "function"
    },
    {
      "inputs": [
        {
          "internalType": "address",
          "name": "from",
          "type": "address"
        },
        {
          "internalType": "address",
          "name": "to",
          "type": "address"
        },
        {
          "internalType": "uint256",
          "name": "tokenId",
          "type": "uint256"
        }
      ],
      "name": "transferFrom",
      "outputs": [],
      "stateMutability": "nonpayable",
      "type": "function"
    },
    {
      "inputs": [
        {
          "internalType": "address",
          "name": "newOwner",
          "type": "address"
        }
      ],
      "name": "transferOwnership",
      "outputs": [],
      "stateMutability": "nonpayable",
      "type": "function"
    },
    {
      "inputs": [
        {
          "internalType": "address",
          "name": "recipient",
          "type": "address"
        },
        {
          "internalType": "string",
          "name": "description_collectible_given",
          "type": "string"
        },
        {
          "internalType": "uint8",
          "name": "given_class",
          "type": "uint8"
        }
      ],
      "name": "mintToken",
      "outputs": [
        {
          "internalType": "uint8",
          "name": "",
          "type": "uint8"
        }
      ],
      "stateMutability": "nonpayable",
      "type": "function"
    },
    {
      "inputs": [
        {
          "internalType": "address",
          "name": "winner",
          "type": "address"
        },
        {
          "internalType": "uint8",
          "name": "_tokenId",
          "type": "uint8"
        }
      ],
      "name": "give_to_winner",
      "outputs": [],
      "stateMutability": "nonpayable",
      "type": "function"
    },
    {
      "inputs": [
        {
          "internalType": "uint8",
          "name": "tokenId_given",
          "type": "uint8"
        }
      ],
      "name": "get_NFT_informations",
      "outputs": [
        {
          "internalType": "address",
          "name": "",
          "type": "address"
        },
        {
          "internalType": "string",
          "name": "",
          "type": "string"
        },
        {
          "internalType": "uint8",
          "name": "",
          "type": "uint8"
        }
      ],
      "stateMutability": "view",
      "type": "function"
    }
  ],
  "bytecode": "0x60806040523480156200001157600080fd5b506040518060400160405280600381526020017f4e465400000000000000000000000000000000000000000000000000000000008152506040518060400160405280600781526020017f5452595f4e465400000000000000000000000000000000000000000000000000815250620000aa6200009b620000de640100000000026401000000009004565b640100000000620000e2810204565b8151620000bf90600190602085019062000132565b508051620000d590600290602084019062000132565b5050506200022d565b3390565b60008054600160a060020a03838116600160a060020a0319831681178455604051919092169283917f8be0079c531659141344cd1fd0a4f28419497f9722a3daafe3b4186f6b6457e09190a35050565b8280546200014090620001d8565b90600052602060002090601f016020900481019282620001645760008555620001af565b82601f106200017f57805160ff1916838001178555620001af565b82800160010185558215620001af579182015b82811115620001af57825182559160200191906001019062000192565b50620001bd929150620001c1565b5090565b5b80821115620001bd5760008155600101620001c2565b600281046001821680620001ed57607f821691505b60208210810362000227577f4e487b7100000000000000000000000000000000000000000000000000000000600052602260045260246000fd5b50919050565b611d9f806200023d6000396000f3fe608060405234801561001057600080fd5b5060043610610149576000357c010000000000000000000000000000000000000000000000000000000090048063715018a6116100ca578063b88d4fde1161008e578063b88d4fde146102b4578063c87b56dd146102c7578063e985e9c5146102da578063ecd6935414610316578063f2fde38b1461033857600080fd5b8063715018a61461025d5780638d764859146102655780638da5cb5b1461028857806395d89b4114610299578063a22cb465146102a157600080fd5b8063356837fe11610111578063356837fe146101de5780634227e9891461020357806342842e0e146102165780636352211e1461022957806370a082311461023c57600080fd5b806301ffc9a71461014e57806306fdde0314610176578063081812fc1461018b578063095ea7b3146101b657806323b872dd146101cb575b600080fd5b61016161015c3660046116e1565b61034b565b60405190151581526020015b60405180910390f35b61017e6103e8565b60405161016d9190611756565b61019e610199366004611769565b61047a565b604051600160a060020a03909116815260200161016d565b6101c96101c436600461179e565b610528565b005b6101c96101d93660046117c8565b61065f565b6101f16101ec3660046118a4565b610693565b60405160ff909116815260200161016d565b6101c9610211366004611916565b6107fd565b6101c96102243660046117c8565b61080f565b61019e610237366004611769565b61082a565b61024f61024a366004611949565b6108b8565b60405190815260200161016d565b6101c9610955565b610278610273366004611964565b61098e565b60405161016d949392919061197f565b600054600160a060020a031661019e565b61017e610a63565b6101c96102af3660046119be565b610a72565b6101c96102c23660046119fa565b610a7d565b61017e6102d5366004611769565b610ab8565b6101616102e8366004611a76565b600160a060020a03918216600090815260066020908152604080832093909416825291909152205460ff1690565b610329610324366004611964565b610bb1565b60405161016d93929190611aa0565b6101c9610346366004611949565b610c81565b6000600160e060020a031982167f80ac58cd0000000000000000000000000000000000000000000000000000000014806103ae5750600160e060020a031982167f5b5e139f00000000000000000000000000000000000000000000000000000000145b806103e257507f01ffc9a700000000000000000000000000000000000000000000000000000000600160e060020a03198316145b92915050565b6060600180546103f790611ad5565b80601f016020809104026020016040519081016040528092919081815260200182805461042390611ad5565b80156104705780601f1061044557610100808354040283529160200191610470565b820191906000526020600020905b81548152906001019060200180831161045357829003601f168201915b5050505050905090565b600081815260036020526040812054600160a060020a031661050c5760405160e560020a62461bcd02815260206004820152602c60248201527f4552433732313a20617070726f76656420717565727920666f72206e6f6e657860448201527f697374656e7420746f6b656e000000000000000000000000000000000000000060648201526084015b60405180910390fd5b50600090815260056020526040902054600160a060020a031690565b60006105338261082a565b905080600160a060020a031683600160a060020a0316036105bf5760405160e560020a62461bcd02815260206004820152602160248201527f4552433732313a20617070726f76616c20746f2063757272656e74206f776e6560448201527f72000000000000000000000000000000000000000000000000000000000000006064820152608401610503565b33600160a060020a03821614806105db57506105db81336102e8565b6106505760405160e560020a62461bcd02815260206004820152603860248201527f4552433732313a20617070726f76652063616c6c6572206973206e6f74206f7760448201527f6e6572206e6f7220617070726f76656420666f7220616c6c00000000000000006064820152608401610503565b61065a8383610d39565b505050565b6106693382610db4565b6106885760405160e560020a62461bcd02815260040161050390611b12565b61065a838383610ebf565b60008054600160a060020a031633146106c15760405160e560020a62461bcd02815260040161050390611b6f565b6007546106d290859060ff1661109f565b60408051608081018252600160a060020a03808716825260075460ff90811660208085018281528587018a8152898516606088015260009384526008835296909220855181549351909416740100000000000000000000000000000000000000000274ffffffffffffffffffffffffffffffffffffffffff19909316939094169290921717825592518051929391926107719260018501920190611632565b50606091909101516002909101805460ff191660ff9283161790556007546040519116907f6469667cdac4cd397a04489a77d1cca2dc4372837749e590f8642e067a2ecd51906107c890879084908890889061197f565b60405180910390a16007546107e19060ff166001611bbd565b6007805460ff191660ff92909216919091179055949350505050565b61080b33838360ff16610ebf565b5050565b61065a83838360405180602001604052806000815250610a7d565b600081815260036020526040812054600160a060020a0316806103e25760405160e560020a62461bcd02815260206004820152602960248201527f4552433732313a206f776e657220717565727920666f72206e6f6e657869737460448201527f656e7420746f6b656e00000000000000000000000000000000000000000000006064820152608401610503565b6000600160a060020a0382166109395760405160e560020a62461bcd02815260206004820152602a60248201527f4552433732313a2062616c616e636520717565727920666f7220746865207a6560448201527f726f2061646472657373000000000000000000000000000000000000000000006064820152608401610503565b50600160a060020a031660009081526004602052604090205490565b600054600160a060020a031633146109825760405160e560020a62461bcd02815260040161050390611b6f565b61098c60006110b9565b565b60086020526000908152604090208054600182018054600160a060020a038316937401000000000000000000000000000000000000000090930460ff169291906109d790611ad5565b80601f0160208091040260200160405190810160405280929190818152602001828054610a0390611ad5565b8015610a505780601f10610a2557610100808354040283529160200191610a50565b820191906000526020600020905b815481529060010190602001808311610a3357829003601f168201915b5050506002909301549192505060ff1684565b6060600280546103f790611ad5565b61080b338383611116565b610a873383610db4565b610aa65760405160e560020a62461bcd02815260040161050390611b12565b610ab2848484846111e7565b50505050565b600081815260036020526040902054606090600160a060020a0316610b485760405160e560020a62461bcd02815260206004820152602f60248201527f4552433732314d657461646174613a2055524920717565727920666f72206e6f60448201527f6e6578697374656e7420746f6b656e00000000000000000000000000000000006064820152608401610503565b6000610b5f60408051602081019091526000815290565b90506000815111610b7f5760405180602001604052806000815250610baa565b80610b898461121d565b604051602001610b9a929190611be2565b6040516020818303038152906040525b9392505050565b60ff8082166000908152600860205260408120805460028201546001909201805493946060948694600160a060020a0390941693909116908290610bf490611ad5565b80601f0160208091040260200160405190810160405280929190818152602001828054610c2090611ad5565b8015610c6d5780601f10610c4257610100808354040283529160200191610c6d565b820191906000526020600020905b815481529060010190602001808311610c5057829003601f168201915b505050505091509250925092509193909250565b600054600160a060020a03163314610cae5760405160e560020a62461bcd02815260040161050390611b6f565b600160a060020a038116610d2d5760405160e560020a62461bcd02815260206004820152602660248201527f4f776e61626c653a206e6577206f776e657220697320746865207a65726f206160448201527f64647265737300000000000000000000000000000000000000000000000000006064820152608401610503565b610d36816110b9565b50565b6000818152600560205260409020805473ffffffffffffffffffffffffffffffffffffffff1916600160a060020a0384169081179091558190610d7b8261082a565b600160a060020a03167f8c5be1e5ebec7d5bd14f71427d1e84f3dd0314c0f7b2291e5b200ac8c7c3b92560405160405180910390a45050565b600081815260036020526040812054600160a060020a0316610e415760405160e560020a62461bcd02815260206004820152602c60248201527f4552433732313a206f70657261746f7220717565727920666f72206e6f6e657860448201527f697374656e7420746f6b656e00000000000000000000000000000000000000006064820152608401610503565b6000610e4c8361082a565b905080600160a060020a031684600160a060020a03161480610e935750600160a060020a0380821660009081526006602090815260408083209388168352929052205460ff165b80610eb7575083600160a060020a0316610eac8461047a565b600160a060020a0316145b949350505050565b82600160a060020a0316610ed28261082a565b600160a060020a031614610f515760405160e560020a62461bcd02815260206004820152602560248201527f4552433732313a207472616e736665722066726f6d20696e636f72726563742060448201527f6f776e65720000000000000000000000000000000000000000000000000000006064820152608401610503565b600160a060020a038216610fcf5760405160e560020a62461bcd028152602060048201526024808201527f4552433732313a207472616e7366657220746f20746865207a65726f2061646460448201527f72657373000000000000000000000000000000000000000000000000000000006064820152608401610503565b610fda600082610d39565b600160a060020a0383166000908152600460205260408120805460019290611003908490611c11565b9091555050600160a060020a0382166000908152600460205260408120805460019290611031908490611c28565b9091555050600081815260036020526040808220805473ffffffffffffffffffffffffffffffffffffffff1916600160a060020a0386811691821790925591518493918716917fddf252ad1be2c89b69c2b068fc378daa952ba7f163c4a11628f55a4df523b3ef91a4505050565b61080b828260405180602001604052806000815250611371565b60008054600160a060020a0383811673ffffffffffffffffffffffffffffffffffffffff19831681178455604051919092169283917f8be0079c531659141344cd1fd0a4f28419497f9722a3daafe3b4186f6b6457e09190a35050565b81600160a060020a031683600160a060020a03160361117a5760405160e560020a62461bcd02815260206004820152601960248201527f4552433732313a20617070726f766520746f2063616c6c6572000000000000006044820152606401610503565b600160a060020a03838116600081815260066020908152604080832094871680845294825291829020805460ff191686151590811790915591519182527f17307eab39ab6107e8899845ad3d59bd9653f200f220920489ca2b5937696c31910160405180910390a3505050565b6111f2848484610ebf565b6111fe848484846113a7565b610ab25760405160e560020a62461bcd02815260040161050390611c40565b60608160000361126057505060408051808201909152600181527f3000000000000000000000000000000000000000000000000000000000000000602082015290565b8160005b811561128a578061127481611c9d565b91506112839050600a83611ccf565b9150611264565b60008167ffffffffffffffff8111156112a5576112a5611804565b6040519080825280601f01601f1916602001820160405280156112cf576020820181803683370190505b5090505b8415610eb7576112e4600183611c11565b91506112f1600a86611ce3565b6112fc906030611c28565b7f01000000000000000000000000000000000000000000000000000000000000000281838151811061133057611330611cf7565b60200101907effffffffffffffffffffffffffffffffffffffffffffffffffffffffffffff1916908160001a90535061136a600a86611ccf565b94506112d3565b61137b83836114dd565b61138860008484846113a7565b61065a5760405160e560020a62461bcd02815260040161050390611c40565b6000600160a060020a0384163b156114d2576040517f150b7a02000000000000000000000000000000000000000000000000000000008152600160a060020a0385169063150b7a0290611404903390899088908890600401611d10565b6020604051808303816000875af192505050801561143f575060408051601f3d908101601f1916820190925261143c91810190611d4c565b60015b61149f573d80801561146d576040519150601f19603f3d011682016040523d82523d6000602084013e611472565b606091505b5080516000036114975760405160e560020a62461bcd02815260040161050390611c40565b805181602001fd5b600160e060020a0319167f150b7a0200000000000000000000000000000000000000000000000000000000149050610eb7565b506001949350505050565b600160a060020a0382166115365760405160e560020a62461bcd02815260206004820181905260248201527f4552433732313a206d696e7420746f20746865207a65726f20616464726573736044820152606401610503565b600081815260036020526040902054600160a060020a03161561159e5760405160e560020a62461bcd02815260206004820152601c60248201527f4552433732313a20746f6b656e20616c7265616479206d696e746564000000006044820152606401610503565b600160a060020a03821660009081526004602052604081208054600192906115c7908490611c28565b9091555050600081815260036020526040808220805473ffffffffffffffffffffffffffffffffffffffff1916600160a060020a03861690811790915590518392907fddf252ad1be2c89b69c2b068fc378daa952ba7f163c4a11628f55a4df523b3ef908290a45050565b82805461163e90611ad5565b90600052602060002090601f01602090048101928261166057600085556116a6565b82601f1061167957805160ff19168380011785556116a6565b828001600101855582156116a6579182015b828111156116a657825182559160200191906001019061168b565b506116b29291506116b6565b5090565b5b808211156116b257600081556001016116b7565b600160e060020a031981168114610d3657600080fd5b6000602082840312156116f357600080fd5b8135610baa816116cb565b60005b83811015611719578181015183820152602001611701565b83811115610ab25750506000910152565b600081518084526117428160208601602086016116fe565b601f01601f19169290920160200192915050565b602081526000610baa602083018461172a565b60006020828403121561177b57600080fd5b5035919050565b8035600160a060020a038116811461179957600080fd5b919050565b600080604083850312156117b157600080fd5b6117ba83611782565b946020939093013593505050565b6000806000606084860312156117dd57600080fd5b6117e684611782565b92506117f460208501611782565b9150604084013590509250925092565b60e060020a634e487b7102600052604160045260246000fd5b600067ffffffffffffffff8084111561183857611838611804565b604051601f8501601f19908116603f0116810190828211818310171561186057611860611804565b8160405280935085815286868601111561187957600080fd5b858560208301376000602087830101525050509392505050565b803560ff8116811461179957600080fd5b6000806000606084860312156118b957600080fd5b6118c284611782565b9250602084013567ffffffffffffffff8111156118de57600080fd5b8401601f810186136118ef57600080fd5b6118fe8682356020840161181d565b92505061190d60408501611893565b90509250925092565b6000806040838503121561192957600080fd5b61193283611782565b915061194060208401611893565b90509250929050565b60006020828403121561195b57600080fd5b610baa82611782565b60006020828403121561197657600080fd5b610baa82611893565b600160a060020a038516815260ff841660208201526080604082015260006119aa608083018561172a565b905060ff8316606083015295945050505050565b600080604083850312156119d157600080fd5b6119da83611782565b9150602083013580151581146119ef57600080fd5b809150509250929050565b60008060008060808587031215611a1057600080fd5b611a1985611782565b9350611a2760208601611782565b925060408501359150606085013567ffffffffffffffff811115611a4a57600080fd5b8501601f81018713611a5b57600080fd5b611a6a8782356020840161181d565b91505092959194509250565b60008060408385031215611a8957600080fd5b611a9283611782565b915061194060208401611782565b600160a060020a0384168152606060208201526000611ac2606083018561172a565b905060ff83166040830152949350505050565b600281046001821680611ae957607f821691505b602082108103611b0c5760e060020a634e487b7102600052602260045260246000fd5b50919050565b60208082526031908201527f4552433732313a207472616e736665722063616c6c6572206973206e6f74206f60408201527f776e6572206e6f7220617070726f766564000000000000000000000000000000606082015260800190565b6020808252818101527f4f776e61626c653a2063616c6c6572206973206e6f7420746865206f776e6572604082015260600190565b60e060020a634e487b7102600052601160045260246000fd5b600060ff821660ff84168060ff03821115611bda57611bda611ba4565b019392505050565b60008351611bf48184602088016116fe565b835190830190611c088183602088016116fe565b01949350505050565b600082821015611c2357611c23611ba4565b500390565b60008219821115611c3b57611c3b611ba4565b500190565b60208082526032908201527f4552433732313a207472616e7366657220746f206e6f6e20455243373231526560408201527f63656976657220696d706c656d656e7465720000000000000000000000000000606082015260800190565b600060018201611caf57611caf611ba4565b5060010190565b60e060020a634e487b7102600052601260045260246000fd5b600082611cde57611cde611cb6565b500490565b600082611cf257611cf2611cb6565b500690565b60e060020a634e487b7102600052603260045260246000fd5b6000600160a060020a03808716835280861660208401525083604083015260806060830152611d42608083018461172a565b9695505050505050565b600060208284031215611d5e57600080fd5b8151610baa816116cb56fea26469706673582212203b39eca73dce06456a48c7534a79d34e2392a0edc69faf4515cde61ec4776c6f64736f6c634300080e0033",
  "immutableReferences": {},
  "source": "// SPDX-License-Identifier: MIT\r\npragma solidity >=0.8.0 <0.9.0;\r\n \r\nimport \"./../node_modules/@openzeppelin/contracts/access/Ownable.sol\"; \r\nimport \"./../node_modules/@openzeppelin/contracts/token/ERC721/ERC721.sol\";\r\n\r\n    contract newNFT is Ownable, ERC721(\"NFT\", \"TRY_NFT\"){\r\n        uint8 private tokenId;\r\n        mapping(uint8=>NFT_info) public ownershipRecord;\r\n\r\n        struct NFT_info{\r\n            address nft_owner;\r\n            uint8 token_Id;\r\n            string  description_collectible; // collectible description\r\n            uint8 class; //class value\r\n        }\r\n\r\n        event NFT_mint(address owner, uint8 token_id, string description_collectible, uint8 class );\r\n\r\n        function mintToken(address recipient, string memory description_collectible_given, uint8 given_class) onlyOwner external returns (uint8) {\r\n            //require(owner()!=recipient, \"Recipient cannot be the owner of the contract\");\r\n            _safeMint(recipient, tokenId);\r\n            ownershipRecord[tokenId]=(NFT_info(recipient,tokenId, description_collectible_given, given_class));\r\n            uint8 token_return = tokenId;\r\n\r\n            emit NFT_mint(recipient,tokenId, description_collectible_given, given_class);\r\n\r\n            tokenId = tokenId + 1;\r\n            return token_return;\r\n        }\r\n\r\n        function give_to_winner(address winner, uint8 _tokenId) external {\r\n            super._transfer(msg.sender,winner, _tokenId);\r\n        } \r\n\r\n        function get_NFT_informations(uint8 tokenId_given) public view returns (address, string memory, uint8){\r\n            return (ownershipRecord[tokenId_given].nft_owner,  ownershipRecord[tokenId_given].description_collectible, ownershipRecord[tokenId_given].class);\r\n        }\r\n\r\n\r\n\r\n}\r\n\r\n\r\n\r\n/*\r\n \r\ncontract newNFT is NFTokenMetadata, Ownable {\r\n\r\n    string public description_collectible; // collectible description\r\n    uint8 public class; //class value\r\n\r\n    event NFT_minted(address owner, uint8 class_value, string description);\r\n \r\n    constructor() {\r\n    }\r\n \r\n    //_TOKENID IS NFT_ID IN CLASS LOTTERY\r\n    function mint(address _to, uint8 _tokenId, string memory description_collectible_given, uint8 given_class) external onlyOwner {\r\n        super._mint(_to, _tokenId);\r\n        Ownable.owner = _to;\r\n        description_collectible = description_collectible_given;\r\n        class = given_class;\r\n        emit NFT_minted(_to, given_class, description_collectible);\r\n    }\r\n\r\n\r\n    function give_to_winner(address winner, uint8 _tokenId) external {\r\n        super._transfer(winner, _tokenId);\r\n    } \r\n\r\n    function get_NFT_informations() external view returns (address, string memory, uint8){\r\n        return (Ownable.owner, description_collectible, class);\r\n    }\r\n    \r\n \r\n}\r\n*/",
  "sourcePath": "/home/matteo/P2P/contracts/newNFT.sol",
  "compiler": {
    "name": "solc",
    "version": "0.8.14+commit.80d49f37.Emscripten.clang"
  },
  "schemaVersion": "3.4.7",
  "updatedAt": "2022-06-15T17:15:35.221Z",
  "devdoc": {
    "kind": "dev",
    "methods": {
      "approve(address,uint256)": {
        "details": "See {IERC721-approve}."
      },
      "balanceOf(address)": {
        "details": "See {IERC721-balanceOf}."
      },
      "getApproved(uint256)": {
        "details": "See {IERC721-getApproved}."
      },
      "isApprovedForAll(address,address)": {
        "details": "See {IERC721-isApprovedForAll}."
      },
      "name()": {
        "details": "See {IERC721Metadata-name}."
      },
      "owner()": {
        "details": "Returns the address of the current owner."
      },
      "ownerOf(uint256)": {
        "details": "See {IERC721-ownerOf}."
      },
      "renounceOwnership()": {
        "details": "Leaves the contract without owner. It will not be possible to call `onlyOwner` functions anymore. Can only be called by the current owner. NOTE: Renouncing ownership will leave the contract without an owner, thereby removing any functionality that is only available to the owner."
      },
      "safeTransferFrom(address,address,uint256)": {
        "details": "See {IERC721-safeTransferFrom}."
      },
      "safeTransferFrom(address,address,uint256,bytes)": {
        "details": "See {IERC721-safeTransferFrom}."
      },
      "setApprovalForAll(address,bool)": {
        "details": "See {IERC721-setApprovalForAll}."
      },
      "supportsInterface(bytes4)": {
        "details": "See {IERC165-supportsInterface}."
      },
      "symbol()": {
        "details": "See {IERC721Metadata-symbol}."
      },
      "tokenURI(uint256)": {
        "details": "See {IERC721Metadata-tokenURI}."
      },
      "transferFrom(address,address,uint256)": {
        "details": "See {IERC721-transferFrom}."
      },
      "transferOwnership(address)": {
        "details": "Transfers ownership of the contract to a new account (`newOwner`). Can only be called by the current owner."
      }
    },
    "version": 1
  },
  "userdoc": {
    "kind": "user",
    "methods": {},
    "version": 1
  }
}